{
  "_format": "hh-sol-artifact-1",
  "contractName": "Hub",
  "sourceName": "contracts/Hub.sol",
  "abi": [
    {
      "inputs": [],
      "stateMutability": "nonpayable",
      "type": "constructor"
    },
    {
      "anonymous": false,
      "inputs": [
        {
          "indexed": false,
          "internalType": "uint256",
          "name": "daoId",
          "type": "uint256"
        },
        {
          "indexed": false,
          "internalType": "address",
          "name": "contributor",
          "type": "address"
        },
        {
          "indexed": false,
          "internalType": "address",
          "name": "fundedBy",
          "type": "address"
        },
        {
          "indexed": false,
          "internalType": "uint256",
          "name": "amount",
          "type": "uint256"
        }
      ],
      "name": "ContributorFunded",
      "type": "event"
    },
    {
      "anonymous": false,
      "inputs": [
        {
          "indexed": false,
          "internalType": "uint256",
          "name": "daoId",
          "type": "uint256"
        },
        {
          "indexed": false,
          "internalType": "address",
          "name": "_daoToken",
          "type": "address"
        },
        {
          "indexed": false,
          "internalType": "address",
          "name": "_collateralToken",
          "type": "address"
        },
        {
          "indexed": false,
          "internalType": "address",
          "name": "_treasury",
          "type": "address"
        },
        {
          "indexed": false,
          "internalType": "address",
          "name": "_vault",
          "type": "address"
        }
      ],
      "name": "DAOLaunch",
      "type": "event"
    },
    {
      "anonymous": false,
      "inputs": [
        {
          "indexed": false,
          "internalType": "uint256",
          "name": "daoId",
          "type": "uint256"
        },
        {
          "indexed": false,
          "internalType": "address",
          "name": "burnedBy",
          "type": "address"
        },
        {
          "indexed": false,
          "internalType": "uint256",
          "name": "amount",
          "type": "uint256"
        }
      ],
      "name": "TokenBurnedForCollateral",
      "type": "event"
    },
    {
      "anonymous": false,
      "inputs": [
        {
          "indexed": false,
          "internalType": "uint256",
          "name": "daoId",
          "type": "uint256"
        },
        {
          "indexed": false,
          "internalType": "address",
          "name": "burnedBy",
          "type": "address"
        },
        {
          "indexed": false,
          "internalType": "uint256",
          "name": "amount",
          "type": "uint256"
        }
      ],
      "name": "TokenBurnedForDaoTokens",
      "type": "event"
    },
    {
      "anonymous": false,
      "inputs": [
        {
          "indexed": false,
          "internalType": "uint256",
          "name": "daoId",
          "type": "uint256"
        },
        {
          "indexed": false,
          "internalType": "address",
          "name": "unlockedBy",
          "type": "address"
        }
      ],
      "name": "TokenUnlock",
      "type": "event"
    },
    {
      "inputs": [
        {
          "internalType": "uint256",
          "name": "daoId",
          "type": "uint256"
        },
        {
          "internalType": "uint256",
          "name": "amount",
          "type": "uint256"
        }
      ],
      "name": "burnTokenForCollateral",
      "outputs": [],
      "stateMutability": "nonpayable",
      "type": "function"
    },
    {
      "inputs": [
        {
          "internalType": "uint256",
          "name": "daoId",
          "type": "uint256"
        },
        {
          "internalType": "uint256",
          "name": "amount",
          "type": "uint256"
        }
      ],
      "name": "burnTokenForDAOToken",
      "outputs": [],
      "stateMutability": "nonpayable",
      "type": "function"
    },
    {
      "inputs": [
        {
          "internalType": "uint256",
          "name": "daoId",
          "type": "uint256"
        },
        {
          "internalType": "address",
          "name": "to",
          "type": "address"
        },
        {
          "internalType": "uint256",
          "name": "amount",
          "type": "uint256"
        }
      ],
      "name": "fundContributor",
      "outputs": [],
      "stateMutability": "nonpayable",
      "type": "function"
    },
    {
      "inputs": [
        {
          "internalType": "uint256",
          "name": "daoId",
          "type": "uint256"
        }
      ],
      "name": "getCollateralLockedAmount",
      "outputs": [
        {
          "internalType": "uint256",
          "name": "",
          "type": "uint256"
        }
      ],
      "stateMutability": "view",
      "type": "function"
    },
    {
      "inputs": [
        {
          "internalType": "uint256",
          "name": "daoId",
          "type": "uint256"
        }
      ],
      "name": "getCollateralTokenAddress",
      "outputs": [
        {
          "internalType": "address",
          "name": "",
          "type": "address"
        }
      ],
      "stateMutability": "view",
      "type": "function"
    },
    {
      "inputs": [
        {
          "internalType": "uint256",
          "name": "daoId",
          "type": "uint256"
        },
        {
          "internalType": "address",
          "name": "contributor",
          "type": "address"
        }
      ],
      "name": "getContributorClaimToDaoTokens",
      "outputs": [
        {
          "internalType": "uint256",
          "name": "",
          "type": "uint256"
        }
      ],
      "stateMutability": "view",
      "type": "function"
    },
    {
      "inputs": [
        {
          "internalType": "uint256",
          "name": "daoId",
          "type": "uint256"
        }
      ],
      "name": "getDaoTokenAddress",
      "outputs": [
        {
          "internalType": "address",
          "name": "",
          "type": "address"
        }
      ],
      "stateMutability": "view",
      "type": "function"
    },
    {
      "inputs": [
        {
          "internalType": "uint256",
          "name": "daoId",
          "type": "uint256"
        }
      ],
      "name": "getDaoTokenAllocationAmountTowardsContributors",
      "outputs": [
        {
          "internalType": "uint256",
          "name": "",
          "type": "uint256"
        }
      ],
      "stateMutability": "view",
      "type": "function"
    },
    {
      "inputs": [
        {
          "internalType": "uint256",
          "name": "daoId",
          "type": "uint256"
        }
      ],
      "name": "getDaoTokenAllocationPercentageTowardsContributors",
      "outputs": [
        {
          "internalType": "uint256",
          "name": "",
          "type": "uint256"
        }
      ],
      "stateMutability": "view",
      "type": "function"
    },
    {
      "inputs": [
        {
          "internalType": "uint256",
          "name": "daoId",
          "type": "uint256"
        },
        {
          "internalType": "address",
          "name": "contributor",
          "type": "address"
        }
      ],
      "name": "getDaoTokenBalance",
      "outputs": [
        {
          "internalType": "uint256",
          "name": "",
          "type": "uint256"
        }
      ],
      "stateMutability": "view",
      "type": "function"
    },
    {
      "inputs": [
        {
          "internalType": "uint256",
          "name": "daoId",
          "type": "uint256"
        }
      ],
      "name": "getDaoTokenTotalSupply",
      "outputs": [
        {
          "internalType": "uint256",
          "name": "",
          "type": "uint256"
        }
      ],
      "stateMutability": "view",
      "type": "function"
    },
    {
      "inputs": [],
      "name": "getNumDAOs",
      "outputs": [
        {
          "internalType": "uint256",
          "name": "",
          "type": "uint256"
        }
      ],
      "stateMutability": "view",
      "type": "function"
    },
    {
      "inputs": [
        {
          "internalType": "uint256",
          "name": "daoId",
          "type": "uint256"
        }
      ],
      "name": "getPromiseTokenAddress",
      "outputs": [
        {
          "internalType": "address",
          "name": "",
          "type": "address"
        }
      ],
      "stateMutability": "view",
      "type": "function"
    },
    {
      "inputs": [
        {
          "internalType": "uint256",
          "name": "daoId",
          "type": "uint256"
        },
        {
          "internalType": "address",
          "name": "contributor",
          "type": "address"
        }
      ],
      "name": "getPromiseTokensBalance",
      "outputs": [
        {
          "internalType": "uint256",
          "name": "",
          "type": "uint256"
        }
      ],
      "stateMutability": "view",
      "type": "function"
    },
    {
      "inputs": [
        {
          "internalType": "uint256",
          "name": "daoId",
          "type": "uint256"
        }
      ],
      "name": "getPromiseTokensTotalSuppy",
      "outputs": [
        {
          "internalType": "uint256",
          "name": "",
          "type": "uint256"
        }
      ],
      "stateMutability": "view",
      "type": "function"
    },
    {
      "inputs": [
        {
          "internalType": "uint256",
          "name": "daoId",
          "type": "uint256"
        }
      ],
      "name": "getTreasuryAddress",
      "outputs": [
        {
          "internalType": "address",
          "name": "",
          "type": "address"
        }
      ],
      "stateMutability": "view",
      "type": "function"
    },
    {
      "inputs": [
        {
          "internalType": "uint256",
          "name": "daoId",
          "type": "uint256"
        }
      ],
      "name": "getVaultAddress",
      "outputs": [
        {
          "internalType": "address",
          "name": "",
          "type": "address"
        }
      ],
      "stateMutability": "view",
      "type": "function"
    },
    {
      "inputs": [
        {
          "internalType": "uint256",
          "name": "daoId",
          "type": "uint256"
        }
      ],
      "name": "isLockedDaoToken",
      "outputs": [
        {
          "internalType": "bool",
          "name": "",
          "type": "bool"
        }
      ],
      "stateMutability": "view",
      "type": "function"
    },
    {
      "inputs": [
        {
          "internalType": "uint256",
          "name": "initialSupply",
          "type": "uint256"
        },
        {
          "internalType": "uint256",
          "name": "contributorAllocation",
          "type": "uint256"
        },
        {
          "internalType": "address",
          "name": "collateralToken",
          "type": "address"
        },
        {
          "internalType": "string",
          "name": "name",
          "type": "string"
        },
        {
          "internalType": "string",
          "name": "symbol",
          "type": "string"
        }
      ],
      "name": "launchDAO",
      "outputs": [
        {
          "internalType": "uint256",
          "name": "",
          "type": "uint256"
        }
      ],
      "stateMutability": "nonpayable",
      "type": "function"
    },
    {
      "inputs": [
        {
          "internalType": "uint256",
          "name": "daoId",
          "type": "uint256"
        }
      ],
      "name": "unlockDAOTokens",
      "outputs": [],
      "stateMutability": "nonpayable",
      "type": "function"
    }
  ],
  "bytecode": "0x6080604052600060045534801561001557600080fd5b5061939a806100256000396000f3fe60806040523480156200001157600080fd5b5060043610620001485760003560e01c8063809ea54811620000bd578063dbfda2db116200007b578063dbfda2db146200044b578063e5724a00146200046b578063e6bd26a214620004a1578063ea7cc8ac14620004d7578063fbe5e3ed14620004f95762000148565b8063809ea548146200033d578063aa7fbea61462000373578063b6c039bc14620003a9578063b8db2b3614620003df578063c89701c314620004155762000148565b80634aee985b116200010b5780634aee985b146200022f578063523ef8601462000265578063568dff4c146200029b5780637d63794314620002d15780637e2b395914620003075762000148565b8063052682a1146200014d5780631725b891146200016d578063224dc62514620001a35780632ebcc47a14620001d9578063326e28dc14620001f9575b600080fd5b6200016b6004803603810190620001659190620016ba565b62000519565b005b6200018b600480360381019062000185919062001716565b62000606565b6040516200019a919062001759565b60405180910390f35b620001c16004803603810190620001bb919062001776565b620006d9565b604051620001d0919062001759565b60405180910390f35b620001f76004803603810190620001f19190620017bd565b62000795565b005b62000217600480360381019062000211919062001716565b6200087a565b60405162000226919062001815565b60405180910390f35b6200024d600480360381019062000247919062001716565b620008b6565b6040516200025c919062001815565b60405180910390f35b6200028360048036038101906200027d919062001716565b620008f3565b60405162000292919062001759565b60405180910390f35b620002b96004803603810190620002b3919062001994565b62000a52565b604051620002c8919062001759565b60405180910390f35b620002ef6004803603810190620002e9919062001776565b62000db2565b604051620002fe919062001759565b60405180910390f35b6200032560048036038101906200031f919062001716565b62000e6e565b60405162000334919062001759565b60405180910390f35b6200035b600480360381019062000355919062001776565b62000f1c565b6040516200036a919062001759565b60405180910390f35b6200039160048036038101906200038b919062001716565b62000f60565b604051620003a0919062001759565b60405180910390f35b620003c76004803603810190620003c1919062001716565b6200100e565b604051620003d6919062001815565b60405180910390f35b620003fd6004803603810190620003f7919062001716565b6200104b565b6040516200040c919062001815565b60405180910390f35b6200043360048036038101906200042d919062001716565b62001088565b60405162000442919062001759565b60405180910390f35b62000469600480360381019062000463919062001716565b620011e7565b005b62000489600480360381019062000483919062001716565b620012ba565b60405162000498919062001a77565b60405180910390f35b620004bf6004803603810190620004b9919062001716565b62001368565b604051620004ce919062001815565b60405180910390f35b620004e162001416565b604051620004f0919062001759565b60405180910390f35b620005176004803603810190620005119190620017bd565b62001420565b005b6001600084815260200190815260200160002060009054906101000a900473ffffffffffffffffffffffffffffffffffffffff1673ffffffffffffffffffffffffffffffffffffffff16633c173a4f83833360006040518563ffffffff1660e01b81526004016200058e949392919062001ae1565b600060405180830381600087803b158015620005a957600080fd5b505af1158015620005be573d6000803e3d6000fd5b505050507f376ffa8369610d23d61f09ae1b3bdee6520fa471e111efe118cde75e91733ca483833384604051620005f9949392919062001b2e565b60405180910390a1505050565b60006002600083815260200190815260200160002060009054906101000a900473ffffffffffffffffffffffffffffffffffffffff1673ffffffffffffffffffffffffffffffffffffffff166318160ddd6040518163ffffffff1660e01b8152600401602060405180830381865afa15801562000687573d6000803e3d6000fd5b505050506040513d601f19601f82011682018060405250810190620006ad919062001b92565b6064620006ba84620008f3565b620006c6919062001bf3565b620006d2919062001c83565b9050919050565b60006001600084815260200190815260200160002060009054906101000a900473ffffffffffffffffffffffffffffffffffffffff1673ffffffffffffffffffffffffffffffffffffffff166370a08231836040518263ffffffff1660e01b815260040162000749919062001815565b602060405180830381865afa15801562000767573d6000803e3d6000fd5b505050506040513d601f19601f820116820180604052508101906200078d919062001b92565b905092915050565b6001600083815260200190815260200160002060009054906101000a900473ffffffffffffffffffffffffffffffffffffffff1673ffffffffffffffffffffffffffffffffffffffff16637d78a46782336040518363ffffffff1660e01b81526004016200080592919062001cbb565b600060405180830381600087803b1580156200082057600080fd5b505af115801562000835573d6000803e3d6000fd5b505050507f54a018029c06d8961fde20f929646a546c0b6a7b46b2192b85fb9f48fe299ae28233836040516200086e9392919062001ce8565b60405180910390a15050565b600080600083815260200190815260200160002060009054906101000a900473ffffffffffffffffffffffffffffffffffffffff169050919050565b60006003600083815260200190815260200160002060009054906101000a900473ffffffffffffffffffffffffffffffffffffffff169050919050565b60006001600083815260200190815260200160002060009054906101000a900473ffffffffffffffffffffffffffffffffffffffff1673ffffffffffffffffffffffffffffffffffffffff1663fbfa77cf6040518163ffffffff1660e01b8152600401602060405180830381865afa15801562000974573d6000803e3d6000fd5b505050506040513d601f19601f820116820180604052508101906200099a919062001d6a565b73ffffffffffffffffffffffffffffffffffffffff1663e3a9db1a6002600085815260200190815260200160002060009054906101000a900473ffffffffffffffffffffffffffffffffffffffff166040518263ffffffff1660e01b815260040162000a07919062001815565b602060405180830381865afa15801562000a25573d6000803e3d6000fd5b505050506040513d601f19601f8201168201806040525081019062000a4b919062001b92565b9050919050565b600060016004600082825462000a69919062001d9c565b92505081905550600060405162000a8090620015ce565b604051809103906000f08015801562000a9d573d6000803e3d6000fd5b50905062000ae16040518060400160405280601281526020017f547265617375727920616464726573733a2000000000000000000000000000008152508262001505565b600060405162000af190620015dc565b604051809103906000f08015801562000b0e573d6000803e3d6000fd5b509050600088888385898960405162000b2790620015ea565b62000b389695949392919062001e8c565b604051809103906000f08015801562000b55573d6000803e3d6000fd5b509050600086868984878760405162000b6e90620015f8565b62000b7f9695949392919062001f07565b604051809103906000f08015801562000b9c573d6000803e3d6000fd5b5090508273ffffffffffffffffffffffffffffffffffffffff1663f2fde38b826040518263ffffffff1660e01b815260040162000bda919062001815565b600060405180830381600087803b15801562000bf557600080fd5b505af115801562000c0a573d6000803e3d6000fd5b5050505083600080600454815260200190815260200160002060006101000a81548173ffffffffffffffffffffffffffffffffffffffff021916908373ffffffffffffffffffffffffffffffffffffffff1602179055508060016000600454815260200190815260200160002060006101000a81548173ffffffffffffffffffffffffffffffffffffffff021916908373ffffffffffffffffffffffffffffffffffffffff1602179055508160026000600454815260200190815260200160002060006101000a81548173ffffffffffffffffffffffffffffffffffffffff021916908373ffffffffffffffffffffffffffffffffffffffff1602179055508760036000600454815260200190815260200160002060006101000a81548173ffffffffffffffffffffffffffffffffffffffff021916908373ffffffffffffffffffffffffffffffffffffffff1602179055507f1bc85f782fd3722c12db3054ab29284a744cd771910e6dc30b216831c62e2b52600454838a878760405162000d9895949392919062001f82565b60405180910390a160045494505050505095945050505050565b60006002600084815260200190815260200160002060009054906101000a900473ffffffffffffffffffffffffffffffffffffffff1673ffffffffffffffffffffffffffffffffffffffff166370a08231836040518263ffffffff1660e01b815260040162000e22919062001815565b602060405180830381865afa15801562000e40573d6000803e3d6000fd5b505050506040513d601f19601f8201168201806040525081019062000e66919062001b92565b905092915050565b60006001600083815260200190815260200160002060009054906101000a900473ffffffffffffffffffffffffffffffffffffffff1673ffffffffffffffffffffffffffffffffffffffff166318160ddd6040518163ffffffff1660e01b8152600401602060405180830381865afa15801562000eef573d6000803e3d6000fd5b505050506040513d601f19601f8201168201806040525081019062000f15919062001b92565b9050919050565b600062000f298362000e6e565b62000f3484620008f3565b62000f408585620006d9565b62000f4c919062001bf3565b62000f58919062001c83565b905092915050565b60006002600083815260200190815260200160002060009054906101000a900473ffffffffffffffffffffffffffffffffffffffff1673ffffffffffffffffffffffffffffffffffffffff166318160ddd6040518163ffffffff1660e01b8152600401602060405180830381865afa15801562000fe1573d6000803e3d6000fd5b505050506040513d601f19601f8201168201806040525081019062001007919062001b92565b9050919050565b60006001600083815260200190815260200160002060009054906101000a900473ffffffffffffffffffffffffffffffffffffffff169050919050565b60006002600083815260200190815260200160002060009054906101000a900473ffffffffffffffffffffffffffffffffffffffff169050919050565b60006001600083815260200190815260200160002060009054906101000a900473ffffffffffffffffffffffffffffffffffffffff1673ffffffffffffffffffffffffffffffffffffffff1663fbfa77cf6040518163ffffffff1660e01b8152600401602060405180830381865afa15801562001109573d6000803e3d6000fd5b505050506040513d601f19601f820116820180604052508101906200112f919062001d6a565b73ffffffffffffffffffffffffffffffffffffffff1663e3a9db1a6003600085815260200190815260200160002060009054906101000a900473ffffffffffffffffffffffffffffffffffffffff166040518263ffffffff1660e01b81526004016200119c919062001815565b602060405180830381865afa158015620011ba573d6000803e3d6000fd5b505050506040513d601f19601f82011682018060405250810190620011e0919062001b92565b9050919050565b6002600082815260200190815260200160002060009054906101000a900473ffffffffffffffffffffffffffffffffffffffff1673ffffffffffffffffffffffffffffffffffffffff1663a69df4b56040518163ffffffff1660e01b8152600401600060405180830381600087803b1580156200126357600080fd5b505af115801562001278573d6000803e3d6000fd5b505050507f9cb62521fa942fcb358f09f584fde02bd2da8b2060bd17d861065afac056628e8133604051620012af92919062001cbb565b60405180910390a150565b60006002600083815260200190815260200160002060009054906101000a900473ffffffffffffffffffffffffffffffffffffffff1673ffffffffffffffffffffffffffffffffffffffff1663cf3090126040518163ffffffff1660e01b8152600401602060405180830381865afa1580156200133b573d6000803e3d6000fd5b505050506040513d601f19601f8201168201806040525081019062001361919062002010565b9050919050565b60006001600083815260200190815260200160002060009054906101000a900473ffffffffffffffffffffffffffffffffffffffff1673ffffffffffffffffffffffffffffffffffffffff1663fbfa77cf6040518163ffffffff1660e01b8152600401602060405180830381865afa158015620013e9573d6000803e3d6000fd5b505050506040513d601f19601f820116820180604052508101906200140f919062001d6a565b9050919050565b6000600454905090565b6001600083815260200190815260200160002060009054906101000a900473ffffffffffffffffffffffffffffffffffffffff1673ffffffffffffffffffffffffffffffffffffffff16636190e91d82336040518363ffffffff1660e01b81526004016200149092919062001cbb565b600060405180830381600087803b158015620014ab57600080fd5b505af1158015620014c0573d6000803e3d6000fd5b505050507f54a018029c06d8961fde20f929646a546c0b6a7b46b2192b85fb9f48fe299ae2823383604051620014f99392919062001ce8565b60405180910390a15050565b620015a182826040516024016200151e92919062002042565b6040516020818303038152906040527f319af333000000000000000000000000000000000000000000000000000000007bffffffffffffffffffffffffffffffffffffffffffffffffffffffff19166020820180517bffffffffffffffffffffffffffffffffffffffffffffffffffffffff8381831617835250505050620015a5565b5050565b60008151905060006a636f6e736f6c652e6c6f679050602083016000808483855afa5050505050565b611d8e806200207783390190565b610b6f8062003e0583390190565b611f61806200497483390190565b612a9080620068d583390190565b6000604051905090565b600080fd5b600080fd5b6000819050919050565b6200162f816200161a565b81146200163b57600080fd5b50565b6000813590506200164f8162001624565b92915050565b600073ffffffffffffffffffffffffffffffffffffffff82169050919050565b6000620016828262001655565b9050919050565b620016948162001675565b8114620016a057600080fd5b50565b600081359050620016b48162001689565b92915050565b600080600060608486031215620016d657620016d562001610565b5b6000620016e6868287016200163e565b9350506020620016f986828701620016a3565b92505060406200170c868287016200163e565b9150509250925092565b6000602082840312156200172f576200172e62001610565b5b60006200173f848285016200163e565b91505092915050565b62001753816200161a565b82525050565b600060208201905062001770600083018462001748565b92915050565b6000806040838503121562001790576200178f62001610565b5b6000620017a0858286016200163e565b9250506020620017b385828601620016a3565b9150509250929050565b60008060408385031215620017d757620017d662001610565b5b6000620017e7858286016200163e565b9250506020620017fa858286016200163e565b9150509250929050565b6200180f8162001675565b82525050565b60006020820190506200182c600083018462001804565b92915050565b600080fd5b600080fd5b6000601f19601f8301169050919050565b7f4e487b7100000000000000000000000000000000000000000000000000000000600052604160045260246000fd5b62001887826200183c565b810181811067ffffffffffffffff82111715620018a957620018a86200184d565b5b80604052505050565b6000620018be62001606565b9050620018cc82826200187c565b919050565b600067ffffffffffffffff821115620018ef57620018ee6200184d565b5b620018fa826200183c565b9050602081019050919050565b82818337600083830152505050565b60006200192d6200192784620018d1565b620018b2565b9050828152602081018484840111156200194c576200194b62001837565b5b6200195984828562001907565b509392505050565b600082601f83011262001979576200197862001832565b5b81356200198b84826020860162001916565b91505092915050565b600080600080600060a08688031215620019b357620019b262001610565b5b6000620019c3888289016200163e565b9550506020620019d6888289016200163e565b9450506040620019e988828901620016a3565b935050606086013567ffffffffffffffff81111562001a0d5762001a0c62001615565b5b62001a1b8882890162001961565b925050608086013567ffffffffffffffff81111562001a3f5762001a3e62001615565b5b62001a4d8882890162001961565b9150509295509295909350565b60008115159050919050565b62001a718162001a5a565b82525050565b600060208201905062001a8e600083018462001a66565b92915050565b6000819050919050565b6000819050919050565b600062001ac962001ac362001abd8462001a94565b62001a9e565b6200161a565b9050919050565b62001adb8162001aa8565b82525050565b600060808201905062001af8600083018762001804565b62001b07602083018662001748565b62001b16604083018562001804565b62001b25606083018462001ad0565b95945050505050565b600060808201905062001b45600083018762001748565b62001b54602083018662001804565b62001b63604083018562001804565b62001b72606083018462001748565b95945050505050565b60008151905062001b8c8162001624565b92915050565b60006020828403121562001bab5762001baa62001610565b5b600062001bbb8482850162001b7b565b91505092915050565b7f4e487b7100000000000000000000000000000000000000000000000000000000600052601160045260246000fd5b600062001c00826200161a565b915062001c0d836200161a565b9250817fffffffffffffffffffffffffffffffffffffffffffffffffffffffffffffffff048311821515161562001c495762001c4862001bc4565b5b828202905092915050565b7f4e487b7100000000000000000000000000000000000000000000000000000000600052601260045260246000fd5b600062001c90826200161a565b915062001c9d836200161a565b92508262001cb05762001caf62001c54565b5b828204905092915050565b600060408201905062001cd2600083018562001748565b62001ce1602083018462001804565b9392505050565b600060608201905062001cff600083018662001748565b62001d0e602083018562001804565b62001d1d604083018462001748565b949350505050565b600062001d328262001675565b9050919050565b62001d448162001d25565b811462001d5057600080fd5b50565b60008151905062001d648162001d39565b92915050565b60006020828403121562001d835762001d8262001610565b5b600062001d938482850162001d53565b91505092915050565b600062001da9826200161a565b915062001db6836200161a565b9250827fffffffffffffffffffffffffffffffffffffffffffffffffffffffffffffffff0382111562001dee5762001ded62001bc4565b5b828201905092915050565b600081519050919050565b600082825260208201905092915050565b60005b8381101562001e3557808201518184015260208101905062001e18565b8381111562001e45576000848401525b50505050565b600062001e588262001df9565b62001e64818562001e04565b935062001e7681856020860162001e15565b62001e81816200183c565b840191505092915050565b600060c08201905062001ea3600083018962001748565b62001eb2602083018862001748565b62001ec1604083018762001804565b62001ed0606083018662001804565b818103608083015262001ee4818562001e4b565b905081810360a083015262001efa818462001e4b565b9050979650505050505050565b600060c082019050818103600083015262001f23818962001e4b565b9050818103602083015262001f39818862001e4b565b905062001f4a604083018762001804565b62001f59606083018662001804565b62001f68608083018562001804565b62001f7760a083018462001804565b979650505050505050565b600060a08201905062001f99600083018862001748565b62001fa8602083018762001804565b62001fb7604083018662001804565b62001fc6606083018562001804565b62001fd5608083018462001804565b9695505050505050565b62001fea8162001a5a565b811462001ff657600080fd5b50565b6000815190506200200a8162001fdf565b92915050565b60006020828403121562002029576200202862001610565b5b6000620020398482850162001ff9565b91505092915050565b600060408201905081810360008301526200205e818562001e4b565b90506200206f602083018462001804565b939250505056fe60806040523480156200001157600080fd5b5060008060006101000a81548160ff0219169083151502179055506200004c620000406200011f60201b60201c565b6200012760201b60201c565b6001806000620000616200011f60201b60201c565b73ffffffffffffffffffffffffffffffffffffffff1673ffffffffffffffffffffffffffffffffffffffff16815260200190815260200160002060006101000a81548160ff021916908315150217905550600160026000620000c86200011f60201b60201c565b73ffffffffffffffffffffffffffffffffffffffff1673ffffffffffffffffffffffffffffffffffffffff16815260200190815260200160002060006101000a81548160ff021916908315150217905550620001ec565b600033905090565b60008060019054906101000a900473ffffffffffffffffffffffffffffffffffffffff16905081600060016101000a81548173ffffffffffffffffffffffffffffffffffffffff021916908373ffffffffffffffffffffffffffffffffffffffff1602179055508173ffffffffffffffffffffffffffffffffffffffff168173ffffffffffffffffffffffffffffffffffffffff167f8be0079c531659141344cd1fd0a4f28419497f9722a3daafe3b4186f6b6457e060405160405180910390a35050565b611b9280620001fc6000396000f3fe608060405234801561001057600080fd5b50600436106100f55760003560e01c80638da5cb5b11610097578063e3d670d711610066578063e3d670d714610210578063f2fde38b14610240578063f3ae24151461025c578063f45346dc1461028c576100f5565b80638da5cb5b1461019e578063ac18de43146101bc578063d9caed12146101d8578063dcd18dd4146101f4576100f5565b80633f4ba83a116100d35780633f4ba83a146101625780635c975abb1461016c578063715018a61461018a5780638456cb5914610194576100f5565b80631bbe9d8c146100fa5780631ea48870146101165780632d06177a14610146575b600080fd5b610114600480360381019061010f91906112d6565b6102a8565b005b610130600480360381019061012b91906112d6565b6103c4565b60405161013d919061131e565b60405180910390f35b610160600480360381019061015b91906112d6565b61041a565b005b61016a610535565b005b610174610590565b604051610181919061131e565b60405180910390f35b6101926105a6565b005b61019c61062e565b005b6101a6610689565b6040516101b39190611348565b60405180910390f35b6101d660048036038101906101d191906112d6565b6106b2565b005b6101f260048036038101906101ed9190611399565b6107ce565b005b61020e600480360381019061020991906112d6565b6109a1565b005b61022a600480360381019061022591906112d6565b610abd565b60405161023791906113fb565b60405180910390f35b61025a600480360381019061025591906112d6565b610b40565b005b610276600480360381019061027191906112d6565b610c38565b604051610283919061131e565b60405180910390f35b6102a660048036038101906102a19190611416565b610c8e565b005b33600115156102b682610c38565b1515146102f8576040517f08c379a00000000000000000000000000000000000000000000000000000000081526004016102ef906114c6565b60405180910390fd5b600073ffffffffffffffffffffffffffffffffffffffff168273ffffffffffffffffffffffffffffffffffffffff161415610368576040517f08c379a000000000000000000000000000000000000000000000000000000000815260040161035f90611532565b60405180910390fd5b6001600260008473ffffffffffffffffffffffffffffffffffffffff1673ffffffffffffffffffffffffffffffffffffffff16815260200190815260200160002060006101000a81548160ff0219169083151502179055505050565b6000600260008373ffffffffffffffffffffffffffffffffffffffff1673ffffffffffffffffffffffffffffffffffffffff16815260200190815260200160002060009054906101000a900460ff169050919050565b336001151561042882610c38565b15151461046a576040517f08c379a0000000000000000000000000000000000000000000000000000000008152600401610461906114c6565b60405180910390fd5b600073ffffffffffffffffffffffffffffffffffffffff168273ffffffffffffffffffffffffffffffffffffffff1614156104da576040517f08c379a00000000000000000000000000000000000000000000000000000000081526004016104d19061159e565b60405180910390fd5b60018060008473ffffffffffffffffffffffffffffffffffffffff1673ffffffffffffffffffffffffffffffffffffffff16815260200190815260200160002060006101000a81548160ff0219169083151502179055505050565b336001151561054382610c38565b151514610585576040517f08c379a000000000000000000000000000000000000000000000000000000000815260040161057c906114c6565b60405180910390fd5b61058d610d60565b50565b60008060009054906101000a900460ff16905090565b6105ae610e01565b73ffffffffffffffffffffffffffffffffffffffff166105cc610689565b73ffffffffffffffffffffffffffffffffffffffff1614610622576040517f08c379a00000000000000000000000000000000000000000000000000000000081526004016106199061160a565b60405180910390fd5b61062c6000610e09565b565b336001151561063c82610c38565b15151461067e576040517f08c379a0000000000000000000000000000000000000000000000000000000008152600401610675906114c6565b60405180910390fd5b610686610ece565b50565b60008060019054906101000a900473ffffffffffffffffffffffffffffffffffffffff16905090565b33600115156106c082610c38565b151514610702576040517f08c379a00000000000000000000000000000000000000000000000000000000081526004016106f9906114c6565b60405180910390fd5b600073ffffffffffffffffffffffffffffffffffffffff168273ffffffffffffffffffffffffffffffffffffffff161415610772576040517f08c379a00000000000000000000000000000000000000000000000000000000081526004016107699061159e565b60405180910390fd5b6000600160008473ffffffffffffffffffffffffffffffffffffffff1673ffffffffffffffffffffffffffffffffffffffff16815260200190815260200160002060006101000a81548160ff0219169083151502179055505050565b33600115156107dc82610c38565b15151461081e576040517f08c379a0000000000000000000000000000000000000000000000000000000008152600401610815906114c6565b60405180910390fd5b610826610590565b15610866576040517f08c379a000000000000000000000000000000000000000000000000000000000815260040161085d90611676565b60405180910390fd5b8273ffffffffffffffffffffffffffffffffffffffff166370a08231306040518263ffffffff1660e01b815260040161089f9190611348565b602060405180830381865afa1580156108bc573d6000803e3d6000fd5b505050506040513d601f19601f820116820180604052508101906108e091906116ab565b821115610922576040517f08c379a000000000000000000000000000000000000000000000000000000000815260040161091990611724565b60405180910390fd5b61094d84838573ffffffffffffffffffffffffffffffffffffffff16610f709092919063ffffffff16565b8373ffffffffffffffffffffffffffffffffffffffff167f7084f5476618d8e60b11ef0d7d3f06914655adb8793e28ff7f018d4c76d505d58360405161099391906113fb565b60405180910390a250505050565b33600115156109af82610c38565b1515146109f1576040517f08c379a00000000000000000000000000000000000000000000000000000000081526004016109e8906114c6565b60405180910390fd5b600073ffffffffffffffffffffffffffffffffffffffff168273ffffffffffffffffffffffffffffffffffffffff161415610a61576040517f08c379a0000000000000000000000000000000000000000000000000000000008152600401610a5890611532565b60405180910390fd5b6000600260008473ffffffffffffffffffffffffffffffffffffffff1673ffffffffffffffffffffffffffffffffffffffff16815260200190815260200160002060006101000a81548160ff0219169083151502179055505050565b60008173ffffffffffffffffffffffffffffffffffffffff166370a08231306040518263ffffffff1660e01b8152600401610af89190611348565b602060405180830381865afa158015610b15573d6000803e3d6000fd5b505050506040513d601f19601f82011682018060405250810190610b3991906116ab565b9050919050565b610b48610e01565b73ffffffffffffffffffffffffffffffffffffffff16610b66610689565b73ffffffffffffffffffffffffffffffffffffffff1614610bbc576040517f08c379a0000000000000000000000000000000000000000000000000000000008152600401610bb39061160a565b60405180910390fd5b600073ffffffffffffffffffffffffffffffffffffffff168173ffffffffffffffffffffffffffffffffffffffff161415610c2c576040517f08c379a0000000000000000000000000000000000000000000000000000000008152600401610c23906117b6565b60405180910390fd5b610c3581610e09565b50565b6000600160008373ffffffffffffffffffffffffffffffffffffffff1673ffffffffffffffffffffffffffffffffffffffff16815260200190815260200160002060009054906101000a900460ff169050919050565b8073ffffffffffffffffffffffffffffffffffffffff1663a9059cbb30846040518363ffffffff1660e01b8152600401610cc99291906117d6565b6020604051808303816000875af1158015610ce8573d6000803e3d6000fd5b505050506040513d601f19601f82011682018060405250810190610d0c919061182b565b508273ffffffffffffffffffffffffffffffffffffffff167f2da466a7b24304f47e87fa2e1e5a81b9831ce54fec19055ce277ca2f39ba42c483604051610d5391906113fb565b60405180910390a2505050565b610d68610590565b610da7576040517f08c379a0000000000000000000000000000000000000000000000000000000008152600401610d9e906118a4565b60405180910390fd5b60008060006101000a81548160ff0219169083151502179055507f5db9ee0a495bf2e6ff9c91a7834c1ba4fdd244a5e8aa4e537bd38aeae4b073aa610dea610e01565b604051610df79190611348565b60405180910390a1565b600033905090565b60008060019054906101000a900473ffffffffffffffffffffffffffffffffffffffff16905081600060016101000a81548173ffffffffffffffffffffffffffffffffffffffff021916908373ffffffffffffffffffffffffffffffffffffffff1602179055508173ffffffffffffffffffffffffffffffffffffffff168173ffffffffffffffffffffffffffffffffffffffff167f8be0079c531659141344cd1fd0a4f28419497f9722a3daafe3b4186f6b6457e060405160405180910390a35050565b610ed6610590565b15610f16576040517f08c379a0000000000000000000000000000000000000000000000000000000008152600401610f0d90611676565b60405180910390fd5b60016000806101000a81548160ff0219169083151502179055507f62e78cea01bee320cd4e420270b5ea74000d11b0c9f74754ebdbfc544b05a258610f59610e01565b604051610f669190611348565b60405180910390a1565b610ff18363a9059cbb60e01b8484604051602401610f8f9291906117d6565b604051602081830303815290604052907bffffffffffffffffffffffffffffffffffffffffffffffffffffffff19166020820180517bffffffffffffffffffffffffffffffffffffffffffffffffffffffff8381831617835250505050610ff6565b505050565b6000611058826040518060400160405280602081526020017f5361666545524332303a206c6f772d6c6576656c2063616c6c206661696c65648152508573ffffffffffffffffffffffffffffffffffffffff166110bd9092919063ffffffff16565b90506000815111156110b85780806020019051810190611078919061182b565b6110b7576040517f08c379a00000000000000000000000000000000000000000000000000000000081526004016110ae90611936565b60405180910390fd5b5b505050565b60606110cc84846000856110d5565b90509392505050565b60608247101561111a576040517f08c379a0000000000000000000000000000000000000000000000000000000008152600401611111906119c8565b60405180910390fd5b611123856111e9565b611162576040517f08c379a000000000000000000000000000000000000000000000000000000000815260040161115990611a34565b60405180910390fd5b6000808673ffffffffffffffffffffffffffffffffffffffff16858760405161118b9190611ace565b60006040518083038185875af1925050503d80600081146111c8576040519150601f19603f3d011682016040523d82523d6000602084013e6111cd565b606091505b50915091506111dd82828661120c565b92505050949350505050565b6000808273ffffffffffffffffffffffffffffffffffffffff163b119050919050565b6060831561121c5782905061126c565b60008351111561122f5782518084602001fd5b816040517f08c379a00000000000000000000000000000000000000000000000000000000081526004016112639190611b3a565b60405180910390fd5b9392505050565b600080fd5b600073ffffffffffffffffffffffffffffffffffffffff82169050919050565b60006112a382611278565b9050919050565b6112b381611298565b81146112be57600080fd5b50565b6000813590506112d0816112aa565b92915050565b6000602082840312156112ec576112eb611273565b5b60006112fa848285016112c1565b91505092915050565b60008115159050919050565b61131881611303565b82525050565b6000602082019050611333600083018461130f565b92915050565b61134281611298565b82525050565b600060208201905061135d6000830184611339565b92915050565b6000819050919050565b61137681611363565b811461138157600080fd5b50565b6000813590506113938161136d565b92915050565b6000806000606084860312156113b2576113b1611273565b5b60006113c0868287016112c1565b93505060206113d1868287016112c1565b92505060406113e286828701611384565b9150509250925092565b6113f581611363565b82525050565b600060208201905061141060008301846113ec565b92915050565b60008060006060848603121561142f5761142e611273565b5b600061143d868287016112c1565b935050602061144e86828701611384565b925050604061145f868287016112c1565b9150509250925092565b600082825260208201905092915050565b7f4e6f742061206d616e6167657200000000000000000000000000000000000000600082015250565b60006114b0600d83611469565b91506114bb8261147a565b602082019050919050565b600060208201905081810360008301526114df816114a3565b9050919050565b7f496e76616c69642066756e646572206164647265737300000000000000000000600082015250565b600061151c601683611469565b9150611527826114e6565b602082019050919050565b6000602082019050818103600083015261154b8161150f565b9050919050565b7f496e76616c6964206d616e616765722061646472657373000000000000000000600082015250565b6000611588601783611469565b915061159382611552565b602082019050919050565b600060208201905081810360008301526115b78161157b565b9050919050565b7f4f776e61626c653a2063616c6c6572206973206e6f7420746865206f776e6572600082015250565b60006115f4602083611469565b91506115ff826115be565b602082019050919050565b60006020820190508181036000830152611623816115e7565b9050919050565b7f5061757361626c653a2070617573656400000000000000000000000000000000600082015250565b6000611660601083611469565b915061166b8261162a565b602082019050919050565b6000602082019050818103600083015261168f81611653565b9050919050565b6000815190506116a58161136d565b92915050565b6000602082840312156116c1576116c0611273565b5b60006116cf84828501611696565b91505092915050565b7f4e6f20776974686472617761626c652062616c616e6365000000000000000000600082015250565b600061170e601783611469565b9150611719826116d8565b602082019050919050565b6000602082019050818103600083015261173d81611701565b9050919050565b7f4f776e61626c653a206e6577206f776e657220697320746865207a65726f206160008201527f6464726573730000000000000000000000000000000000000000000000000000602082015250565b60006117a0602683611469565b91506117ab82611744565b604082019050919050565b600060208201905081810360008301526117cf81611793565b9050919050565b60006040820190506117eb6000830185611339565b6117f860208301846113ec565b9392505050565b61180881611303565b811461181357600080fd5b50565b600081519050611825816117ff565b92915050565b60006020828403121561184157611840611273565b5b600061184f84828501611816565b91505092915050565b7f5061757361626c653a206e6f7420706175736564000000000000000000000000600082015250565b600061188e601483611469565b915061189982611858565b602082019050919050565b600060208201905081810360008301526118bd81611881565b9050919050565b7f5361666545524332303a204552433230206f7065726174696f6e20646964206e60008201527f6f74207375636365656400000000000000000000000000000000000000000000602082015250565b6000611920602a83611469565b915061192b826118c4565b604082019050919050565b6000602082019050818103600083015261194f81611913565b9050919050565b7f416464726573733a20696e73756666696369656e742062616c616e636520666f60008201527f722063616c6c0000000000000000000000000000000000000000000000000000602082015250565b60006119b2602683611469565b91506119bd82611956565b604082019050919050565b600060208201905081810360008301526119e1816119a5565b9050919050565b7f416464726573733a2063616c6c20746f206e6f6e2d636f6e7472616374000000600082015250565b6000611a1e601d83611469565b9150611a29826119e8565b602082019050919050565b60006020820190508181036000830152611a4d81611a11565b9050919050565b600081519050919050565b600081905092915050565b60005b83811015611a88578082015181840152602081019050611a6d565b83811115611a97576000848401525b50505050565b6000611aa882611a54565b611ab28185611a5f565b9350611ac2818560208601611a6a565b80840191505092915050565b6000611ada8284611a9d565b915081905092915050565b600081519050919050565b6000601f19601f8301169050919050565b6000611b0c82611ae5565b611b168185611469565b9350611b26818560208601611a6a565b611b2f81611af0565b840191505092915050565b60006020820190508181036000830152611b548184611b01565b90509291505056fea26469706673582212206d5698233c859bf09dd3b350d2cac5220a3a85ab86cc8139f76285bafcbd3d0a64736f6c634300080a0033608060405234801561001057600080fd5b5061002d61002261003260201b60201c565b61003a60201b60201c565b6100fe565b600033905090565b60008060009054906101000a900473ffffffffffffffffffffffffffffffffffffffff169050816000806101000a81548173ffffffffffffffffffffffffffffffffffffffff021916908373ffffffffffffffffffffffffffffffffffffffff1602179055508173ffffffffffffffffffffffffffffffffffffffff168173ffffffffffffffffffffffffffffffffffffffff167f8be0079c531659141344cd1fd0a4f28419497f9722a3daafe3b4186f6b6457e060405160405180910390a35050565b610a628061010d6000396000f3fe608060405234801561001057600080fd5b50600436106100625760003560e01c80632e2d298414610067578063715018a6146100835780638da5cb5b1461008d578063b460af94146100ab578063e3a9db1a146100c7578063f2fde38b146100f7575b600080fd5b610081600480360381019061007c9190610742565b610113565b005b61008b610263565b005b6100956102eb565b6040516100a291906107a4565b60405180910390f35b6100c560048036038101906100c09190610742565b610314565b005b6100e160048036038101906100dc91906107bf565b610462565b6040516100ee91906107fb565b60405180910390f35b610111600480360381019061010c91906107bf565b6104e5565b005b61011b6105dd565b73ffffffffffffffffffffffffffffffffffffffff166101396102eb565b73ffffffffffffffffffffffffffffffffffffffff161461018f576040517f08c379a000000000000000000000000000000000000000000000000000000000815260040161018690610873565b60405180910390fd5b8173ffffffffffffffffffffffffffffffffffffffff166323b872dd8230866040518463ffffffff1660e01b81526004016101cc93929190610893565b6020604051808303816000875af11580156101eb573d6000803e3d6000fd5b505050506040513d601f19601f8201168201806040525081019061020f9190610902565b508173ffffffffffffffffffffffffffffffffffffffff167f2da466a7b24304f47e87fa2e1e5a81b9831ce54fec19055ce277ca2f39ba42c48460405161025691906107fb565b60405180910390a2505050565b61026b6105dd565b73ffffffffffffffffffffffffffffffffffffffff166102896102eb565b73ffffffffffffffffffffffffffffffffffffffff16146102df576040517f08c379a00000000000000000000000000000000000000000000000000000000081526004016102d690610873565b60405180910390fd5b6102e960006105e5565b565b60008060009054906101000a900473ffffffffffffffffffffffffffffffffffffffff16905090565b61031c6105dd565b73ffffffffffffffffffffffffffffffffffffffff1661033a6102eb565b73ffffffffffffffffffffffffffffffffffffffff1614610390576040517f08c379a000000000000000000000000000000000000000000000000000000000815260040161038790610873565b60405180910390fd5b8173ffffffffffffffffffffffffffffffffffffffff1663a9059cbb82856040518363ffffffff1660e01b81526004016103cb92919061092f565b6020604051808303816000875af11580156103ea573d6000803e3d6000fd5b505050506040513d601f19601f8201168201806040525081019061040e9190610902565b508173ffffffffffffffffffffffffffffffffffffffff167f7084f5476618d8e60b11ef0d7d3f06914655adb8793e28ff7f018d4c76d505d58460405161045591906107fb565b60405180910390a2505050565b60008173ffffffffffffffffffffffffffffffffffffffff166370a08231306040518263ffffffff1660e01b815260040161049d91906107a4565b602060405180830381865afa1580156104ba573d6000803e3d6000fd5b505050506040513d601f19601f820116820180604052508101906104de919061096d565b9050919050565b6104ed6105dd565b73ffffffffffffffffffffffffffffffffffffffff1661050b6102eb565b73ffffffffffffffffffffffffffffffffffffffff1614610561576040517f08c379a000000000000000000000000000000000000000000000000000000000815260040161055890610873565b60405180910390fd5b600073ffffffffffffffffffffffffffffffffffffffff168173ffffffffffffffffffffffffffffffffffffffff1614156105d1576040517f08c379a00000000000000000000000000000000000000000000000000000000081526004016105c890610a0c565b60405180910390fd5b6105da816105e5565b50565b600033905090565b60008060009054906101000a900473ffffffffffffffffffffffffffffffffffffffff169050816000806101000a81548173ffffffffffffffffffffffffffffffffffffffff021916908373ffffffffffffffffffffffffffffffffffffffff1602179055508173ffffffffffffffffffffffffffffffffffffffff168173ffffffffffffffffffffffffffffffffffffffff167f8be0079c531659141344cd1fd0a4f28419497f9722a3daafe3b4186f6b6457e060405160405180910390a35050565b600080fd5b6000819050919050565b6106c1816106ae565b81146106cc57600080fd5b50565b6000813590506106de816106b8565b92915050565b600073ffffffffffffffffffffffffffffffffffffffff82169050919050565b600061070f826106e4565b9050919050565b61071f81610704565b811461072a57600080fd5b50565b60008135905061073c81610716565b92915050565b60008060006060848603121561075b5761075a6106a9565b5b6000610769868287016106cf565b935050602061077a8682870161072d565b925050604061078b8682870161072d565b9150509250925092565b61079e81610704565b82525050565b60006020820190506107b96000830184610795565b92915050565b6000602082840312156107d5576107d46106a9565b5b60006107e38482850161072d565b91505092915050565b6107f5816106ae565b82525050565b600060208201905061081060008301846107ec565b92915050565b600082825260208201905092915050565b7f4f776e61626c653a2063616c6c6572206973206e6f7420746865206f776e6572600082015250565b600061085d602083610816565b915061086882610827565b602082019050919050565b6000602082019050818103600083015261088c81610850565b9050919050565b60006060820190506108a86000830186610795565b6108b56020830185610795565b6108c260408301846107ec565b949350505050565b60008115159050919050565b6108df816108ca565b81146108ea57600080fd5b50565b6000815190506108fc816108d6565b92915050565b600060208284031215610918576109176106a9565b5b6000610926848285016108ed565b91505092915050565b60006040820190506109446000830185610795565b61095160208301846107ec565b9392505050565b600081519050610967816106b8565b92915050565b600060208284031215610983576109826106a9565b5b600061099184828501610958565b91505092915050565b7f4f776e61626c653a206e6577206f776e657220697320746865207a65726f206160008201527f6464726573730000000000000000000000000000000000000000000000000000602082015250565b60006109f6602683610816565b9150610a018261099a565b604082019050919050565b60006020820190508181036000830152610a25816109e9565b905091905056fea26469706673582212203a0252156d63f528363e310294b37f08a62aff1b3d22a576dee78aaee8ee6c1b64736f6c634300080a003360806040526000600560006101000a81548160ff0219169083151502179055503480156200002c57600080fd5b5060405162001f6138038062001f61833981810160405281019062000052919062000613565b818181600390805190602001906200006c92919062000326565b5080600490805190602001906200008592919062000326565b505050600085101580156200009957508585105b620000db576040517f08c379a0000000000000000000000000000000000000000000000000000000008152600401620000d2906200079a565b60405180910390fd5b620000fa838688620000ee9190620007eb565b6200013360201b60201c565b6200010c84866200013360201b60201c565b6001600560006101000a81548160ff021916908315150217905550505050505050620009fa565b600073ffffffffffffffffffffffffffffffffffffffff168273ffffffffffffffffffffffffffffffffffffffff161415620001a6576040517f08c379a00000000000000000000000000000000000000000000000000000000081526004016200019d9062000876565b60405180910390fd5b620001ba60008383620002ac60201b60201c565b8060026000828254620001ce919062000898565b92505081905550806000808473ffffffffffffffffffffffffffffffffffffffff1673ffffffffffffffffffffffffffffffffffffffff168152602001908152602001600020600082825462000225919062000898565b925050819055508173ffffffffffffffffffffffffffffffffffffffff16600073ffffffffffffffffffffffffffffffffffffffff167fddf252ad1be2c89b69c2b068fc378daa952ba7f163c4a11628f55a4df523b3ef836040516200028c919062000906565b60405180910390a3620002a8600083836200031c60201b60201c565b5050565b620002c48383836200032160201b620007561760201c565b600560009054906101000a900460ff161562000317576040517f08c379a00000000000000000000000000000000000000000000000000000000081526004016200030e9062000973565b60405180910390fd5b505050565b505050565b505050565b8280546200033490620009c4565b90600052602060002090601f016020900481019282620003585760008555620003a4565b82601f106200037357805160ff1916838001178555620003a4565b82800160010185558215620003a4579182015b82811115620003a357825182559160200191906001019062000386565b5b509050620003b39190620003b7565b5090565b5b80821115620003d2576000816000905550600101620003b8565b5090565b6000604051905090565b600080fd5b600080fd5b6000819050919050565b620003ff81620003ea565b81146200040b57600080fd5b50565b6000815190506200041f81620003f4565b92915050565b600073ffffffffffffffffffffffffffffffffffffffff82169050919050565b6000620004528262000425565b9050919050565b620004648162000445565b81146200047057600080fd5b50565b600081519050620004848162000459565b92915050565b600080fd5b600080fd5b6000601f19601f8301169050919050565b7f4e487b7100000000000000000000000000000000000000000000000000000000600052604160045260246000fd5b620004df8262000494565b810181811067ffffffffffffffff82111715620005015762000500620004a5565b5b80604052505050565b600062000516620003d6565b9050620005248282620004d4565b919050565b600067ffffffffffffffff821115620005475762000546620004a5565b5b620005528262000494565b9050602081019050919050565b60005b838110156200057f57808201518184015260208101905062000562565b838111156200058f576000848401525b50505050565b6000620005ac620005a68462000529565b6200050a565b905082815260208101848484011115620005cb57620005ca6200048f565b5b620005d88482856200055f565b509392505050565b600082601f830112620005f857620005f76200048a565b5b81516200060a84826020860162000595565b91505092915050565b60008060008060008060c08789031215620006335762000632620003e0565b5b60006200064389828a016200040e565b96505060206200065689828a016200040e565b95505060406200066989828a0162000473565b94505060606200067c89828a0162000473565b935050608087015167ffffffffffffffff811115620006a0576200069f620003e5565b5b620006ae89828a01620005e0565b92505060a087015167ffffffffffffffff811115620006d257620006d1620003e5565b5b620006e089828a01620005e0565b9150509295509295509295565b600082825260208201905092915050565b7f636f6e7472696275746f72416c6c6f636174696f6e206d75737420626520677260008201527f6561746572207468616e206f7220657175616c20746f203020616e64206c657360208201527f73207468616e20696e697469616c537570706c79000000000000000000000000604082015250565b600062000782605483620006ed565b91506200078f82620006fe565b606082019050919050565b60006020820190508181036000830152620007b58162000773565b9050919050565b7f4e487b7100000000000000000000000000000000000000000000000000000000600052601160045260246000fd5b6000620007f882620003ea565b91506200080583620003ea565b9250828210156200081b576200081a620007bc565b5b828203905092915050565b7f45524332303a206d696e7420746f20746865207a65726f206164647265737300600082015250565b60006200085e601f83620006ed565b91506200086b8262000826565b602082019050919050565b6000602082019050818103600083015262000891816200084f565b9050919050565b6000620008a582620003ea565b9150620008b283620003ea565b9250827fffffffffffffffffffffffffffffffffffffffffffffffffffffffffffffffff03821115620008ea57620008e9620007bc565b5b828201905092915050565b6200090081620003ea565b82525050565b60006020820190506200091d6000830184620008f5565b92915050565b7f44414f20746f6b656e206973206c6f636b656400000000000000000000000000600082015250565b60006200095b601383620006ed565b9150620009688262000923565b602082019050919050565b600060208201905081810360008301526200098e816200094c565b9050919050565b7f4e487b7100000000000000000000000000000000000000000000000000000000600052602260045260246000fd5b60006002820490506001821680620009dd57607f821691505b60208210811415620009f457620009f362000995565b5b50919050565b6115578062000a0a6000396000f3fe608060405234801561001057600080fd5b50600436106100cf5760003560e01c806370a082311161008c578063a69df4b511610066578063a69df4b51461023c578063a9059cbb14610246578063cf30901214610276578063dd62ed3e14610294576100cf565b806370a08231146101be57806395d89b41146101ee578063a457c2d71461020c576100cf565b806306fdde03146100d4578063095ea7b3146100f257806318160ddd1461012257806323b872dd14610140578063313ce56714610170578063395093511461018e575b600080fd5b6100dc6102c4565b6040516100e99190610d39565b60405180910390f35b61010c60048036038101906101079190610df4565b610356565b6040516101199190610e4f565b60405180910390f35b61012a610379565b6040516101379190610e79565b60405180910390f35b61015a60048036038101906101559190610e94565b610383565b6040516101679190610e4f565b60405180910390f35b6101786103b2565b6040516101859190610f03565b60405180910390f35b6101a860048036038101906101a39190610df4565b6103bb565b6040516101b59190610e4f565b60405180910390f35b6101d860048036038101906101d39190610f1e565b610465565b6040516101e59190610e79565b60405180910390f35b6101f66104ad565b6040516102039190610d39565b60405180910390f35b61022660048036038101906102219190610df4565b61053f565b6040516102339190610e4f565b60405180910390f35b610244610629565b005b610260600480360381019061025b9190610df4565b610695565b60405161026d9190610e4f565b60405180910390f35b61027e6106b8565b60405161028b9190610e4f565b60405180910390f35b6102ae60048036038101906102a99190610f4b565b6106cf565b6040516102bb9190610e79565b60405180910390f35b6060600380546102d390610fba565b80601f01602080910402602001604051908101604052809291908181526020018280546102ff90610fba565b801561034c5780601f106103215761010080835404028352916020019161034c565b820191906000526020600020905b81548152906001019060200180831161032f57829003601f168201915b5050505050905090565b60008061036161075b565b905061036e818585610763565b600191505092915050565b6000600254905090565b60008061038e61075b565b905061039b85828561092e565b6103a68585856109ba565b60019150509392505050565b60006012905090565b6000806103c661075b565b905061045a818585600160008673ffffffffffffffffffffffffffffffffffffffff1673ffffffffffffffffffffffffffffffffffffffff16815260200190815260200160002060008973ffffffffffffffffffffffffffffffffffffffff1673ffffffffffffffffffffffffffffffffffffffff16815260200190815260200160002054610455919061101b565b610763565b600191505092915050565b60008060008373ffffffffffffffffffffffffffffffffffffffff1673ffffffffffffffffffffffffffffffffffffffff168152602001908152602001600020549050919050565b6060600480546104bc90610fba565b80601f01602080910402602001604051908101604052809291908181526020018280546104e890610fba565b80156105355780601f1061050a57610100808354040283529160200191610535565b820191906000526020600020905b81548152906001019060200180831161051857829003601f168201915b5050505050905090565b60008061054a61075b565b90506000600160008373ffffffffffffffffffffffffffffffffffffffff1673ffffffffffffffffffffffffffffffffffffffff16815260200190815260200160002060008673ffffffffffffffffffffffffffffffffffffffff1673ffffffffffffffffffffffffffffffffffffffff16815260200190815260200160002054905083811015610610576040517f08c379a0000000000000000000000000000000000000000000000000000000008152600401610607906110e3565b60405180910390fd5b61061d8286868403610763565b60019250505092915050565b600560009054906101000a900460ff16610678576040517f08c379a000000000000000000000000000000000000000000000000000000000815260040161066f9061114f565b60405180910390fd5b6000600560006101000a81548160ff021916908315150217905550565b6000806106a061075b565b90506106ad8185856109ba565b600191505092915050565b6000600560009054906101000a900460ff16905090565b6000600160008473ffffffffffffffffffffffffffffffffffffffff1673ffffffffffffffffffffffffffffffffffffffff16815260200190815260200160002060008373ffffffffffffffffffffffffffffffffffffffff1673ffffffffffffffffffffffffffffffffffffffff16815260200190815260200160002054905092915050565b505050565b600033905090565b600073ffffffffffffffffffffffffffffffffffffffff168373ffffffffffffffffffffffffffffffffffffffff1614156107d3576040517f08c379a00000000000000000000000000000000000000000000000000000000081526004016107ca906111e1565b60405180910390fd5b600073ffffffffffffffffffffffffffffffffffffffff168273ffffffffffffffffffffffffffffffffffffffff161415610843576040517f08c379a000000000000000000000000000000000000000000000000000000000815260040161083a90611273565b60405180910390fd5b80600160008573ffffffffffffffffffffffffffffffffffffffff1673ffffffffffffffffffffffffffffffffffffffff16815260200190815260200160002060008473ffffffffffffffffffffffffffffffffffffffff1673ffffffffffffffffffffffffffffffffffffffff168152602001908152602001600020819055508173ffffffffffffffffffffffffffffffffffffffff168373ffffffffffffffffffffffffffffffffffffffff167f8c5be1e5ebec7d5bd14f71427d1e84f3dd0314c0f7b2291e5b200ac8c7c3b925836040516109219190610e79565b60405180910390a3505050565b600061093a84846106cf565b90507fffffffffffffffffffffffffffffffffffffffffffffffffffffffffffffffff81146109b457818110156109a6576040517f08c379a000000000000000000000000000000000000000000000000000000000815260040161099d906112df565b60405180910390fd5b6109b38484848403610763565b5b50505050565b600073ffffffffffffffffffffffffffffffffffffffff168373ffffffffffffffffffffffffffffffffffffffff161415610a2a576040517f08c379a0000000000000000000000000000000000000000000000000000000008152600401610a2190611371565b60405180910390fd5b600073ffffffffffffffffffffffffffffffffffffffff168273ffffffffffffffffffffffffffffffffffffffff161415610a9a576040517f08c379a0000000000000000000000000000000000000000000000000000000008152600401610a9190611403565b60405180910390fd5b610aa5838383610c3b565b60008060008573ffffffffffffffffffffffffffffffffffffffff1673ffffffffffffffffffffffffffffffffffffffff16815260200190815260200160002054905081811015610b2b576040517f08c379a0000000000000000000000000000000000000000000000000000000008152600401610b2290611495565b60405180910390fd5b8181036000808673ffffffffffffffffffffffffffffffffffffffff1673ffffffffffffffffffffffffffffffffffffffff16815260200190815260200160002081905550816000808573ffffffffffffffffffffffffffffffffffffffff1673ffffffffffffffffffffffffffffffffffffffff1681526020019081526020016000206000828254610bbe919061101b565b925050819055508273ffffffffffffffffffffffffffffffffffffffff168473ffffffffffffffffffffffffffffffffffffffff167fddf252ad1be2c89b69c2b068fc378daa952ba7f163c4a11628f55a4df523b3ef84604051610c229190610e79565b60405180910390a3610c35848484610c9b565b50505050565b610c46838383610756565b600560009054906101000a900460ff1615610c96576040517f08c379a0000000000000000000000000000000000000000000000000000000008152600401610c8d90611501565b60405180910390fd5b505050565b505050565b600081519050919050565b600082825260208201905092915050565b60005b83811015610cda578082015181840152602081019050610cbf565b83811115610ce9576000848401525b50505050565b6000601f19601f8301169050919050565b6000610d0b82610ca0565b610d158185610cab565b9350610d25818560208601610cbc565b610d2e81610cef565b840191505092915050565b60006020820190508181036000830152610d538184610d00565b905092915050565b600080fd5b600073ffffffffffffffffffffffffffffffffffffffff82169050919050565b6000610d8b82610d60565b9050919050565b610d9b81610d80565b8114610da657600080fd5b50565b600081359050610db881610d92565b92915050565b6000819050919050565b610dd181610dbe565b8114610ddc57600080fd5b50565b600081359050610dee81610dc8565b92915050565b60008060408385031215610e0b57610e0a610d5b565b5b6000610e1985828601610da9565b9250506020610e2a85828601610ddf565b9150509250929050565b60008115159050919050565b610e4981610e34565b82525050565b6000602082019050610e646000830184610e40565b92915050565b610e7381610dbe565b82525050565b6000602082019050610e8e6000830184610e6a565b92915050565b600080600060608486031215610ead57610eac610d5b565b5b6000610ebb86828701610da9565b9350506020610ecc86828701610da9565b9250506040610edd86828701610ddf565b9150509250925092565b600060ff82169050919050565b610efd81610ee7565b82525050565b6000602082019050610f186000830184610ef4565b92915050565b600060208284031215610f3457610f33610d5b565b5b6000610f4284828501610da9565b91505092915050565b60008060408385031215610f6257610f61610d5b565b5b6000610f7085828601610da9565b9250506020610f8185828601610da9565b9150509250929050565b7f4e487b7100000000000000000000000000000000000000000000000000000000600052602260045260246000fd5b60006002820490506001821680610fd257607f821691505b60208210811415610fe657610fe5610f8b565b5b50919050565b7f4e487b7100000000000000000000000000000000000000000000000000000000600052601160045260246000fd5b600061102682610dbe565b915061103183610dbe565b9250827fffffffffffffffffffffffffffffffffffffffffffffffffffffffffffffffff0382111561106657611065610fec565b5b828201905092915050565b7f45524332303a2064656372656173656420616c6c6f77616e63652062656c6f7760008201527f207a65726f000000000000000000000000000000000000000000000000000000602082015250565b60006110cd602583610cab565b91506110d882611071565b604082019050919050565b600060208201905081810360008301526110fc816110c0565b9050919050565b7f44414f20746f6b656e206973206e6f74206c6f636b6564000000000000000000600082015250565b6000611139601783610cab565b915061114482611103565b602082019050919050565b600060208201905081810360008301526111688161112c565b9050919050565b7f45524332303a20617070726f76652066726f6d20746865207a65726f2061646460008201527f7265737300000000000000000000000000000000000000000000000000000000602082015250565b60006111cb602483610cab565b91506111d68261116f565b604082019050919050565b600060208201905081810360008301526111fa816111be565b9050919050565b7f45524332303a20617070726f766520746f20746865207a65726f20616464726560008201527f7373000000000000000000000000000000000000000000000000000000000000602082015250565b600061125d602283610cab565b915061126882611201565b604082019050919050565b6000602082019050818103600083015261128c81611250565b9050919050565b7f45524332303a20696e73756666696369656e7420616c6c6f77616e6365000000600082015250565b60006112c9601d83610cab565b91506112d482611293565b602082019050919050565b600060208201905081810360008301526112f8816112bc565b9050919050565b7f45524332303a207472616e736665722066726f6d20746865207a65726f20616460008201527f6472657373000000000000000000000000000000000000000000000000000000602082015250565b600061135b602583610cab565b9150611366826112ff565b604082019050919050565b6000602082019050818103600083015261138a8161134e565b9050919050565b7f45524332303a207472616e7366657220746f20746865207a65726f206164647260008201527f6573730000000000000000000000000000000000000000000000000000000000602082015250565b60006113ed602383610cab565b91506113f882611391565b604082019050919050565b6000602082019050818103600083015261141c816113e0565b9050919050565b7f45524332303a207472616e7366657220616d6f756e742065786365656473206260008201527f616c616e63650000000000000000000000000000000000000000000000000000602082015250565b600061147f602683610cab565b915061148a82611423565b604082019050919050565b600060208201905081810360008301526114ae81611472565b9050919050565b7f44414f20746f6b656e206973206c6f636b656400000000000000000000000000600082015250565b60006114eb601383610cab565b91506114f6826114b5565b602082019050919050565b6000602082019050818103600083015261151a816114de565b905091905056fea264697066735822122039c3c1c5ffde6cd3f312dd86ebfe88af78d591b0cfc9a5ea7569f9baf993b1bc64736f6c634300080a003360806040523480156200001157600080fd5b5060405162002a9038038062002a9083398181016040528101906200003791906200042f565b85858160039080519060200190620000519291906200017d565b5080600490805190602001906200006a9291906200017d565b50505081600560006101000a81548173ffffffffffffffffffffffffffffffffffffffff021916908373ffffffffffffffffffffffffffffffffffffffff16021790555083600660006101000a81548173ffffffffffffffffffffffffffffffffffffffff021916908373ffffffffffffffffffffffffffffffffffffffff16021790555082600760006101000a81548173ffffffffffffffffffffffffffffffffffffffff021916908373ffffffffffffffffffffffffffffffffffffffff16021790555080600860006101000a81548173ffffffffffffffffffffffffffffffffffffffff021916908373ffffffffffffffffffffffffffffffffffffffff1602179055505050505050506200056e565b8280546200018b9062000538565b90600052602060002090601f016020900481019282620001af5760008555620001fb565b82601f10620001ca57805160ff1916838001178555620001fb565b82800160010185558215620001fb579182015b82811115620001fa578251825591602001919060010190620001dd565b5b5090506200020a91906200020e565b5090565b5b80821115620002295760008160009055506001016200020f565b5090565b6000604051905090565b600080fd5b600080fd5b600080fd5b600080fd5b6000601f19601f8301169050919050565b7f4e487b7100000000000000000000000000000000000000000000000000000000600052604160045260246000fd5b62000296826200024b565b810181811067ffffffffffffffff82111715620002b857620002b76200025c565b5b80604052505050565b6000620002cd6200022d565b9050620002db82826200028b565b919050565b600067ffffffffffffffff821115620002fe57620002fd6200025c565b5b62000309826200024b565b9050602081019050919050565b60005b838110156200033657808201518184015260208101905062000319565b8381111562000346576000848401525b50505050565b6000620003636200035d84620002e0565b620002c1565b90508281526020810184848401111562000382576200038162000246565b5b6200038f84828562000316565b509392505050565b600082601f830112620003af57620003ae62000241565b5b8151620003c18482602086016200034c565b91505092915050565b600073ffffffffffffffffffffffffffffffffffffffff82169050919050565b6000620003f782620003ca565b9050919050565b6200040981620003ea565b81146200041557600080fd5b50565b6000815190506200042981620003fe565b92915050565b60008060008060008060c087890312156200044f576200044e62000237565b5b600087015167ffffffffffffffff81111562000470576200046f6200023c565b5b6200047e89828a0162000397565b965050602087015167ffffffffffffffff811115620004a257620004a16200023c565b5b620004b089828a0162000397565b9550506040620004c389828a0162000418565b9450506060620004d689828a0162000418565b9350506080620004e989828a0162000418565b92505060a0620004fc89828a0162000418565b9150509295509295509295565b7f4e487b7100000000000000000000000000000000000000000000000000000000600052602260045260246000fd5b600060028204905060018216806200055157607f821691505b6020821081141562000568576200056762000509565b5b50919050565b612512806200057e6000396000f3fe608060405234801561001057600080fd5b50600436106100f55760003560e01c80636190e91d11610097578063a457c2d711610066578063a457c2d714610286578063a9059cbb146102b6578063dd62ed3e146102e6578063fbfa77cf14610316576100f5565b80636190e91d1461020057806370a082311461021c5780637d78a4671461024c57806395d89b4114610268576100f5565b806323b872dd116100d357806323b872dd14610166578063313ce5671461019657806339509351146101b45780633c173a4f146101e4576100f5565b806306fdde03146100fa578063095ea7b31461011857806318160ddd14610148575b600080fd5b610102610334565b60405161010f9190611849565b60405180910390f35b610132600480360381019061012d9190611904565b6103c6565b60405161013f919061195f565b60405180910390f35b6101506103e9565b60405161015d9190611989565b60405180910390f35b610180600480360381019061017b91906119a4565b6103f3565b60405161018d919061195f565b60405180910390f35b61019e610422565b6040516101ab9190611a13565b60405180910390f35b6101ce60048036038101906101c99190611904565b61042b565b6040516101db919061195f565b60405180910390f35b6101fe60048036038101906101f99190611a2e565b6104d5565b005b61021a60048036038101906102159190611a95565b610640565b005b61023660048036038101906102319190611ad5565b610762565b6040516102439190611989565b60405180910390f35b61026660048036038101906102619190611a95565b6107aa565b005b610270610aa3565b60405161027d9190611849565b60405180910390f35b6102a0600480360381019061029b9190611904565b610b35565b6040516102ad919061195f565b60405180910390f35b6102d060048036038101906102cb9190611904565b610c1f565b6040516102dd919061195f565b60405180910390f35b61030060048036038101906102fb9190611b02565b610c42565b60405161030d9190611989565b60405180910390f35b61031e610cc9565b60405161032b9190611ba1565b60405180910390f35b60606003805461034390611beb565b80601f016020809104026020016040519081016040528092919081815260200182805461036f90611beb565b80156103bc5780601f10610391576101008083540402835291602001916103bc565b820191906000526020600020905b81548152906001019060200180831161039f57829003601f168201915b5050505050905090565b6000806103d1610cf3565b90506103de818585610cfb565b600191505092915050565b6000600254905090565b6000806103fe610cf3565b905061040b858285610ec6565b610416858585610f52565b60019150509392505050565b60006012905090565b600080610436610cf3565b90506104ca818585600160008673ffffffffffffffffffffffffffffffffffffffff1673ffffffffffffffffffffffffffffffffffffffff16815260200190815260200160002060008973ffffffffffffffffffffffffffffffffffffffff1673ffffffffffffffffffffffffffffffffffffffff168152602001908152602001600020546104c59190611c4c565b610cfb565b600191505092915050565b61053560405180606001604052806028815260200161249360289139846040518060400160405280600281526020017f6279000000000000000000000000000000000000000000000000000000000000815250610530610cf3565b6111d3565b60008114156105f257600860009054906101000a900473ffffffffffffffffffffffffffffffffffffffff1673ffffffffffffffffffffffffffffffffffffffff16632e2d298484600660009054906101000a900473ffffffffffffffffffffffffffffffffffffffff16856040518463ffffffff1660e01b81526004016105bf93929190611cb1565b600060405180830381600087803b1580156105d957600080fd5b505af11580156105ed573d6000803e3d6000fd5b505050505b6106306040518060400160405280601081526020017f4d696e74696e672070726f6d6973657300000000000000000000000000000000815250611275565b61063a848461130e565b50505050565b6106626040518060600160405280602281526020016124bb602291398261146e565b61066c818361150a565b6106ab6040518060400160405280601681526020017f5769746864726177696e6720636f6c6c61746572616c00000000000000000000815250836116e1565b600860009054906101000a900473ffffffffffffffffffffffffffffffffffffffff1673ffffffffffffffffffffffffffffffffffffffff1663b460af9483600660009054906101000a900473ffffffffffffffffffffffffffffffffffffffff16846040518463ffffffff1660e01b815260040161072c93929190611cb1565b600060405180830381600087803b15801561074657600080fd5b505af115801561075a573d6000803e3d6000fd5b505050505050565b60008060008373ffffffffffffffffffffffffffffffffffffffff1673ffffffffffffffffffffffffffffffffffffffff168152602001908152602001600020549050919050565b6107cc604051806060016040528060228152602001612471602291398261146e565b6107d6818361150a565b6108156040518060400160405280602081526020017f5769746864726177696e672064616f20746f6b656e20746f2063616c6c657220815250836116e1565b600061081f6103e9565b600860009054906101000a900473ffffffffffffffffffffffffffffffffffffffff1673ffffffffffffffffffffffffffffffffffffffff1663e3a9db1a600760009054906101000a900473ffffffffffffffffffffffffffffffffffffffff166040518263ffffffff1660e01b815260040161089c9190611ce8565b602060405180830381865afa1580156108b9573d6000803e3d6000fd5b505050506040513d601f19601f820116820180604052508101906108dd9190611d18565b846108e89190611d45565b6108f29190611dce565b9050600860009054906101000a900473ffffffffffffffffffffffffffffffffffffffff1673ffffffffffffffffffffffffffffffffffffffff1663b460af9482600760009054906101000a900473ffffffffffffffffffffffffffffffffffffffff16856040518463ffffffff1660e01b815260040161097593929190611cb1565b600060405180830381600087803b15801561098f57600080fd5b505af11580156109a3573d6000803e3d6000fd5b505050506109c960405180606001604052806022815260200161244f60229139846116e1565b600860009054906101000a900473ffffffffffffffffffffffffffffffffffffffff1673ffffffffffffffffffffffffffffffffffffffff1663b460af9484600660009054906101000a900473ffffffffffffffffffffffffffffffffffffffff16600560009054906101000a900473ffffffffffffffffffffffffffffffffffffffff166040518463ffffffff1660e01b8152600401610a6c93929190611cb1565b600060405180830381600087803b158015610a8657600080fd5b505af1158015610a9a573d6000803e3d6000fd5b50505050505050565b606060048054610ab290611beb565b80601f0160208091040260200160405190810160405280929190818152602001828054610ade90611beb565b8015610b2b5780601f10610b0057610100808354040283529160200191610b2b565b820191906000526020600020905b815481529060010190602001808311610b0e57829003601f168201915b5050505050905090565b600080610b40610cf3565b90506000600160008373ffffffffffffffffffffffffffffffffffffffff1673ffffffffffffffffffffffffffffffffffffffff16815260200190815260200160002060008673ffffffffffffffffffffffffffffffffffffffff1673ffffffffffffffffffffffffffffffffffffffff16815260200190815260200160002054905083811015610c06576040517f08c379a0000000000000000000000000000000000000000000000000000000008152600401610bfd90611e71565b60405180910390fd5b610c138286868403610cfb565b60019250505092915050565b600080610c2a610cf3565b9050610c37818585610f52565b600191505092915050565b6000600160008473ffffffffffffffffffffffffffffffffffffffff1673ffffffffffffffffffffffffffffffffffffffff16815260200190815260200160002060008373ffffffffffffffffffffffffffffffffffffffff1673ffffffffffffffffffffffffffffffffffffffff16815260200190815260200160002054905092915050565b6000600860009054906101000a900473ffffffffffffffffffffffffffffffffffffffff16905090565b600033905090565b600073ffffffffffffffffffffffffffffffffffffffff168373ffffffffffffffffffffffffffffffffffffffff161415610d6b576040517f08c379a0000000000000000000000000000000000000000000000000000000008152600401610d6290611f03565b60405180910390fd5b600073ffffffffffffffffffffffffffffffffffffffff168273ffffffffffffffffffffffffffffffffffffffff161415610ddb576040517f08c379a0000000000000000000000000000000000000000000000000000000008152600401610dd290611f95565b60405180910390fd5b80600160008573ffffffffffffffffffffffffffffffffffffffff1673ffffffffffffffffffffffffffffffffffffffff16815260200190815260200160002060008473ffffffffffffffffffffffffffffffffffffffff1673ffffffffffffffffffffffffffffffffffffffff168152602001908152602001600020819055508173ffffffffffffffffffffffffffffffffffffffff168373ffffffffffffffffffffffffffffffffffffffff167f8c5be1e5ebec7d5bd14f71427d1e84f3dd0314c0f7b2291e5b200ac8c7c3b92583604051610eb99190611989565b60405180910390a3505050565b6000610ed28484610c42565b90507fffffffffffffffffffffffffffffffffffffffffffffffffffffffffffffffff8114610f4c5781811015610f3e576040517f08c379a0000000000000000000000000000000000000000000000000000000008152600401610f3590612001565b60405180910390fd5b610f4b8484848403610cfb565b5b50505050565b600073ffffffffffffffffffffffffffffffffffffffff168373ffffffffffffffffffffffffffffffffffffffff161415610fc2576040517f08c379a0000000000000000000000000000000000000000000000000000000008152600401610fb990612093565b60405180910390fd5b600073ffffffffffffffffffffffffffffffffffffffff168273ffffffffffffffffffffffffffffffffffffffff161415611032576040517f08c379a000000000000000000000000000000000000000000000000000000000815260040161102990612125565b60405180910390fd5b61103d83838361177d565b60008060008573ffffffffffffffffffffffffffffffffffffffff1673ffffffffffffffffffffffffffffffffffffffff168152602001908152602001600020549050818110156110c3576040517f08c379a00000000000000000000000000000000000000000000000000000000081526004016110ba906121b7565b60405180910390fd5b8181036000808673ffffffffffffffffffffffffffffffffffffffff1673ffffffffffffffffffffffffffffffffffffffff16815260200190815260200160002081905550816000808573ffffffffffffffffffffffffffffffffffffffff1673ffffffffffffffffffffffffffffffffffffffff16815260200190815260200160002060008282546111569190611c4c565b925050819055508273ffffffffffffffffffffffffffffffffffffffff168473ffffffffffffffffffffffffffffffffffffffff167fddf252ad1be2c89b69c2b068fc378daa952ba7f163c4a11628f55a4df523b3ef846040516111ba9190611989565b60405180910390a36111cd848484611782565b50505050565b61126f848484846040516024016111ed94939291906121d7565b6040516020818303038152906040527fbb7235e9000000000000000000000000000000000000000000000000000000007bffffffffffffffffffffffffffffffffffffffffffffffffffffffff19166020820180517bffffffffffffffffffffffffffffffffffffffffffffffffffffffff8381831617835250505050611787565b50505050565b61130b816040516024016112899190611849565b6040516020818303038152906040527f41304fac000000000000000000000000000000000000000000000000000000007bffffffffffffffffffffffffffffffffffffffffffffffffffffffff19166020820180517bffffffffffffffffffffffffffffffffffffffffffffffffffffffff8381831617835250505050611787565b50565b600073ffffffffffffffffffffffffffffffffffffffff168273ffffffffffffffffffffffffffffffffffffffff16141561137e576040517f08c379a000000000000000000000000000000000000000000000000000000000815260040161137590612276565b60405180910390fd5b61138a6000838361177d565b806002600082825461139c9190611c4c565b92505081905550806000808473ffffffffffffffffffffffffffffffffffffffff1673ffffffffffffffffffffffffffffffffffffffff16815260200190815260200160002060008282546113f19190611c4c565b925050819055508173ffffffffffffffffffffffffffffffffffffffff16600073ffffffffffffffffffffffffffffffffffffffff167fddf252ad1be2c89b69c2b068fc378daa952ba7f163c4a11628f55a4df523b3ef836040516114569190611989565b60405180910390a361146a60008383611782565b5050565b6115068282604051602401611484929190612296565b6040516020818303038152906040527f319af333000000000000000000000000000000000000000000000000000000007bffffffffffffffffffffffffffffffffffffffffffffffffffffffff19166020820180517bffffffffffffffffffffffffffffffffffffffffffffffffffffffff8381831617835250505050611787565b5050565b600073ffffffffffffffffffffffffffffffffffffffff168273ffffffffffffffffffffffffffffffffffffffff16141561157a576040517f08c379a000000000000000000000000000000000000000000000000000000000815260040161157190612338565b60405180910390fd5b6115868260008361177d565b60008060008473ffffffffffffffffffffffffffffffffffffffff1673ffffffffffffffffffffffffffffffffffffffff1681526020019081526020016000205490508181101561160c576040517f08c379a0000000000000000000000000000000000000000000000000000000008152600401611603906123ca565b60405180910390fd5b8181036000808573ffffffffffffffffffffffffffffffffffffffff1673ffffffffffffffffffffffffffffffffffffffff16815260200190815260200160002081905550816002600082825461166391906123ea565b92505081905550600073ffffffffffffffffffffffffffffffffffffffff168373ffffffffffffffffffffffffffffffffffffffff167fddf252ad1be2c89b69c2b068fc378daa952ba7f163c4a11628f55a4df523b3ef846040516116c89190611989565b60405180910390a36116dc83600084611782565b505050565b61177982826040516024016116f792919061241e565b6040516020818303038152906040527f9710a9d0000000000000000000000000000000000000000000000000000000007bffffffffffffffffffffffffffffffffffffffffffffffffffffffff19166020820180517bffffffffffffffffffffffffffffffffffffffffffffffffffffffff8381831617835250505050611787565b5050565b505050565b505050565b60008151905060006a636f6e736f6c652e6c6f679050602083016000808483855afa5050505050565b600081519050919050565b600082825260208201905092915050565b60005b838110156117ea5780820151818401526020810190506117cf565b838111156117f9576000848401525b50505050565b6000601f19601f8301169050919050565b600061181b826117b0565b61182581856117bb565b93506118358185602086016117cc565b61183e816117ff565b840191505092915050565b600060208201905081810360008301526118638184611810565b905092915050565b600080fd5b600073ffffffffffffffffffffffffffffffffffffffff82169050919050565b600061189b82611870565b9050919050565b6118ab81611890565b81146118b657600080fd5b50565b6000813590506118c8816118a2565b92915050565b6000819050919050565b6118e1816118ce565b81146118ec57600080fd5b50565b6000813590506118fe816118d8565b92915050565b6000806040838503121561191b5761191a61186b565b5b6000611929858286016118b9565b925050602061193a858286016118ef565b9150509250929050565b60008115159050919050565b61195981611944565b82525050565b60006020820190506119746000830184611950565b92915050565b611983816118ce565b82525050565b600060208201905061199e600083018461197a565b92915050565b6000806000606084860312156119bd576119bc61186b565b5b60006119cb868287016118b9565b93505060206119dc868287016118b9565b92505060406119ed868287016118ef565b9150509250925092565b600060ff82169050919050565b611a0d816119f7565b82525050565b6000602082019050611a286000830184611a04565b92915050565b60008060008060808587031215611a4857611a4761186b565b5b6000611a56878288016118b9565b9450506020611a67878288016118ef565b9350506040611a78878288016118b9565b9250506060611a89878288016118ef565b91505092959194509250565b60008060408385031215611aac57611aab61186b565b5b6000611aba858286016118ef565b9250506020611acb858286016118b9565b9150509250929050565b600060208284031215611aeb57611aea61186b565b5b6000611af9848285016118b9565b91505092915050565b60008060408385031215611b1957611b1861186b565b5b6000611b27858286016118b9565b9250506020611b38858286016118b9565b9150509250929050565b6000819050919050565b6000611b67611b62611b5d84611870565b611b42565b611870565b9050919050565b6000611b7982611b4c565b9050919050565b6000611b8b82611b6e565b9050919050565b611b9b81611b80565b82525050565b6000602082019050611bb66000830184611b92565b92915050565b7f4e487b7100000000000000000000000000000000000000000000000000000000600052602260045260246000fd5b60006002820490506001821680611c0357607f821691505b60208210811415611c1757611c16611bbc565b5b50919050565b7f4e487b7100000000000000000000000000000000000000000000000000000000600052601160045260246000fd5b6000611c57826118ce565b9150611c62836118ce565b9250827fffffffffffffffffffffffffffffffffffffffffffffffffffffffffffffffff03821115611c9757611c96611c1d565b5b828201905092915050565b611cab81611890565b82525050565b6000606082019050611cc6600083018661197a565b611cd36020830185611ca2565b611ce06040830184611ca2565b949350505050565b6000602082019050611cfd6000830184611ca2565b92915050565b600081519050611d12816118d8565b92915050565b600060208284031215611d2e57611d2d61186b565b5b6000611d3c84828501611d03565b91505092915050565b6000611d50826118ce565b9150611d5b836118ce565b9250817fffffffffffffffffffffffffffffffffffffffffffffffffffffffffffffffff0483118215151615611d9457611d93611c1d565b5b828202905092915050565b7f4e487b7100000000000000000000000000000000000000000000000000000000600052601260045260246000fd5b6000611dd9826118ce565b9150611de4836118ce565b925082611df457611df3611d9f565b5b828204905092915050565b7f45524332303a2064656372656173656420616c6c6f77616e63652062656c6f7760008201527f207a65726f000000000000000000000000000000000000000000000000000000602082015250565b6000611e5b6025836117bb565b9150611e6682611dff565b604082019050919050565b60006020820190508181036000830152611e8a81611e4e565b9050919050565b7f45524332303a20617070726f76652066726f6d20746865207a65726f2061646460008201527f7265737300000000000000000000000000000000000000000000000000000000602082015250565b6000611eed6024836117bb565b9150611ef882611e91565b604082019050919050565b60006020820190508181036000830152611f1c81611ee0565b9050919050565b7f45524332303a20617070726f766520746f20746865207a65726f20616464726560008201527f7373000000000000000000000000000000000000000000000000000000000000602082015250565b6000611f7f6022836117bb565b9150611f8a82611f23565b604082019050919050565b60006020820190508181036000830152611fae81611f72565b9050919050565b7f45524332303a20696e73756666696369656e7420616c6c6f77616e6365000000600082015250565b6000611feb601d836117bb565b9150611ff682611fb5565b602082019050919050565b6000602082019050818103600083015261201a81611fde565b9050919050565b7f45524332303a207472616e736665722066726f6d20746865207a65726f20616460008201527f6472657373000000000000000000000000000000000000000000000000000000602082015250565b600061207d6025836117bb565b915061208882612021565b604082019050919050565b600060208201905081810360008301526120ac81612070565b9050919050565b7f45524332303a207472616e7366657220746f20746865207a65726f206164647260008201527f6573730000000000000000000000000000000000000000000000000000000000602082015250565b600061210f6023836117bb565b915061211a826120b3565b604082019050919050565b6000602082019050818103600083015261213e81612102565b9050919050565b7f45524332303a207472616e7366657220616d6f756e742065786365656473206260008201527f616c616e63650000000000000000000000000000000000000000000000000000602082015250565b60006121a16026836117bb565b91506121ac82612145565b604082019050919050565b600060208201905081810360008301526121d081612194565b9050919050565b600060808201905081810360008301526121f18187611810565b9050612200602083018661197a565b81810360408301526122128185611810565b90506122216060830184611ca2565b95945050505050565b7f45524332303a206d696e7420746f20746865207a65726f206164647265737300600082015250565b6000612260601f836117bb565b915061226b8261222a565b602082019050919050565b6000602082019050818103600083015261228f81612253565b9050919050565b600060408201905081810360008301526122b08185611810565b90506122bf6020830184611ca2565b9392505050565b7f45524332303a206275726e2066726f6d20746865207a65726f2061646472657360008201527f7300000000000000000000000000000000000000000000000000000000000000602082015250565b60006123226021836117bb565b915061232d826122c6565b604082019050919050565b6000602082019050818103600083015261235181612315565b9050919050565b7f45524332303a206275726e20616d6f756e7420657863656564732062616c616e60008201527f6365000000000000000000000000000000000000000000000000000000000000602082015250565b60006123b46022836117bb565b91506123bf82612358565b604082019050919050565b600060208201905081810360008301526123e3816123a7565b9050919050565b60006123f5826118ce565b9150612400836118ce565b92508282101561241357612412611c1d565b5b828203905092915050565b600060408201905081810360008301526124388185611810565b9050612447602083018461197a565b939250505056fe5769746864726177696e6720636f6c6c61746572616c20746f2074726561737572794275726e696e672070726f6d6973657320666f722064616f20746f6b656e73206f664465706f736974696e6720636f6c6c61746572616c20746f207661756c74206f6620616d6f756e744275726e696e672070726f6d6973657320666f7220636f6c6c61746572616c206f66a2646970667358221220faf3ca1176d818db3a7275b2a9fb0748152a185647460dfae98c404b079a30bf64736f6c634300080a0033a2646970667358221220578431498a6f7e53619f6c057fb23c58a61f4469c63879344f29e5d0306fe30464736f6c634300080a0033",
  "linkReferences": {},
  "deployedLinkReferences": {}
}