{
  "_format": "hh-sol-artifact-1",
  "contractName": "Hub",
  "sourceName": "contracts/Hub.sol",
  "abi": [
    {
      "inputs": [],
      "stateMutability": "nonpayable",
      "type": "constructor"
    },
    {
      "anonymous": false,
      "inputs": [
        {
          "indexed": false,
          "internalType": "uint256",
          "name": "daoId",
          "type": "uint256"
        },
        {
          "indexed": false,
          "internalType": "address",
          "name": "contributor",
          "type": "address"
        },
        {
          "indexed": false,
          "internalType": "address",
          "name": "fundedBy",
          "type": "address"
        },
        {
          "indexed": false,
          "internalType": "uint256",
          "name": "amount",
          "type": "uint256"
        }
      ],
      "name": "ContributorFunded",
      "type": "event"
    },
    {
      "anonymous": false,
      "inputs": [
        {
          "indexed": false,
          "internalType": "uint256",
          "name": "daoId",
          "type": "uint256"
        },
        {
          "indexed": false,
          "internalType": "address",
          "name": "_daoToken",
          "type": "address"
        },
        {
          "indexed": false,
          "internalType": "address",
          "name": "_collateralToken",
          "type": "address"
        },
        {
          "indexed": false,
          "internalType": "address",
          "name": "_treasury",
          "type": "address"
        },
        {
          "indexed": false,
          "internalType": "address",
          "name": "_vault",
          "type": "address"
        }
      ],
      "name": "DAOLaunch",
      "type": "event"
    },
    {
      "anonymous": false,
      "inputs": [
        {
          "indexed": false,
          "internalType": "uint256",
          "name": "daoId",
          "type": "uint256"
        },
        {
          "indexed": false,
          "internalType": "address",
          "name": "burnedBy",
          "type": "address"
        },
        {
          "indexed": false,
          "internalType": "uint256",
          "name": "amount",
          "type": "uint256"
        }
      ],
      "name": "TokenBurnedForCollateral",
      "type": "event"
    },
    {
      "anonymous": false,
      "inputs": [
        {
          "indexed": false,
          "internalType": "uint256",
          "name": "daoId",
          "type": "uint256"
        },
        {
          "indexed": false,
          "internalType": "address",
          "name": "burnedBy",
          "type": "address"
        },
        {
          "indexed": false,
          "internalType": "uint256",
          "name": "amount",
          "type": "uint256"
        }
      ],
      "name": "TokenBurnedForDaoTokens",
      "type": "event"
    },
    {
      "anonymous": false,
      "inputs": [
        {
          "indexed": false,
          "internalType": "uint256",
          "name": "daoId",
          "type": "uint256"
        },
        {
          "indexed": false,
          "internalType": "address",
          "name": "unlockedBy",
          "type": "address"
        }
      ],
      "name": "TokenUnlock",
      "type": "event"
    },
    {
      "inputs": [
        {
          "internalType": "uint256",
          "name": "daoId",
          "type": "uint256"
        },
        {
          "internalType": "uint256",
          "name": "amount",
          "type": "uint256"
        }
      ],
      "name": "burnTokenForCollateral",
      "outputs": [],
      "stateMutability": "nonpayable",
      "type": "function"
    },
    {
      "inputs": [
        {
          "internalType": "uint256",
          "name": "daoId",
          "type": "uint256"
        },
        {
          "internalType": "uint256",
          "name": "amount",
          "type": "uint256"
        }
      ],
      "name": "burnTokenForDAOToken",
      "outputs": [],
      "stateMutability": "nonpayable",
      "type": "function"
    },
    {
      "inputs": [
        {
          "internalType": "uint256",
          "name": "daoId",
          "type": "uint256"
        },
        {
          "internalType": "address",
          "name": "to",
          "type": "address"
        },
        {
          "internalType": "uint256",
          "name": "amount",
          "type": "uint256"
        }
      ],
      "name": "fundContributor",
      "outputs": [],
      "stateMutability": "nonpayable",
      "type": "function"
    },
    {
      "inputs": [
        {
          "internalType": "uint256",
          "name": "daoId",
          "type": "uint256"
        }
      ],
      "name": "getCollateralLockedAmount",
      "outputs": [
        {
          "internalType": "uint256",
          "name": "",
          "type": "uint256"
        }
      ],
      "stateMutability": "view",
      "type": "function"
    },
    {
      "inputs": [
        {
          "internalType": "uint256",
          "name": "daoId",
          "type": "uint256"
        }
      ],
      "name": "getCollateralTokenAddress",
      "outputs": [
        {
          "internalType": "address",
          "name": "",
          "type": "address"
        }
      ],
      "stateMutability": "view",
      "type": "function"
    },
    {
      "inputs": [
        {
          "internalType": "uint256",
          "name": "daoId",
          "type": "uint256"
        }
      ],
      "name": "getDaoTokenAddress",
      "outputs": [
        {
          "internalType": "address",
          "name": "",
          "type": "address"
        }
      ],
      "stateMutability": "view",
      "type": "function"
    },
    {
      "inputs": [
        {
          "internalType": "uint256",
          "name": "daoId",
          "type": "uint256"
        }
      ],
      "name": "getDaoTokenLockedAmount",
      "outputs": [
        {
          "internalType": "uint256",
          "name": "",
          "type": "uint256"
        }
      ],
      "stateMutability": "view",
      "type": "function"
    },
    {
      "inputs": [
        {
          "internalType": "uint256",
          "name": "daoId",
          "type": "uint256"
        }
      ],
      "name": "getDaoTokenLockedPercentage",
      "outputs": [
        {
          "internalType": "uint256",
          "name": "",
          "type": "uint256"
        }
      ],
      "stateMutability": "view",
      "type": "function"
    },
    {
      "inputs": [
        {
          "internalType": "uint256",
          "name": "daoId",
          "type": "uint256"
        }
      ],
      "name": "getDaoTokenTotalSupply",
      "outputs": [
        {
          "internalType": "uint256",
          "name": "",
          "type": "uint256"
        }
      ],
      "stateMutability": "view",
      "type": "function"
    },
    {
      "inputs": [
        {
          "internalType": "uint256",
          "name": "daoId",
          "type": "uint256"
        }
      ],
      "name": "isLockedDaoToken",
      "outputs": [
        {
          "internalType": "bool",
          "name": "",
          "type": "bool"
        }
      ],
      "stateMutability": "view",
      "type": "function"
    },
    {
      "inputs": [
        {
          "internalType": "uint256",
          "name": "initialSupply",
          "type": "uint256"
        },
        {
          "internalType": "uint256",
          "name": "contributorAllocation",
          "type": "uint256"
        },
        {
          "internalType": "address",
          "name": "collateralToken",
          "type": "address"
        },
        {
          "internalType": "string",
          "name": "name",
          "type": "string"
        },
        {
          "internalType": "string",
          "name": "symbol",
          "type": "string"
        }
      ],
      "name": "launchDAO",
      "outputs": [
        {
          "internalType": "uint256",
          "name": "",
          "type": "uint256"
        }
      ],
      "stateMutability": "nonpayable",
      "type": "function"
    },
    {
      "inputs": [
        {
          "internalType": "uint256",
          "name": "daoId",
          "type": "uint256"
        }
      ],
      "name": "unlockDAOTokens",
      "outputs": [],
      "stateMutability": "nonpayable",
      "type": "function"
    }
  ],
  "bytecode": "0x6080604052600060085534801561001557600080fd5b50619304806100256000396000f3fe60806040523480156200001157600080fd5b5060043610620000c45760003560e01c8063aa7fbea6116200007b578063aa7fbea614620001e1578063b8db2b361462000217578063c89701c3146200024d578063dbfda2db1462000283578063e5724a0014620002a3578063fbe5e3ed14620002d957620000c4565b806301b9755714620000c9578063052682a114620000ff5780630a5ff94d146200011f5780632ebcc47a14620001555780634aee985b1462000175578063568dff4c14620001ab575b600080fd5b620000e76004803603810190620000e191906200141b565b620002f9565b604051620000f691906200145e565b60405180910390f35b6200011d6004803603810190620001179190620014e0565b62000517565b005b6200013d60048036038101906200013791906200141b565b620005ff565b6040516200014c91906200145e565b60405180910390f35b6200017360048036038101906200016d91906200153c565b6200075e565b005b6200019360048036038101906200018d91906200141b565b62000841565b604051620001a2919062001594565b60405180910390f35b620001c96004803603810190620001c3919062001713565b6200087e565b604051620001d891906200145e565b60405180910390f35b620001ff6004803603810190620001f991906200141b565b62000e1d565b6040516200020e91906200145e565b60405180910390f35b6200023560048036038101906200022f91906200141b565b62000ecb565b60405162000244919062001594565b60405180910390f35b6200026b60048036038101906200026591906200141b565b62000f08565b6040516200027a91906200145e565b60405180910390f35b620002a160048036038101906200029b91906200141b565b62001067565b005b620002c16004803603810190620002bb91906200141b565b6200113a565b604051620002d09190620017f6565b60405180910390f35b620002f76004803603810190620002f191906200153c565b620011e8565b005b60006006600083815260200190815260200160002060009054906101000a900473ffffffffffffffffffffffffffffffffffffffff1673ffffffffffffffffffffffffffffffffffffffff166318160ddd6040518163ffffffff1660e01b8152600401602060405180830381865afa1580156200037a573d6000803e3d6000fd5b505050506040513d601f19601f82011682018060405250810190620003a091906200182a565b60646005600085815260200190815260200160002060009054906101000a900473ffffffffffffffffffffffffffffffffffffffff1673ffffffffffffffffffffffffffffffffffffffff1663fbfa77cf6040518163ffffffff1660e01b8152600401602060405180830381865afa15801562000421573d6000803e3d6000fd5b505050506040513d601f19601f82011682018060405250810190620004479190620018a1565b73ffffffffffffffffffffffffffffffffffffffff1663e3a9db1a6006600087815260200190815260200160002060009054906101000a900473ffffffffffffffffffffffffffffffffffffffff166040518263ffffffff1660e01b8152600401620004b4919062001594565b602060405180830381865afa158015620004d2573d6000803e3d6000fd5b505050506040513d601f19601f82011682018060405250810190620004f891906200182a565b62000504919062001902565b62000510919062001992565b9050919050565b6005600084815260200190815260200160002060009054906101000a900473ffffffffffffffffffffffffffffffffffffffff1673ffffffffffffffffffffffffffffffffffffffff166340c10f1983836040518363ffffffff1660e01b815260040162000587929190620019ca565b600060405180830381600087803b158015620005a257600080fd5b505af1158015620005b7573d6000803e3d6000fd5b505050507f376ffa8369610d23d61f09ae1b3bdee6520fa471e111efe118cde75e91733ca483833384604051620005f29493929190620019f7565b60405180910390a1505050565b60006005600083815260200190815260200160002060009054906101000a900473ffffffffffffffffffffffffffffffffffffffff1673ffffffffffffffffffffffffffffffffffffffff1663fbfa77cf6040518163ffffffff1660e01b8152600401602060405180830381865afa15801562000680573d6000803e3d6000fd5b505050506040513d601f19601f82011682018060405250810190620006a69190620018a1565b73ffffffffffffffffffffffffffffffffffffffff1663e3a9db1a6006600085815260200190815260200160002060009054906101000a900473ffffffffffffffffffffffffffffffffffffffff166040518263ffffffff1660e01b815260040162000713919062001594565b602060405180830381865afa15801562000731573d6000803e3d6000fd5b505050506040513d601f19601f820116820180604052508101906200075791906200182a565b9050919050565b6005600083815260200190815260200160002060009054906101000a900473ffffffffffffffffffffffffffffffffffffffff1673ffffffffffffffffffffffffffffffffffffffff1663b1a6627e826040518263ffffffff1660e01b8152600401620007cc91906200145e565b600060405180830381600087803b158015620007e757600080fd5b505af1158015620007fc573d6000803e3d6000fd5b505050507f54a018029c06d8961fde20f929646a546c0b6a7b46b2192b85fb9f48fe299ae2823383604051620008359392919062001a44565b60405180910390a15050565b60006007600083815260200190815260200160002060009054906101000a900473ffffffffffffffffffffffffffffffffffffffff169050919050565b600060016008600082825462000895919062001a81565b92505081905550604051620008aa9062001394565b604051809103906000f080158015620008c7573d6000803e3d6000fd5b506000806101000a81548173ffffffffffffffffffffffffffffffffffffffff021916908373ffffffffffffffffffffffffffffffffffffffff160217905550620009686040518060400160405280601281526020017f547265617375727920616464726573733a20000000000000000000000000000081525060008054906101000a900473ffffffffffffffffffffffffffffffffffffffff16620012cb565b60006040516200097890620013a2565b604051809103906000f08015801562000995573d6000803e3d6000fd5b50905086868260008054906101000a900473ffffffffffffffffffffffffffffffffffffffff168787604051620009cc90620013b0565b620009dd9695949392919062001b71565b604051809103906000f080158015620009fa573d6000803e3d6000fd5b50600260006101000a81548173ffffffffffffffffffffffffffffffffffffffff021916908373ffffffffffffffffffffffffffffffffffffffff160217905550838386600260009054906101000a900473ffffffffffffffffffffffffffffffffffffffff1660008054906101000a900473ffffffffffffffffffffffffffffffffffffffff168560405162000a9190620013be565b62000aa29695949392919062001bec565b604051809103906000f08015801562000abf573d6000803e3d6000fd5b50600160006101000a81548173ffffffffffffffffffffffffffffffffffffffff021916908373ffffffffffffffffffffffffffffffffffffffff1602179055508073ffffffffffffffffffffffffffffffffffffffff1663f2fde38b600160009054906101000a900473ffffffffffffffffffffffffffffffffffffffff166040518263ffffffff1660e01b815260040162000b5d919062001594565b600060405180830381600087803b15801562000b7857600080fd5b505af115801562000b8d573d6000803e3d6000fd5b5050505060008054906101000a900473ffffffffffffffffffffffffffffffffffffffff1660046000600854815260200190815260200160002060006101000a81548173ffffffffffffffffffffffffffffffffffffffff021916908373ffffffffffffffffffffffffffffffffffffffff160217905550600160009054906101000a900473ffffffffffffffffffffffffffffffffffffffff1660056000600854815260200190815260200160002060006101000a81548173ffffffffffffffffffffffffffffffffffffffff021916908373ffffffffffffffffffffffffffffffffffffffff160217905550600260009054906101000a900473ffffffffffffffffffffffffffffffffffffffff1660066000600854815260200190815260200160002060006101000a81548173ffffffffffffffffffffffffffffffffffffffff021916908373ffffffffffffffffffffffffffffffffffffffff160217905550600360009054906101000a900473ffffffffffffffffffffffffffffffffffffffff1660076000600854815260200190815260200160002060006101000a81548173ffffffffffffffffffffffffffffffffffffffff021916908373ffffffffffffffffffffffffffffffffffffffff1602179055507f1bc85f782fd3722c12db3054ab29284a744cd771910e6dc30b216831c62e2b52600854600260009054906101000a900473ffffffffffffffffffffffffffffffffffffffff16600360009054906101000a900473ffffffffffffffffffffffffffffffffffffffff1660008054906101000a900473ffffffffffffffffffffffffffffffffffffffff168560405162000e0695949392919062001c67565b60405180910390a160085491505095945050505050565b60006006600083815260200190815260200160002060009054906101000a900473ffffffffffffffffffffffffffffffffffffffff1673ffffffffffffffffffffffffffffffffffffffff166318160ddd6040518163ffffffff1660e01b8152600401602060405180830381865afa15801562000e9e573d6000803e3d6000fd5b505050506040513d601f19601f8201168201806040525081019062000ec491906200182a565b9050919050565b60006006600083815260200190815260200160002060009054906101000a900473ffffffffffffffffffffffffffffffffffffffff169050919050565b60006005600083815260200190815260200160002060009054906101000a900473ffffffffffffffffffffffffffffffffffffffff1673ffffffffffffffffffffffffffffffffffffffff1663fbfa77cf6040518163ffffffff1660e01b8152600401602060405180830381865afa15801562000f89573d6000803e3d6000fd5b505050506040513d601f19601f8201168201806040525081019062000faf9190620018a1565b73ffffffffffffffffffffffffffffffffffffffff1663e3a9db1a6007600085815260200190815260200160002060009054906101000a900473ffffffffffffffffffffffffffffffffffffffff166040518263ffffffff1660e01b81526004016200101c919062001594565b602060405180830381865afa1580156200103a573d6000803e3d6000fd5b505050506040513d601f19601f820116820180604052508101906200106091906200182a565b9050919050565b6006600082815260200190815260200160002060009054906101000a900473ffffffffffffffffffffffffffffffffffffffff1673ffffffffffffffffffffffffffffffffffffffff1663a69df4b56040518163ffffffff1660e01b8152600401600060405180830381600087803b158015620010e357600080fd5b505af1158015620010f8573d6000803e3d6000fd5b505050507f9cb62521fa942fcb358f09f584fde02bd2da8b2060bd17d861065afac056628e81336040516200112f92919062001cc4565b60405180910390a150565b60006006600083815260200190815260200160002060009054906101000a900473ffffffffffffffffffffffffffffffffffffffff1673ffffffffffffffffffffffffffffffffffffffff1663cf3090126040518163ffffffff1660e01b8152600401602060405180830381865afa158015620011bb573d6000803e3d6000fd5b505050506040513d601f19601f82011682018060405250810190620011e1919062001d22565b9050919050565b6005600083815260200190815260200160002060009054906101000a900473ffffffffffffffffffffffffffffffffffffffff1673ffffffffffffffffffffffffffffffffffffffff16632d3dd0e6826040518263ffffffff1660e01b81526004016200125691906200145e565b600060405180830381600087803b1580156200127157600080fd5b505af115801562001286573d6000803e3d6000fd5b505050507f54a018029c06d8961fde20f929646a546c0b6a7b46b2192b85fb9f48fe299ae2823383604051620012bf9392919062001a44565b60405180910390a15050565b620013678282604051602401620012e492919062001d54565b6040516020818303038152906040527f319af333000000000000000000000000000000000000000000000000000000007bffffffffffffffffffffffffffffffffffffffffffffffffffffffff19166020820180517bffffffffffffffffffffffffffffffffffffffffffffffffffffffff83818316178352505050506200136b565b5050565b60008151905060006a636f6e736f6c652e6c6f679050602083016000808483855afa5050505050565b6121118062001d8983390190565b610bae8062003e9a83390190565b611f618062004a4883390190565b61292680620069a983390190565b6000604051905090565b600080fd5b600080fd5b6000819050919050565b620013f581620013e0565b81146200140157600080fd5b50565b6000813590506200141581620013ea565b92915050565b600060208284031215620014345762001433620013d6565b5b6000620014448482850162001404565b91505092915050565b6200145881620013e0565b82525050565b60006020820190506200147560008301846200144d565b92915050565b600073ffffffffffffffffffffffffffffffffffffffff82169050919050565b6000620014a8826200147b565b9050919050565b620014ba816200149b565b8114620014c657600080fd5b50565b600081359050620014da81620014af565b92915050565b600080600060608486031215620014fc57620014fb620013d6565b5b60006200150c8682870162001404565b93505060206200151f86828701620014c9565b9250506040620015328682870162001404565b9150509250925092565b60008060408385031215620015565762001555620013d6565b5b6000620015668582860162001404565b9250506020620015798582860162001404565b9150509250929050565b6200158e816200149b565b82525050565b6000602082019050620015ab600083018462001583565b92915050565b600080fd5b600080fd5b6000601f19601f8301169050919050565b7f4e487b7100000000000000000000000000000000000000000000000000000000600052604160045260246000fd5b6200160682620015bb565b810181811067ffffffffffffffff82111715620016285762001627620015cc565b5b80604052505050565b60006200163d620013cc565b90506200164b8282620015fb565b919050565b600067ffffffffffffffff8211156200166e576200166d620015cc565b5b6200167982620015bb565b9050602081019050919050565b82818337600083830152505050565b6000620016ac620016a68462001650565b62001631565b905082815260208101848484011115620016cb57620016ca620015b6565b5b620016d884828562001686565b509392505050565b600082601f830112620016f857620016f7620015b1565b5b81356200170a84826020860162001695565b91505092915050565b600080600080600060a08688031215620017325762001731620013d6565b5b6000620017428882890162001404565b9550506020620017558882890162001404565b94505060406200176888828901620014c9565b935050606086013567ffffffffffffffff8111156200178c576200178b620013db565b5b6200179a88828901620016e0565b925050608086013567ffffffffffffffff811115620017be57620017bd620013db565b5b620017cc88828901620016e0565b9150509295509295909350565b60008115159050919050565b620017f081620017d9565b82525050565b60006020820190506200180d6000830184620017e5565b92915050565b6000815190506200182481620013ea565b92915050565b600060208284031215620018435762001842620013d6565b5b6000620018538482850162001813565b91505092915050565b600062001869826200149b565b9050919050565b6200187b816200185c565b81146200188757600080fd5b50565b6000815190506200189b8162001870565b92915050565b600060208284031215620018ba57620018b9620013d6565b5b6000620018ca848285016200188a565b91505092915050565b7f4e487b7100000000000000000000000000000000000000000000000000000000600052601160045260246000fd5b60006200190f82620013e0565b91506200191c83620013e0565b9250817fffffffffffffffffffffffffffffffffffffffffffffffffffffffffffffffff0483118215151615620019585762001957620018d3565b5b828202905092915050565b7f4e487b7100000000000000000000000000000000000000000000000000000000600052601260045260246000fd5b60006200199f82620013e0565b9150620019ac83620013e0565b925082620019bf57620019be62001963565b5b828204905092915050565b6000604082019050620019e1600083018562001583565b620019f060208301846200144d565b9392505050565b600060808201905062001a0e60008301876200144d565b62001a1d602083018662001583565b62001a2c604083018562001583565b62001a3b60608301846200144d565b95945050505050565b600060608201905062001a5b60008301866200144d565b62001a6a602083018562001583565b62001a7960408301846200144d565b949350505050565b600062001a8e82620013e0565b915062001a9b83620013e0565b9250827fffffffffffffffffffffffffffffffffffffffffffffffffffffffffffffffff0382111562001ad35762001ad2620018d3565b5b828201905092915050565b600081519050919050565b600082825260208201905092915050565b60005b8381101562001b1a57808201518184015260208101905062001afd565b8381111562001b2a576000848401525b50505050565b600062001b3d8262001ade565b62001b49818562001ae9565b935062001b5b81856020860162001afa565b62001b6681620015bb565b840191505092915050565b600060c08201905062001b8860008301896200144d565b62001b9760208301886200144d565b62001ba6604083018762001583565b62001bb5606083018662001583565b818103608083015262001bc9818562001b30565b905081810360a083015262001bdf818462001b30565b9050979650505050505050565b600060c082019050818103600083015262001c08818962001b30565b9050818103602083015262001c1e818862001b30565b905062001c2f604083018762001583565b62001c3e606083018662001583565b62001c4d608083018562001583565b62001c5c60a083018462001583565b979650505050505050565b600060a08201905062001c7e60008301886200144d565b62001c8d602083018762001583565b62001c9c604083018662001583565b62001cab606083018562001583565b62001cba608083018462001583565b9695505050505050565b600060408201905062001cdb60008301856200144d565b62001cea602083018462001583565b9392505050565b62001cfc81620017d9565b811462001d0857600080fd5b50565b60008151905062001d1c8162001cf1565b92915050565b60006020828403121562001d3b5762001d3a620013d6565b5b600062001d4b8482850162001d0b565b91505092915050565b6000604082019050818103600083015262001d70818562001b30565b905062001d81602083018462001583565b939250505056fe60806040523480156200001157600080fd5b5060008060006101000a81548160ff0219169083151502179055506200004c620000406200009260201b60201c565b6200009a60201b60201c565b6200006c620000606200009260201b60201c565b6200015f60201b60201c565b6200008c620000806200009260201b60201c565b6200028860201b60201c565b6200056f565b600033905090565b60008060019054906101000a900473ffffffffffffffffffffffffffffffffffffffff16905081600060016101000a81548173ffffffffffffffffffffffffffffffffffffffff021916908373ffffffffffffffffffffffffffffffffffffffff1602179055508173ffffffffffffffffffffffffffffffffffffffff168173ffffffffffffffffffffffffffffffffffffffff167f8be0079c531659141344cd1fd0a4f28419497f9722a3daafe3b4186f6b6457e060405160405180910390a35050565b33600115156200017582620003b260201b60201c565b151514620001ba576040517f08c379a0000000000000000000000000000000000000000000000000000000008152600401620001b19062000469565b60405180910390fd5b600073ffffffffffffffffffffffffffffffffffffffff168273ffffffffffffffffffffffffffffffffffffffff1614156200022d576040517f08c379a00000000000000000000000000000000000000000000000000000000081526004016200022490620004db565b60405180910390fd5b60018060008473ffffffffffffffffffffffffffffffffffffffff1673ffffffffffffffffffffffffffffffffffffffff16815260200190815260200160002060006101000a81548160ff0219169083151502179055505050565b33600115156200029e82620003b260201b60201c565b151514620002e3576040517f08c379a0000000000000000000000000000000000000000000000000000000008152600401620002da9062000469565b60405180910390fd5b600073ffffffffffffffffffffffffffffffffffffffff168273ffffffffffffffffffffffffffffffffffffffff16141562000356576040517f08c379a00000000000000000000000000000000000000000000000000000000081526004016200034d906200054d565b60405180910390fd5b6001600260008473ffffffffffffffffffffffffffffffffffffffff1673ffffffffffffffffffffffffffffffffffffffff16815260200190815260200160002060006101000a81548160ff0219169083151502179055505050565b6000600160008373ffffffffffffffffffffffffffffffffffffffff1673ffffffffffffffffffffffffffffffffffffffff16815260200190815260200160002060009054906101000a900460ff169050919050565b600082825260208201905092915050565b7f4e6f742061206d616e6167657200000000000000000000000000000000000000600082015250565b600062000451600d8362000408565b91506200045e8262000419565b602082019050919050565b60006020820190508181036000830152620004848162000442565b9050919050565b7f496e76616c6964206d616e616765722061646472657373000000000000000000600082015250565b6000620004c360178362000408565b9150620004d0826200048b565b602082019050919050565b60006020820190508181036000830152620004f681620004b4565b9050919050565b7f496e76616c69642066756e646572206164647265737300000000000000000000600082015250565b60006200053560168362000408565b91506200054282620004fd565b602082019050919050565b60006020820190508181036000830152620005688162000526565b9050919050565b611b92806200057f6000396000f3fe608060405234801561001057600080fd5b50600436106100f55760003560e01c80638da5cb5b11610097578063e3d670d711610066578063e3d670d714610210578063f2fde38b14610240578063f3ae24151461025c578063f45346dc1461028c576100f5565b80638da5cb5b1461019e578063ac18de43146101bc578063d9caed12146101d8578063dcd18dd4146101f4576100f5565b80633f4ba83a116100d35780633f4ba83a146101625780635c975abb1461016c578063715018a61461018a5780638456cb5914610194576100f5565b80631bbe9d8c146100fa5780631ea48870146101165780632d06177a14610146575b600080fd5b610114600480360381019061010f91906112d6565b6102a8565b005b610130600480360381019061012b91906112d6565b6103c4565b60405161013d919061131e565b60405180910390f35b610160600480360381019061015b91906112d6565b61041a565b005b61016a610535565b005b610174610590565b604051610181919061131e565b60405180910390f35b6101926105a6565b005b61019c61062e565b005b6101a6610689565b6040516101b39190611348565b60405180910390f35b6101d660048036038101906101d191906112d6565b6106b2565b005b6101f260048036038101906101ed9190611399565b6107ce565b005b61020e600480360381019061020991906112d6565b6109a1565b005b61022a600480360381019061022591906112d6565b610abd565b60405161023791906113fb565b60405180910390f35b61025a600480360381019061025591906112d6565b610b40565b005b610276600480360381019061027191906112d6565b610c38565b604051610283919061131e565b60405180910390f35b6102a660048036038101906102a19190611416565b610c8e565b005b33600115156102b682610c38565b1515146102f8576040517f08c379a00000000000000000000000000000000000000000000000000000000081526004016102ef906114c6565b60405180910390fd5b600073ffffffffffffffffffffffffffffffffffffffff168273ffffffffffffffffffffffffffffffffffffffff161415610368576040517f08c379a000000000000000000000000000000000000000000000000000000000815260040161035f90611532565b60405180910390fd5b6001600260008473ffffffffffffffffffffffffffffffffffffffff1673ffffffffffffffffffffffffffffffffffffffff16815260200190815260200160002060006101000a81548160ff0219169083151502179055505050565b6000600260008373ffffffffffffffffffffffffffffffffffffffff1673ffffffffffffffffffffffffffffffffffffffff16815260200190815260200160002060009054906101000a900460ff169050919050565b336001151561042882610c38565b15151461046a576040517f08c379a0000000000000000000000000000000000000000000000000000000008152600401610461906114c6565b60405180910390fd5b600073ffffffffffffffffffffffffffffffffffffffff168273ffffffffffffffffffffffffffffffffffffffff1614156104da576040517f08c379a00000000000000000000000000000000000000000000000000000000081526004016104d19061159e565b60405180910390fd5b60018060008473ffffffffffffffffffffffffffffffffffffffff1673ffffffffffffffffffffffffffffffffffffffff16815260200190815260200160002060006101000a81548160ff0219169083151502179055505050565b336001151561054382610c38565b151514610585576040517f08c379a000000000000000000000000000000000000000000000000000000000815260040161057c906114c6565b60405180910390fd5b61058d610d60565b50565b60008060009054906101000a900460ff16905090565b6105ae610e01565b73ffffffffffffffffffffffffffffffffffffffff166105cc610689565b73ffffffffffffffffffffffffffffffffffffffff1614610622576040517f08c379a00000000000000000000000000000000000000000000000000000000081526004016106199061160a565b60405180910390fd5b61062c6000610e09565b565b336001151561063c82610c38565b15151461067e576040517f08c379a0000000000000000000000000000000000000000000000000000000008152600401610675906114c6565b60405180910390fd5b610686610ece565b50565b60008060019054906101000a900473ffffffffffffffffffffffffffffffffffffffff16905090565b33600115156106c082610c38565b151514610702576040517f08c379a00000000000000000000000000000000000000000000000000000000081526004016106f9906114c6565b60405180910390fd5b600073ffffffffffffffffffffffffffffffffffffffff168273ffffffffffffffffffffffffffffffffffffffff161415610772576040517f08c379a00000000000000000000000000000000000000000000000000000000081526004016107699061159e565b60405180910390fd5b6000600160008473ffffffffffffffffffffffffffffffffffffffff1673ffffffffffffffffffffffffffffffffffffffff16815260200190815260200160002060006101000a81548160ff0219169083151502179055505050565b33600115156107dc82610c38565b15151461081e576040517f08c379a0000000000000000000000000000000000000000000000000000000008152600401610815906114c6565b60405180910390fd5b610826610590565b15610866576040517f08c379a000000000000000000000000000000000000000000000000000000000815260040161085d90611676565b60405180910390fd5b8273ffffffffffffffffffffffffffffffffffffffff166370a08231306040518263ffffffff1660e01b815260040161089f9190611348565b602060405180830381865afa1580156108bc573d6000803e3d6000fd5b505050506040513d601f19601f820116820180604052508101906108e091906116ab565b821115610922576040517f08c379a000000000000000000000000000000000000000000000000000000000815260040161091990611724565b60405180910390fd5b61094d84838573ffffffffffffffffffffffffffffffffffffffff16610f709092919063ffffffff16565b8373ffffffffffffffffffffffffffffffffffffffff167f7084f5476618d8e60b11ef0d7d3f06914655adb8793e28ff7f018d4c76d505d58360405161099391906113fb565b60405180910390a250505050565b33600115156109af82610c38565b1515146109f1576040517f08c379a00000000000000000000000000000000000000000000000000000000081526004016109e8906114c6565b60405180910390fd5b600073ffffffffffffffffffffffffffffffffffffffff168273ffffffffffffffffffffffffffffffffffffffff161415610a61576040517f08c379a0000000000000000000000000000000000000000000000000000000008152600401610a5890611532565b60405180910390fd5b6000600260008473ffffffffffffffffffffffffffffffffffffffff1673ffffffffffffffffffffffffffffffffffffffff16815260200190815260200160002060006101000a81548160ff0219169083151502179055505050565b60008173ffffffffffffffffffffffffffffffffffffffff166370a08231306040518263ffffffff1660e01b8152600401610af89190611348565b602060405180830381865afa158015610b15573d6000803e3d6000fd5b505050506040513d601f19601f82011682018060405250810190610b3991906116ab565b9050919050565b610b48610e01565b73ffffffffffffffffffffffffffffffffffffffff16610b66610689565b73ffffffffffffffffffffffffffffffffffffffff1614610bbc576040517f08c379a0000000000000000000000000000000000000000000000000000000008152600401610bb39061160a565b60405180910390fd5b600073ffffffffffffffffffffffffffffffffffffffff168173ffffffffffffffffffffffffffffffffffffffff161415610c2c576040517f08c379a0000000000000000000000000000000000000000000000000000000008152600401610c23906117b6565b60405180910390fd5b610c3581610e09565b50565b6000600160008373ffffffffffffffffffffffffffffffffffffffff1673ffffffffffffffffffffffffffffffffffffffff16815260200190815260200160002060009054906101000a900460ff169050919050565b8073ffffffffffffffffffffffffffffffffffffffff1663a9059cbb30846040518363ffffffff1660e01b8152600401610cc99291906117d6565b6020604051808303816000875af1158015610ce8573d6000803e3d6000fd5b505050506040513d601f19601f82011682018060405250810190610d0c919061182b565b508273ffffffffffffffffffffffffffffffffffffffff167f2da466a7b24304f47e87fa2e1e5a81b9831ce54fec19055ce277ca2f39ba42c483604051610d5391906113fb565b60405180910390a2505050565b610d68610590565b610da7576040517f08c379a0000000000000000000000000000000000000000000000000000000008152600401610d9e906118a4565b60405180910390fd5b60008060006101000a81548160ff0219169083151502179055507f5db9ee0a495bf2e6ff9c91a7834c1ba4fdd244a5e8aa4e537bd38aeae4b073aa610dea610e01565b604051610df79190611348565b60405180910390a1565b600033905090565b60008060019054906101000a900473ffffffffffffffffffffffffffffffffffffffff16905081600060016101000a81548173ffffffffffffffffffffffffffffffffffffffff021916908373ffffffffffffffffffffffffffffffffffffffff1602179055508173ffffffffffffffffffffffffffffffffffffffff168173ffffffffffffffffffffffffffffffffffffffff167f8be0079c531659141344cd1fd0a4f28419497f9722a3daafe3b4186f6b6457e060405160405180910390a35050565b610ed6610590565b15610f16576040517f08c379a0000000000000000000000000000000000000000000000000000000008152600401610f0d90611676565b60405180910390fd5b60016000806101000a81548160ff0219169083151502179055507f62e78cea01bee320cd4e420270b5ea74000d11b0c9f74754ebdbfc544b05a258610f59610e01565b604051610f669190611348565b60405180910390a1565b610ff18363a9059cbb60e01b8484604051602401610f8f9291906117d6565b604051602081830303815290604052907bffffffffffffffffffffffffffffffffffffffffffffffffffffffff19166020820180517bffffffffffffffffffffffffffffffffffffffffffffffffffffffff8381831617835250505050610ff6565b505050565b6000611058826040518060400160405280602081526020017f5361666545524332303a206c6f772d6c6576656c2063616c6c206661696c65648152508573ffffffffffffffffffffffffffffffffffffffff166110bd9092919063ffffffff16565b90506000815111156110b85780806020019051810190611078919061182b565b6110b7576040517f08c379a00000000000000000000000000000000000000000000000000000000081526004016110ae90611936565b60405180910390fd5b5b505050565b60606110cc84846000856110d5565b90509392505050565b60608247101561111a576040517f08c379a0000000000000000000000000000000000000000000000000000000008152600401611111906119c8565b60405180910390fd5b611123856111e9565b611162576040517f08c379a000000000000000000000000000000000000000000000000000000000815260040161115990611a34565b60405180910390fd5b6000808673ffffffffffffffffffffffffffffffffffffffff16858760405161118b9190611ace565b60006040518083038185875af1925050503d80600081146111c8576040519150601f19603f3d011682016040523d82523d6000602084013e6111cd565b606091505b50915091506111dd82828661120c565b92505050949350505050565b6000808273ffffffffffffffffffffffffffffffffffffffff163b119050919050565b6060831561121c5782905061126c565b60008351111561122f5782518084602001fd5b816040517f08c379a00000000000000000000000000000000000000000000000000000000081526004016112639190611b3a565b60405180910390fd5b9392505050565b600080fd5b600073ffffffffffffffffffffffffffffffffffffffff82169050919050565b60006112a382611278565b9050919050565b6112b381611298565b81146112be57600080fd5b50565b6000813590506112d0816112aa565b92915050565b6000602082840312156112ec576112eb611273565b5b60006112fa848285016112c1565b91505092915050565b60008115159050919050565b61131881611303565b82525050565b6000602082019050611333600083018461130f565b92915050565b61134281611298565b82525050565b600060208201905061135d6000830184611339565b92915050565b6000819050919050565b61137681611363565b811461138157600080fd5b50565b6000813590506113938161136d565b92915050565b6000806000606084860312156113b2576113b1611273565b5b60006113c0868287016112c1565b93505060206113d1868287016112c1565b92505060406113e286828701611384565b9150509250925092565b6113f581611363565b82525050565b600060208201905061141060008301846113ec565b92915050565b60008060006060848603121561142f5761142e611273565b5b600061143d868287016112c1565b935050602061144e86828701611384565b925050604061145f868287016112c1565b9150509250925092565b600082825260208201905092915050565b7f4e6f742061206d616e6167657200000000000000000000000000000000000000600082015250565b60006114b0600d83611469565b91506114bb8261147a565b602082019050919050565b600060208201905081810360008301526114df816114a3565b9050919050565b7f496e76616c69642066756e646572206164647265737300000000000000000000600082015250565b600061151c601683611469565b9150611527826114e6565b602082019050919050565b6000602082019050818103600083015261154b8161150f565b9050919050565b7f496e76616c6964206d616e616765722061646472657373000000000000000000600082015250565b6000611588601783611469565b915061159382611552565b602082019050919050565b600060208201905081810360008301526115b78161157b565b9050919050565b7f4f776e61626c653a2063616c6c6572206973206e6f7420746865206f776e6572600082015250565b60006115f4602083611469565b91506115ff826115be565b602082019050919050565b60006020820190508181036000830152611623816115e7565b9050919050565b7f5061757361626c653a2070617573656400000000000000000000000000000000600082015250565b6000611660601083611469565b915061166b8261162a565b602082019050919050565b6000602082019050818103600083015261168f81611653565b9050919050565b6000815190506116a58161136d565b92915050565b6000602082840312156116c1576116c0611273565b5b60006116cf84828501611696565b91505092915050565b7f4e6f20776974686472617761626c652062616c616e6365000000000000000000600082015250565b600061170e601783611469565b9150611719826116d8565b602082019050919050565b6000602082019050818103600083015261173d81611701565b9050919050565b7f4f776e61626c653a206e6577206f776e657220697320746865207a65726f206160008201527f6464726573730000000000000000000000000000000000000000000000000000602082015250565b60006117a0602683611469565b91506117ab82611744565b604082019050919050565b600060208201905081810360008301526117cf81611793565b9050919050565b60006040820190506117eb6000830185611339565b6117f860208301846113ec565b9392505050565b61180881611303565b811461181357600080fd5b50565b600081519050611825816117ff565b92915050565b60006020828403121561184157611840611273565b5b600061184f84828501611816565b91505092915050565b7f5061757361626c653a206e6f7420706175736564000000000000000000000000600082015250565b600061188e601483611469565b915061189982611858565b602082019050919050565b600060208201905081810360008301526118bd81611881565b9050919050565b7f5361666545524332303a204552433230206f7065726174696f6e20646964206e60008201527f6f74207375636365656400000000000000000000000000000000000000000000602082015250565b6000611920602a83611469565b915061192b826118c4565b604082019050919050565b6000602082019050818103600083015261194f81611913565b9050919050565b7f416464726573733a20696e73756666696369656e742062616c616e636520666f60008201527f722063616c6c0000000000000000000000000000000000000000000000000000602082015250565b60006119b2602683611469565b91506119bd82611956565b604082019050919050565b600060208201905081810360008301526119e1816119a5565b9050919050565b7f416464726573733a2063616c6c20746f206e6f6e2d636f6e7472616374000000600082015250565b6000611a1e601d83611469565b9150611a29826119e8565b602082019050919050565b60006020820190508181036000830152611a4d81611a11565b9050919050565b600081519050919050565b600081905092915050565b60005b83811015611a88578082015181840152602081019050611a6d565b83811115611a97576000848401525b50505050565b6000611aa882611a54565b611ab28185611a5f565b9350611ac2818560208601611a6a565b80840191505092915050565b6000611ada8284611a9d565b915081905092915050565b600081519050919050565b6000601f19601f8301169050919050565b6000611b0c82611ae5565b611b168185611469565b9350611b26818560208601611a6a565b611b2f81611af0565b840191505092915050565b60006020820190508181036000830152611b548184611b01565b90509291505056fea2646970667358221220d695552931caea45ba15a5ec8e616e9a4249a6d4add0a2b41e0cd2fc7691444c64736f6c634300080a0033608060405234801561001057600080fd5b5061002d61002261003260201b60201c565b61003a60201b60201c565b6100fe565b600033905090565b60008060009054906101000a900473ffffffffffffffffffffffffffffffffffffffff169050816000806101000a81548173ffffffffffffffffffffffffffffffffffffffff021916908373ffffffffffffffffffffffffffffffffffffffff1602179055508173ffffffffffffffffffffffffffffffffffffffff168173ffffffffffffffffffffffffffffffffffffffff167f8be0079c531659141344cd1fd0a4f28419497f9722a3daafe3b4186f6b6457e060405160405180910390a35050565b610aa18061010d6000396000f3fe608060405234801561001057600080fd5b50600436106100625760003560e01c80636e553f6514610067578063715018a6146100835780638da5cb5b1461008d578063b460af94146100ab578063e3a9db1a146100c7578063f2fde38b146100f7575b600080fd5b610081600480360381019061007c9190610741565b610113565b005b61008b610260565b005b6100956102e8565b6040516100a29190610790565b60405180910390f35b6100c560048036038101906100c091906107ab565b610311565b005b6100e160048036038101906100dc91906107fe565b610461565b6040516100ee919061083a565b60405180910390f35b610111600480360381019061010c91906107fe565b6104e4565b005b61011b6105dc565b73ffffffffffffffffffffffffffffffffffffffff166101396102e8565b73ffffffffffffffffffffffffffffffffffffffff161461018f576040517f08c379a0000000000000000000000000000000000000000000000000000000008152600401610186906108b2565b60405180910390fd5b8073ffffffffffffffffffffffffffffffffffffffff1663a9059cbb30846040518363ffffffff1660e01b81526004016101ca9291906108d2565b6020604051808303816000875af11580156101e9573d6000803e3d6000fd5b505050506040513d601f19601f8201168201806040525081019061020d9190610933565b508073ffffffffffffffffffffffffffffffffffffffff167f2da466a7b24304f47e87fa2e1e5a81b9831ce54fec19055ce277ca2f39ba42c483604051610254919061083a565b60405180910390a25050565b6102686105dc565b73ffffffffffffffffffffffffffffffffffffffff166102866102e8565b73ffffffffffffffffffffffffffffffffffffffff16146102dc576040517f08c379a00000000000000000000000000000000000000000000000000000000081526004016102d3906108b2565b60405180910390fd5b6102e660006105e4565b565b60008060009054906101000a900473ffffffffffffffffffffffffffffffffffffffff16905090565b6103196105dc565b73ffffffffffffffffffffffffffffffffffffffff166103376102e8565b73ffffffffffffffffffffffffffffffffffffffff161461038d576040517f08c379a0000000000000000000000000000000000000000000000000000000008152600401610384906108b2565b60405180910390fd5b8173ffffffffffffffffffffffffffffffffffffffff166323b872dd3083866040518463ffffffff1660e01b81526004016103ca93929190610960565b6020604051808303816000875af11580156103e9573d6000803e3d6000fd5b505050506040513d601f19601f8201168201806040525081019061040d9190610933565b508173ffffffffffffffffffffffffffffffffffffffff167f7084f5476618d8e60b11ef0d7d3f06914655adb8793e28ff7f018d4c76d505d584604051610454919061083a565b60405180910390a2505050565b60008173ffffffffffffffffffffffffffffffffffffffff166370a08231306040518263ffffffff1660e01b815260040161049c9190610790565b602060405180830381865afa1580156104b9573d6000803e3d6000fd5b505050506040513d601f19601f820116820180604052508101906104dd91906109ac565b9050919050565b6104ec6105dc565b73ffffffffffffffffffffffffffffffffffffffff1661050a6102e8565b73ffffffffffffffffffffffffffffffffffffffff1614610560576040517f08c379a0000000000000000000000000000000000000000000000000000000008152600401610557906108b2565b60405180910390fd5b600073ffffffffffffffffffffffffffffffffffffffff168173ffffffffffffffffffffffffffffffffffffffff1614156105d0576040517f08c379a00000000000000000000000000000000000000000000000000000000081526004016105c790610a4b565b60405180910390fd5b6105d9816105e4565b50565b600033905090565b60008060009054906101000a900473ffffffffffffffffffffffffffffffffffffffff169050816000806101000a81548173ffffffffffffffffffffffffffffffffffffffff021916908373ffffffffffffffffffffffffffffffffffffffff1602179055508173ffffffffffffffffffffffffffffffffffffffff168173ffffffffffffffffffffffffffffffffffffffff167f8be0079c531659141344cd1fd0a4f28419497f9722a3daafe3b4186f6b6457e060405160405180910390a35050565b600080fd5b6000819050919050565b6106c0816106ad565b81146106cb57600080fd5b50565b6000813590506106dd816106b7565b92915050565b600073ffffffffffffffffffffffffffffffffffffffff82169050919050565b600061070e826106e3565b9050919050565b61071e81610703565b811461072957600080fd5b50565b60008135905061073b81610715565b92915050565b60008060408385031215610758576107576106a8565b5b6000610766858286016106ce565b92505060206107778582860161072c565b9150509250929050565b61078a81610703565b82525050565b60006020820190506107a56000830184610781565b92915050565b6000806000606084860312156107c4576107c36106a8565b5b60006107d2868287016106ce565b93505060206107e38682870161072c565b92505060406107f48682870161072c565b9150509250925092565b600060208284031215610814576108136106a8565b5b60006108228482850161072c565b91505092915050565b610834816106ad565b82525050565b600060208201905061084f600083018461082b565b92915050565b600082825260208201905092915050565b7f4f776e61626c653a2063616c6c6572206973206e6f7420746865206f776e6572600082015250565b600061089c602083610855565b91506108a782610866565b602082019050919050565b600060208201905081810360008301526108cb8161088f565b9050919050565b60006040820190506108e76000830185610781565b6108f4602083018461082b565b9392505050565b60008115159050919050565b610910816108fb565b811461091b57600080fd5b50565b60008151905061092d81610907565b92915050565b600060208284031215610949576109486106a8565b5b60006109578482850161091e565b91505092915050565b60006060820190506109756000830186610781565b6109826020830185610781565b61098f604083018461082b565b949350505050565b6000815190506109a6816106b7565b92915050565b6000602082840312156109c2576109c16106a8565b5b60006109d084828501610997565b91505092915050565b7f4f776e61626c653a206e6577206f776e657220697320746865207a65726f206160008201527f6464726573730000000000000000000000000000000000000000000000000000602082015250565b6000610a35602683610855565b9150610a40826109d9565b604082019050919050565b60006020820190508181036000830152610a6481610a28565b905091905056fea2646970667358221220f68a0a2783c4a1383757a1f132f5a093c0e82775fb54bf4bf6b4c72c9d09baf664736f6c634300080a003360806040526000600560006101000a81548160ff0219169083151502179055503480156200002c57600080fd5b5060405162001f6138038062001f61833981810160405281019062000052919062000613565b818181600390805190602001906200006c92919062000326565b5080600490805190602001906200008592919062000326565b505050600085101580156200009957508585105b620000db576040517f08c379a0000000000000000000000000000000000000000000000000000000008152600401620000d2906200079a565b60405180910390fd5b620000fa838688620000ee9190620007eb565b6200013360201b60201c565b6200010c84866200013360201b60201c565b6001600560006101000a81548160ff021916908315150217905550505050505050620009fa565b600073ffffffffffffffffffffffffffffffffffffffff168273ffffffffffffffffffffffffffffffffffffffff161415620001a6576040517f08c379a00000000000000000000000000000000000000000000000000000000081526004016200019d9062000876565b60405180910390fd5b620001ba60008383620002ac60201b60201c565b8060026000828254620001ce919062000898565b92505081905550806000808473ffffffffffffffffffffffffffffffffffffffff1673ffffffffffffffffffffffffffffffffffffffff168152602001908152602001600020600082825462000225919062000898565b925050819055508173ffffffffffffffffffffffffffffffffffffffff16600073ffffffffffffffffffffffffffffffffffffffff167fddf252ad1be2c89b69c2b068fc378daa952ba7f163c4a11628f55a4df523b3ef836040516200028c919062000906565b60405180910390a3620002a8600083836200031c60201b60201c565b5050565b620002c48383836200032160201b620007561760201c565b600560009054906101000a900460ff161562000317576040517f08c379a00000000000000000000000000000000000000000000000000000000081526004016200030e9062000973565b60405180910390fd5b505050565b505050565b505050565b8280546200033490620009c4565b90600052602060002090601f016020900481019282620003585760008555620003a4565b82601f106200037357805160ff1916838001178555620003a4565b82800160010185558215620003a4579182015b82811115620003a357825182559160200191906001019062000386565b5b509050620003b39190620003b7565b5090565b5b80821115620003d2576000816000905550600101620003b8565b5090565b6000604051905090565b600080fd5b600080fd5b6000819050919050565b620003ff81620003ea565b81146200040b57600080fd5b50565b6000815190506200041f81620003f4565b92915050565b600073ffffffffffffffffffffffffffffffffffffffff82169050919050565b6000620004528262000425565b9050919050565b620004648162000445565b81146200047057600080fd5b50565b600081519050620004848162000459565b92915050565b600080fd5b600080fd5b6000601f19601f8301169050919050565b7f4e487b7100000000000000000000000000000000000000000000000000000000600052604160045260246000fd5b620004df8262000494565b810181811067ffffffffffffffff82111715620005015762000500620004a5565b5b80604052505050565b600062000516620003d6565b9050620005248282620004d4565b919050565b600067ffffffffffffffff821115620005475762000546620004a5565b5b620005528262000494565b9050602081019050919050565b60005b838110156200057f57808201518184015260208101905062000562565b838111156200058f576000848401525b50505050565b6000620005ac620005a68462000529565b6200050a565b905082815260208101848484011115620005cb57620005ca6200048f565b5b620005d88482856200055f565b509392505050565b600082601f830112620005f857620005f76200048a565b5b81516200060a84826020860162000595565b91505092915050565b60008060008060008060c08789031215620006335762000632620003e0565b5b60006200064389828a016200040e565b96505060206200065689828a016200040e565b95505060406200066989828a0162000473565b94505060606200067c89828a0162000473565b935050608087015167ffffffffffffffff811115620006a0576200069f620003e5565b5b620006ae89828a01620005e0565b92505060a087015167ffffffffffffffff811115620006d257620006d1620003e5565b5b620006e089828a01620005e0565b9150509295509295509295565b600082825260208201905092915050565b7f636f6e7472696275746f72416c6c6f636174696f6e206d75737420626520677260008201527f6561746572207468616e206f7220657175616c20746f203020616e64206c657360208201527f73207468616e20696e697469616c537570706c79000000000000000000000000604082015250565b600062000782605483620006ed565b91506200078f82620006fe565b606082019050919050565b60006020820190508181036000830152620007b58162000773565b9050919050565b7f4e487b7100000000000000000000000000000000000000000000000000000000600052601160045260246000fd5b6000620007f882620003ea565b91506200080583620003ea565b9250828210156200081b576200081a620007bc565b5b828203905092915050565b7f45524332303a206d696e7420746f20746865207a65726f206164647265737300600082015250565b60006200085e601f83620006ed565b91506200086b8262000826565b602082019050919050565b6000602082019050818103600083015262000891816200084f565b9050919050565b6000620008a582620003ea565b9150620008b283620003ea565b9250827fffffffffffffffffffffffffffffffffffffffffffffffffffffffffffffffff03821115620008ea57620008e9620007bc565b5b828201905092915050565b6200090081620003ea565b82525050565b60006020820190506200091d6000830184620008f5565b92915050565b7f44414f20746f6b656e206973206c6f636b656400000000000000000000000000600082015250565b60006200095b601383620006ed565b9150620009688262000923565b602082019050919050565b600060208201905081810360008301526200098e816200094c565b9050919050565b7f4e487b7100000000000000000000000000000000000000000000000000000000600052602260045260246000fd5b60006002820490506001821680620009dd57607f821691505b60208210811415620009f457620009f362000995565b5b50919050565b6115578062000a0a6000396000f3fe608060405234801561001057600080fd5b50600436106100cf5760003560e01c806370a082311161008c578063a69df4b511610066578063a69df4b51461023c578063a9059cbb14610246578063cf30901214610276578063dd62ed3e14610294576100cf565b806370a08231146101be57806395d89b41146101ee578063a457c2d71461020c576100cf565b806306fdde03146100d4578063095ea7b3146100f257806318160ddd1461012257806323b872dd14610140578063313ce56714610170578063395093511461018e575b600080fd5b6100dc6102c4565b6040516100e99190610d39565b60405180910390f35b61010c60048036038101906101079190610df4565b610356565b6040516101199190610e4f565b60405180910390f35b61012a610379565b6040516101379190610e79565b60405180910390f35b61015a60048036038101906101559190610e94565b610383565b6040516101679190610e4f565b60405180910390f35b6101786103b2565b6040516101859190610f03565b60405180910390f35b6101a860048036038101906101a39190610df4565b6103bb565b6040516101b59190610e4f565b60405180910390f35b6101d860048036038101906101d39190610f1e565b610465565b6040516101e59190610e79565b60405180910390f35b6101f66104ad565b6040516102039190610d39565b60405180910390f35b61022660048036038101906102219190610df4565b61053f565b6040516102339190610e4f565b60405180910390f35b610244610629565b005b610260600480360381019061025b9190610df4565b610695565b60405161026d9190610e4f565b60405180910390f35b61027e6106b8565b60405161028b9190610e4f565b60405180910390f35b6102ae60048036038101906102a99190610f4b565b6106cf565b6040516102bb9190610e79565b60405180910390f35b6060600380546102d390610fba565b80601f01602080910402602001604051908101604052809291908181526020018280546102ff90610fba565b801561034c5780601f106103215761010080835404028352916020019161034c565b820191906000526020600020905b81548152906001019060200180831161032f57829003601f168201915b5050505050905090565b60008061036161075b565b905061036e818585610763565b600191505092915050565b6000600254905090565b60008061038e61075b565b905061039b85828561092e565b6103a68585856109ba565b60019150509392505050565b60006012905090565b6000806103c661075b565b905061045a818585600160008673ffffffffffffffffffffffffffffffffffffffff1673ffffffffffffffffffffffffffffffffffffffff16815260200190815260200160002060008973ffffffffffffffffffffffffffffffffffffffff1673ffffffffffffffffffffffffffffffffffffffff16815260200190815260200160002054610455919061101b565b610763565b600191505092915050565b60008060008373ffffffffffffffffffffffffffffffffffffffff1673ffffffffffffffffffffffffffffffffffffffff168152602001908152602001600020549050919050565b6060600480546104bc90610fba565b80601f01602080910402602001604051908101604052809291908181526020018280546104e890610fba565b80156105355780601f1061050a57610100808354040283529160200191610535565b820191906000526020600020905b81548152906001019060200180831161051857829003601f168201915b5050505050905090565b60008061054a61075b565b90506000600160008373ffffffffffffffffffffffffffffffffffffffff1673ffffffffffffffffffffffffffffffffffffffff16815260200190815260200160002060008673ffffffffffffffffffffffffffffffffffffffff1673ffffffffffffffffffffffffffffffffffffffff16815260200190815260200160002054905083811015610610576040517f08c379a0000000000000000000000000000000000000000000000000000000008152600401610607906110e3565b60405180910390fd5b61061d8286868403610763565b60019250505092915050565b600560009054906101000a900460ff16610678576040517f08c379a000000000000000000000000000000000000000000000000000000000815260040161066f9061114f565b60405180910390fd5b6000600560006101000a81548160ff021916908315150217905550565b6000806106a061075b565b90506106ad8185856109ba565b600191505092915050565b6000600560009054906101000a900460ff16905090565b6000600160008473ffffffffffffffffffffffffffffffffffffffff1673ffffffffffffffffffffffffffffffffffffffff16815260200190815260200160002060008373ffffffffffffffffffffffffffffffffffffffff1673ffffffffffffffffffffffffffffffffffffffff16815260200190815260200160002054905092915050565b505050565b600033905090565b600073ffffffffffffffffffffffffffffffffffffffff168373ffffffffffffffffffffffffffffffffffffffff1614156107d3576040517f08c379a00000000000000000000000000000000000000000000000000000000081526004016107ca906111e1565b60405180910390fd5b600073ffffffffffffffffffffffffffffffffffffffff168273ffffffffffffffffffffffffffffffffffffffff161415610843576040517f08c379a000000000000000000000000000000000000000000000000000000000815260040161083a90611273565b60405180910390fd5b80600160008573ffffffffffffffffffffffffffffffffffffffff1673ffffffffffffffffffffffffffffffffffffffff16815260200190815260200160002060008473ffffffffffffffffffffffffffffffffffffffff1673ffffffffffffffffffffffffffffffffffffffff168152602001908152602001600020819055508173ffffffffffffffffffffffffffffffffffffffff168373ffffffffffffffffffffffffffffffffffffffff167f8c5be1e5ebec7d5bd14f71427d1e84f3dd0314c0f7b2291e5b200ac8c7c3b925836040516109219190610e79565b60405180910390a3505050565b600061093a84846106cf565b90507fffffffffffffffffffffffffffffffffffffffffffffffffffffffffffffffff81146109b457818110156109a6576040517f08c379a000000000000000000000000000000000000000000000000000000000815260040161099d906112df565b60405180910390fd5b6109b38484848403610763565b5b50505050565b600073ffffffffffffffffffffffffffffffffffffffff168373ffffffffffffffffffffffffffffffffffffffff161415610a2a576040517f08c379a0000000000000000000000000000000000000000000000000000000008152600401610a2190611371565b60405180910390fd5b600073ffffffffffffffffffffffffffffffffffffffff168273ffffffffffffffffffffffffffffffffffffffff161415610a9a576040517f08c379a0000000000000000000000000000000000000000000000000000000008152600401610a9190611403565b60405180910390fd5b610aa5838383610c3b565b60008060008573ffffffffffffffffffffffffffffffffffffffff1673ffffffffffffffffffffffffffffffffffffffff16815260200190815260200160002054905081811015610b2b576040517f08c379a0000000000000000000000000000000000000000000000000000000008152600401610b2290611495565b60405180910390fd5b8181036000808673ffffffffffffffffffffffffffffffffffffffff1673ffffffffffffffffffffffffffffffffffffffff16815260200190815260200160002081905550816000808573ffffffffffffffffffffffffffffffffffffffff1673ffffffffffffffffffffffffffffffffffffffff1681526020019081526020016000206000828254610bbe919061101b565b925050819055508273ffffffffffffffffffffffffffffffffffffffff168473ffffffffffffffffffffffffffffffffffffffff167fddf252ad1be2c89b69c2b068fc378daa952ba7f163c4a11628f55a4df523b3ef84604051610c229190610e79565b60405180910390a3610c35848484610c9b565b50505050565b610c46838383610756565b600560009054906101000a900460ff1615610c96576040517f08c379a0000000000000000000000000000000000000000000000000000000008152600401610c8d90611501565b60405180910390fd5b505050565b505050565b600081519050919050565b600082825260208201905092915050565b60005b83811015610cda578082015181840152602081019050610cbf565b83811115610ce9576000848401525b50505050565b6000601f19601f8301169050919050565b6000610d0b82610ca0565b610d158185610cab565b9350610d25818560208601610cbc565b610d2e81610cef565b840191505092915050565b60006020820190508181036000830152610d538184610d00565b905092915050565b600080fd5b600073ffffffffffffffffffffffffffffffffffffffff82169050919050565b6000610d8b82610d60565b9050919050565b610d9b81610d80565b8114610da657600080fd5b50565b600081359050610db881610d92565b92915050565b6000819050919050565b610dd181610dbe565b8114610ddc57600080fd5b50565b600081359050610dee81610dc8565b92915050565b60008060408385031215610e0b57610e0a610d5b565b5b6000610e1985828601610da9565b9250506020610e2a85828601610ddf565b9150509250929050565b60008115159050919050565b610e4981610e34565b82525050565b6000602082019050610e646000830184610e40565b92915050565b610e7381610dbe565b82525050565b6000602082019050610e8e6000830184610e6a565b92915050565b600080600060608486031215610ead57610eac610d5b565b5b6000610ebb86828701610da9565b9350506020610ecc86828701610da9565b9250506040610edd86828701610ddf565b9150509250925092565b600060ff82169050919050565b610efd81610ee7565b82525050565b6000602082019050610f186000830184610ef4565b92915050565b600060208284031215610f3457610f33610d5b565b5b6000610f4284828501610da9565b91505092915050565b60008060408385031215610f6257610f61610d5b565b5b6000610f7085828601610da9565b9250506020610f8185828601610da9565b9150509250929050565b7f4e487b7100000000000000000000000000000000000000000000000000000000600052602260045260246000fd5b60006002820490506001821680610fd257607f821691505b60208210811415610fe657610fe5610f8b565b5b50919050565b7f4e487b7100000000000000000000000000000000000000000000000000000000600052601160045260246000fd5b600061102682610dbe565b915061103183610dbe565b9250827fffffffffffffffffffffffffffffffffffffffffffffffffffffffffffffffff0382111561106657611065610fec565b5b828201905092915050565b7f45524332303a2064656372656173656420616c6c6f77616e63652062656c6f7760008201527f207a65726f000000000000000000000000000000000000000000000000000000602082015250565b60006110cd602583610cab565b91506110d882611071565b604082019050919050565b600060208201905081810360008301526110fc816110c0565b9050919050565b7f44414f20746f6b656e206973206e6f74206c6f636b6564000000000000000000600082015250565b6000611139601783610cab565b915061114482611103565b602082019050919050565b600060208201905081810360008301526111688161112c565b9050919050565b7f45524332303a20617070726f76652066726f6d20746865207a65726f2061646460008201527f7265737300000000000000000000000000000000000000000000000000000000602082015250565b60006111cb602483610cab565b91506111d68261116f565b604082019050919050565b600060208201905081810360008301526111fa816111be565b9050919050565b7f45524332303a20617070726f766520746f20746865207a65726f20616464726560008201527f7373000000000000000000000000000000000000000000000000000000000000602082015250565b600061125d602283610cab565b915061126882611201565b604082019050919050565b6000602082019050818103600083015261128c81611250565b9050919050565b7f45524332303a20696e73756666696369656e7420616c6c6f77616e6365000000600082015250565b60006112c9601d83610cab565b91506112d482611293565b602082019050919050565b600060208201905081810360008301526112f8816112bc565b9050919050565b7f45524332303a207472616e736665722066726f6d20746865207a65726f20616460008201527f6472657373000000000000000000000000000000000000000000000000000000602082015250565b600061135b602583610cab565b9150611366826112ff565b604082019050919050565b6000602082019050818103600083015261138a8161134e565b9050919050565b7f45524332303a207472616e7366657220746f20746865207a65726f206164647260008201527f6573730000000000000000000000000000000000000000000000000000000000602082015250565b60006113ed602383610cab565b91506113f882611391565b604082019050919050565b6000602082019050818103600083015261141c816113e0565b9050919050565b7f45524332303a207472616e7366657220616d6f756e742065786365656473206260008201527f616c616e63650000000000000000000000000000000000000000000000000000602082015250565b600061147f602683610cab565b915061148a82611423565b604082019050919050565b600060208201905081810360008301526114ae81611472565b9050919050565b7f44414f20746f6b656e206973206c6f636b656400000000000000000000000000600082015250565b60006114eb601383610cab565b91506114f6826114b5565b602082019050919050565b6000602082019050818103600083015261151a816114de565b905091905056fea264697066735822122039c3c1c5ffde6cd3f312dd86ebfe88af78d591b0cfc9a5ea7569f9baf993b1bc64736f6c634300080a003360806040523480156200001157600080fd5b50604051620029263803806200292683398181016040528101906200003791906200042f565b85858160039080519060200190620000519291906200017d565b5080600490805190602001906200006a9291906200017d565b50505081600560006101000a81548173ffffffffffffffffffffffffffffffffffffffff021916908373ffffffffffffffffffffffffffffffffffffffff16021790555083600660006101000a81548173ffffffffffffffffffffffffffffffffffffffff021916908373ffffffffffffffffffffffffffffffffffffffff16021790555082600760006101000a81548173ffffffffffffffffffffffffffffffffffffffff021916908373ffffffffffffffffffffffffffffffffffffffff16021790555080600860006101000a81548173ffffffffffffffffffffffffffffffffffffffff021916908373ffffffffffffffffffffffffffffffffffffffff1602179055505050505050506200056e565b8280546200018b9062000538565b90600052602060002090601f016020900481019282620001af5760008555620001fb565b82601f10620001ca57805160ff1916838001178555620001fb565b82800160010185558215620001fb579182015b82811115620001fa578251825591602001919060010190620001dd565b5b5090506200020a91906200020e565b5090565b5b80821115620002295760008160009055506001016200020f565b5090565b6000604051905090565b600080fd5b600080fd5b600080fd5b600080fd5b6000601f19601f8301169050919050565b7f4e487b7100000000000000000000000000000000000000000000000000000000600052604160045260246000fd5b62000296826200024b565b810181811067ffffffffffffffff82111715620002b857620002b76200025c565b5b80604052505050565b6000620002cd6200022d565b9050620002db82826200028b565b919050565b600067ffffffffffffffff821115620002fe57620002fd6200025c565b5b62000309826200024b565b9050602081019050919050565b60005b838110156200033657808201518184015260208101905062000319565b8381111562000346576000848401525b50505050565b6000620003636200035d84620002e0565b620002c1565b90508281526020810184848401111562000382576200038162000246565b5b6200038f84828562000316565b509392505050565b600082601f830112620003af57620003ae62000241565b5b8151620003c18482602086016200034c565b91505092915050565b600073ffffffffffffffffffffffffffffffffffffffff82169050919050565b6000620003f782620003ca565b9050919050565b6200040981620003ea565b81146200041557600080fd5b50565b6000815190506200042981620003fe565b92915050565b60008060008060008060c087890312156200044f576200044e62000237565b5b600087015167ffffffffffffffff81111562000470576200046f6200023c565b5b6200047e89828a0162000397565b965050602087015167ffffffffffffffff811115620004a257620004a16200023c565b5b620004b089828a0162000397565b9550506040620004c389828a0162000418565b9450506060620004d689828a0162000418565b9350506080620004e989828a0162000418565b92505060a0620004fc89828a0162000418565b9150509295509295509295565b7f4e487b7100000000000000000000000000000000000000000000000000000000600052602260045260246000fd5b600060028204905060018216806200055157607f821691505b6020821081141562000568576200056762000509565b5b50919050565b6123a8806200057e6000396000f3fe608060405234801561001057600080fd5b50600436106100f55760003560e01c806340c10f1911610097578063a9059cbb11610066578063a9059cbb1461029a578063b1a6627e146102ca578063dd62ed3e146102e6578063fbfa77cf14610316576100f5565b806340c10f191461020057806370a082311461021c57806395d89b411461024c578063a457c2d71461026a576100f5565b806323b872dd116100d357806323b872dd146101665780632d3dd0e614610196578063313ce567146101b257806339509351146101d0576100f5565b806306fdde03146100fa578063095ea7b31461011857806318160ddd14610148575b600080fd5b610102610334565b60405161010f9190611783565b60405180910390f35b610132600480360381019061012d919061183e565b6103c6565b60405161013f9190611899565b60405180910390f35b6101506103e9565b60405161015d91906118c3565b60405180910390f35b610180600480360381019061017b91906118de565b6103f3565b60405161018d9190611899565b60405180910390f35b6101b060048036038101906101ab9190611931565b610422565b005b6101ba610558565b6040516101c7919061197a565b60405180910390f35b6101ea60048036038101906101e5919061183e565b610561565b6040516101f79190611899565b60405180910390f35b61021a6004803603810190610215919061183e565b61060b565b005b61023660048036038101906102319190611995565b61072a565b60405161024391906118c3565b60405180910390f35b610254610772565b6040516102619190611783565b60405180910390f35b610284600480360381019061027f919061183e565b610804565b6040516102919190611899565b60405180910390f35b6102b460048036038101906102af919061183e565b6108ee565b6040516102c19190611899565b60405180910390f35b6102e460048036038101906102df9190611931565b610911565b005b61030060048036038101906102fb91906119c2565b610c1e565b60405161030d91906118c3565b60405180910390f35b61031e610ca5565b60405161032b9190611a61565b60405180910390f35b60606003805461034390611aab565b80601f016020809104026020016040519081016040528092919081815260200182805461036f90611aab565b80156103bc5780601f10610391576101008083540402835291602001916103bc565b820191906000526020600020905b81548152906001019060200180831161039f57829003601f168201915b5050505050905090565b6000806103d1610ccf565b90506103de818585610cd7565b600191505092915050565b6000600254905090565b6000806103fe610ccf565b905061040b858285610ea2565b610416858585610f2e565b60019150509392505050565b61044b60405180606001604052806022815260200161235160229139610446610ccf565b6111af565b61045c610456610ccf565b8261124b565b61049b6040518060400160405280601681526020017f5769746864726177696e6720636f6c6c61746572616c0000000000000000000081525082611422565b600860009054906101000a900473ffffffffffffffffffffffffffffffffffffffff1673ffffffffffffffffffffffffffffffffffffffff1663b460af9482600660009054906101000a900473ffffffffffffffffffffffffffffffffffffffff16610505610ccf565b6040518463ffffffff1660e01b815260040161052393929190611aec565b600060405180830381600087803b15801561053d57600080fd5b505af1158015610551573d6000803e3d6000fd5b5050505050565b60006012905090565b60008061056c610ccf565b9050610600818585600160008673ffffffffffffffffffffffffffffffffffffffff1673ffffffffffffffffffffffffffffffffffffffff16815260200190815260200160002060008973ffffffffffffffffffffffffffffffffffffffff1673ffffffffffffffffffffffffffffffffffffffff168152602001908152602001600020546105fb9190611b52565b610cd7565b600191505092915050565b61062d6040518060600160405280602881526020016123296028913982611422565b600860009054906101000a900473ffffffffffffffffffffffffffffffffffffffff1673ffffffffffffffffffffffffffffffffffffffff16636e553f6582600660009054906101000a900473ffffffffffffffffffffffffffffffffffffffff166040518363ffffffff1660e01b81526004016106ac929190611ba8565b600060405180830381600087803b1580156106c657600080fd5b505af11580156106da573d6000803e3d6000fd5b5050505061071c6040518060400160405280601081526020017f4d696e74696e672070726f6d69736573000000000000000000000000000000008152506114be565b6107268282611557565b5050565b60008060008373ffffffffffffffffffffffffffffffffffffffff1673ffffffffffffffffffffffffffffffffffffffff168152602001908152602001600020549050919050565b60606004805461078190611aab565b80601f01602080910402602001604051908101604052809291908181526020018280546107ad90611aab565b80156107fa5780601f106107cf576101008083540402835291602001916107fa565b820191906000526020600020905b8154815290600101906020018083116107dd57829003601f168201915b5050505050905090565b60008061080f610ccf565b90506000600160008373ffffffffffffffffffffffffffffffffffffffff1673ffffffffffffffffffffffffffffffffffffffff16815260200190815260200160002060008673ffffffffffffffffffffffffffffffffffffffff1673ffffffffffffffffffffffffffffffffffffffff168152602001908152602001600020549050838110156108d5576040517f08c379a00000000000000000000000000000000000000000000000000000000081526004016108cc90611c43565b60405180910390fd5b6108e28286868403610cd7565b60019250505092915050565b6000806108f9610ccf565b9050610906818585610f2e565b600191505092915050565b61093a60405180606001604052806022815260200161230760229139610935610ccf565b6111af565b61094b610945610ccf565b8261124b565b61098a6040518060400160405280602081526020017f5769746864726177696e672064616f20746f6b656e20746f2063616c6c65722081525082611422565b60006109946103e9565b600860009054906101000a900473ffffffffffffffffffffffffffffffffffffffff1673ffffffffffffffffffffffffffffffffffffffff1663e3a9db1a600760009054906101000a900473ffffffffffffffffffffffffffffffffffffffff166040518263ffffffff1660e01b8152600401610a119190611c63565b602060405180830381865afa158015610a2e573d6000803e3d6000fd5b505050506040513d601f19601f82011682018060405250810190610a529190611c93565b83610a5d9190611cc0565b610a679190611d49565b9050600860009054906101000a900473ffffffffffffffffffffffffffffffffffffffff1673ffffffffffffffffffffffffffffffffffffffff1663b460af9482600760009054906101000a900473ffffffffffffffffffffffffffffffffffffffff16610ad3610ccf565b6040518463ffffffff1660e01b8152600401610af193929190611aec565b600060405180830381600087803b158015610b0b57600080fd5b505af1158015610b1f573d6000803e3d6000fd5b50505050610b456040518060600160405280602281526020016122e56022913983611422565b600860009054906101000a900473ffffffffffffffffffffffffffffffffffffffff1673ffffffffffffffffffffffffffffffffffffffff1663b460af9483600660009054906101000a900473ffffffffffffffffffffffffffffffffffffffff16600560009054906101000a900473ffffffffffffffffffffffffffffffffffffffff166040518463ffffffff1660e01b8152600401610be893929190611aec565b600060405180830381600087803b158015610c0257600080fd5b505af1158015610c16573d6000803e3d6000fd5b505050505050565b6000600160008473ffffffffffffffffffffffffffffffffffffffff1673ffffffffffffffffffffffffffffffffffffffff16815260200190815260200160002060008373ffffffffffffffffffffffffffffffffffffffff1673ffffffffffffffffffffffffffffffffffffffff16815260200190815260200160002054905092915050565b6000600860009054906101000a900473ffffffffffffffffffffffffffffffffffffffff16905090565b600033905090565b600073ffffffffffffffffffffffffffffffffffffffff168373ffffffffffffffffffffffffffffffffffffffff161415610d47576040517f08c379a0000000000000000000000000000000000000000000000000000000008152600401610d3e90611dec565b60405180910390fd5b600073ffffffffffffffffffffffffffffffffffffffff168273ffffffffffffffffffffffffffffffffffffffff161415610db7576040517f08c379a0000000000000000000000000000000000000000000000000000000008152600401610dae90611e7e565b60405180910390fd5b80600160008573ffffffffffffffffffffffffffffffffffffffff1673ffffffffffffffffffffffffffffffffffffffff16815260200190815260200160002060008473ffffffffffffffffffffffffffffffffffffffff1673ffffffffffffffffffffffffffffffffffffffff168152602001908152602001600020819055508173ffffffffffffffffffffffffffffffffffffffff168373ffffffffffffffffffffffffffffffffffffffff167f8c5be1e5ebec7d5bd14f71427d1e84f3dd0314c0f7b2291e5b200ac8c7c3b92583604051610e9591906118c3565b60405180910390a3505050565b6000610eae8484610c1e565b90507fffffffffffffffffffffffffffffffffffffffffffffffffffffffffffffffff8114610f285781811015610f1a576040517f08c379a0000000000000000000000000000000000000000000000000000000008152600401610f1190611eea565b60405180910390fd5b610f278484848403610cd7565b5b50505050565b600073ffffffffffffffffffffffffffffffffffffffff168373ffffffffffffffffffffffffffffffffffffffff161415610f9e576040517f08c379a0000000000000000000000000000000000000000000000000000000008152600401610f9590611f7c565b60405180910390fd5b600073ffffffffffffffffffffffffffffffffffffffff168273ffffffffffffffffffffffffffffffffffffffff16141561100e576040517f08c379a00000000000000000000000000000000000000000000000000000000081526004016110059061200e565b60405180910390fd5b6110198383836116b7565b60008060008573ffffffffffffffffffffffffffffffffffffffff1673ffffffffffffffffffffffffffffffffffffffff1681526020019081526020016000205490508181101561109f576040517f08c379a0000000000000000000000000000000000000000000000000000000008152600401611096906120a0565b60405180910390fd5b8181036000808673ffffffffffffffffffffffffffffffffffffffff1673ffffffffffffffffffffffffffffffffffffffff16815260200190815260200160002081905550816000808573ffffffffffffffffffffffffffffffffffffffff1673ffffffffffffffffffffffffffffffffffffffff16815260200190815260200160002060008282546111329190611b52565b925050819055508273ffffffffffffffffffffffffffffffffffffffff168473ffffffffffffffffffffffffffffffffffffffff167fddf252ad1be2c89b69c2b068fc378daa952ba7f163c4a11628f55a4df523b3ef8460405161119691906118c3565b60405180910390a36111a98484846116bc565b50505050565b61124782826040516024016111c59291906120c0565b6040516020818303038152906040527f319af333000000000000000000000000000000000000000000000000000000007bffffffffffffffffffffffffffffffffffffffffffffffffffffffff19166020820180517bffffffffffffffffffffffffffffffffffffffffffffffffffffffff83818316178352505050506116c1565b5050565b600073ffffffffffffffffffffffffffffffffffffffff168273ffffffffffffffffffffffffffffffffffffffff1614156112bb576040517f08c379a00000000000000000000000000000000000000000000000000000000081526004016112b290612162565b60405180910390fd5b6112c7826000836116b7565b60008060008473ffffffffffffffffffffffffffffffffffffffff1673ffffffffffffffffffffffffffffffffffffffff1681526020019081526020016000205490508181101561134d576040517f08c379a0000000000000000000000000000000000000000000000000000000008152600401611344906121f4565b60405180910390fd5b8181036000808573ffffffffffffffffffffffffffffffffffffffff1673ffffffffffffffffffffffffffffffffffffffff1681526020019081526020016000208190555081600260008282546113a49190612214565b92505081905550600073ffffffffffffffffffffffffffffffffffffffff168373ffffffffffffffffffffffffffffffffffffffff167fddf252ad1be2c89b69c2b068fc378daa952ba7f163c4a11628f55a4df523b3ef8460405161140991906118c3565b60405180910390a361141d836000846116bc565b505050565b6114ba8282604051602401611438929190612248565b6040516020818303038152906040527f9710a9d0000000000000000000000000000000000000000000000000000000007bffffffffffffffffffffffffffffffffffffffffffffffffffffffff19166020820180517bffffffffffffffffffffffffffffffffffffffffffffffffffffffff83818316178352505050506116c1565b5050565b611554816040516024016114d29190611783565b6040516020818303038152906040527f41304fac000000000000000000000000000000000000000000000000000000007bffffffffffffffffffffffffffffffffffffffffffffffffffffffff19166020820180517bffffffffffffffffffffffffffffffffffffffffffffffffffffffff83818316178352505050506116c1565b50565b600073ffffffffffffffffffffffffffffffffffffffff168273ffffffffffffffffffffffffffffffffffffffff1614156115c7576040517f08c379a00000000000000000000000000000000000000000000000000000000081526004016115be906122c4565b60405180910390fd5b6115d3600083836116b7565b80600260008282546115e59190611b52565b92505081905550806000808473ffffffffffffffffffffffffffffffffffffffff1673ffffffffffffffffffffffffffffffffffffffff168152602001908152602001600020600082825461163a9190611b52565b925050819055508173ffffffffffffffffffffffffffffffffffffffff16600073ffffffffffffffffffffffffffffffffffffffff167fddf252ad1be2c89b69c2b068fc378daa952ba7f163c4a11628f55a4df523b3ef8360405161169f91906118c3565b60405180910390a36116b3600083836116bc565b5050565b505050565b505050565b60008151905060006a636f6e736f6c652e6c6f679050602083016000808483855afa5050505050565b600081519050919050565b600082825260208201905092915050565b60005b83811015611724578082015181840152602081019050611709565b83811115611733576000848401525b50505050565b6000601f19601f8301169050919050565b6000611755826116ea565b61175f81856116f5565b935061176f818560208601611706565b61177881611739565b840191505092915050565b6000602082019050818103600083015261179d818461174a565b905092915050565b600080fd5b600073ffffffffffffffffffffffffffffffffffffffff82169050919050565b60006117d5826117aa565b9050919050565b6117e5816117ca565b81146117f057600080fd5b50565b600081359050611802816117dc565b92915050565b6000819050919050565b61181b81611808565b811461182657600080fd5b50565b60008135905061183881611812565b92915050565b60008060408385031215611855576118546117a5565b5b6000611863858286016117f3565b925050602061187485828601611829565b9150509250929050565b60008115159050919050565b6118938161187e565b82525050565b60006020820190506118ae600083018461188a565b92915050565b6118bd81611808565b82525050565b60006020820190506118d860008301846118b4565b92915050565b6000806000606084860312156118f7576118f66117a5565b5b6000611905868287016117f3565b9350506020611916868287016117f3565b925050604061192786828701611829565b9150509250925092565b600060208284031215611947576119466117a5565b5b600061195584828501611829565b91505092915050565b600060ff82169050919050565b6119748161195e565b82525050565b600060208201905061198f600083018461196b565b92915050565b6000602082840312156119ab576119aa6117a5565b5b60006119b9848285016117f3565b91505092915050565b600080604083850312156119d9576119d86117a5565b5b60006119e7858286016117f3565b92505060206119f8858286016117f3565b9150509250929050565b6000819050919050565b6000611a27611a22611a1d846117aa565b611a02565b6117aa565b9050919050565b6000611a3982611a0c565b9050919050565b6000611a4b82611a2e565b9050919050565b611a5b81611a40565b82525050565b6000602082019050611a766000830184611a52565b92915050565b7f4e487b7100000000000000000000000000000000000000000000000000000000600052602260045260246000fd5b60006002820490506001821680611ac357607f821691505b60208210811415611ad757611ad6611a7c565b5b50919050565b611ae6816117ca565b82525050565b6000606082019050611b0160008301866118b4565b611b0e6020830185611add565b611b1b6040830184611add565b949350505050565b7f4e487b7100000000000000000000000000000000000000000000000000000000600052601160045260246000fd5b6000611b5d82611808565b9150611b6883611808565b9250827fffffffffffffffffffffffffffffffffffffffffffffffffffffffffffffffff03821115611b9d57611b9c611b23565b5b828201905092915050565b6000604082019050611bbd60008301856118b4565b611bca6020830184611add565b9392505050565b7f45524332303a2064656372656173656420616c6c6f77616e63652062656c6f7760008201527f207a65726f000000000000000000000000000000000000000000000000000000602082015250565b6000611c2d6025836116f5565b9150611c3882611bd1565b604082019050919050565b60006020820190508181036000830152611c5c81611c20565b9050919050565b6000602082019050611c786000830184611add565b92915050565b600081519050611c8d81611812565b92915050565b600060208284031215611ca957611ca86117a5565b5b6000611cb784828501611c7e565b91505092915050565b6000611ccb82611808565b9150611cd683611808565b9250817fffffffffffffffffffffffffffffffffffffffffffffffffffffffffffffffff0483118215151615611d0f57611d0e611b23565b5b828202905092915050565b7f4e487b7100000000000000000000000000000000000000000000000000000000600052601260045260246000fd5b6000611d5482611808565b9150611d5f83611808565b925082611d6f57611d6e611d1a565b5b828204905092915050565b7f45524332303a20617070726f76652066726f6d20746865207a65726f2061646460008201527f7265737300000000000000000000000000000000000000000000000000000000602082015250565b6000611dd66024836116f5565b9150611de182611d7a565b604082019050919050565b60006020820190508181036000830152611e0581611dc9565b9050919050565b7f45524332303a20617070726f766520746f20746865207a65726f20616464726560008201527f7373000000000000000000000000000000000000000000000000000000000000602082015250565b6000611e686022836116f5565b9150611e7382611e0c565b604082019050919050565b60006020820190508181036000830152611e9781611e5b565b9050919050565b7f45524332303a20696e73756666696369656e7420616c6c6f77616e6365000000600082015250565b6000611ed4601d836116f5565b9150611edf82611e9e565b602082019050919050565b60006020820190508181036000830152611f0381611ec7565b9050919050565b7f45524332303a207472616e736665722066726f6d20746865207a65726f20616460008201527f6472657373000000000000000000000000000000000000000000000000000000602082015250565b6000611f666025836116f5565b9150611f7182611f0a565b604082019050919050565b60006020820190508181036000830152611f9581611f59565b9050919050565b7f45524332303a207472616e7366657220746f20746865207a65726f206164647260008201527f6573730000000000000000000000000000000000000000000000000000000000602082015250565b6000611ff86023836116f5565b915061200382611f9c565b604082019050919050565b6000602082019050818103600083015261202781611feb565b9050919050565b7f45524332303a207472616e7366657220616d6f756e742065786365656473206260008201527f616c616e63650000000000000000000000000000000000000000000000000000602082015250565b600061208a6026836116f5565b91506120958261202e565b604082019050919050565b600060208201905081810360008301526120b98161207d565b9050919050565b600060408201905081810360008301526120da818561174a565b90506120e96020830184611add565b9392505050565b7f45524332303a206275726e2066726f6d20746865207a65726f2061646472657360008201527f7300000000000000000000000000000000000000000000000000000000000000602082015250565b600061214c6021836116f5565b9150612157826120f0565b604082019050919050565b6000602082019050818103600083015261217b8161213f565b9050919050565b7f45524332303a206275726e20616d6f756e7420657863656564732062616c616e60008201527f6365000000000000000000000000000000000000000000000000000000000000602082015250565b60006121de6022836116f5565b91506121e982612182565b604082019050919050565b6000602082019050818103600083015261220d816121d1565b9050919050565b600061221f82611808565b915061222a83611808565b92508282101561223d5761223c611b23565b5b828203905092915050565b60006040820190508181036000830152612262818561174a565b905061227160208301846118b4565b9392505050565b7f45524332303a206d696e7420746f20746865207a65726f206164647265737300600082015250565b60006122ae601f836116f5565b91506122b982612278565b602082019050919050565b600060208201905081810360008301526122dd816122a1565b905091905056fe5769746864726177696e6720636f6c6c61746572616c20746f2074726561737572794275726e696e672070726f6d6973657320666f722064616f20746f6b656e73206f664465706f736974696e6720636f6c6c61746572616c20746f207661756c74206f6620616d6f756e744275726e696e672070726f6d6973657320666f7220636f6c6c61746572616c206f66a2646970667358221220605d4a60d91eb296f4f665dde2f8548168fff7dcfa4741ea81bf0a13f050f1e464736f6c634300080a0033a2646970667358221220ef780d52ee59371a6313be74ab7297387db63a5ecf9dc417045090a4d33fc0ab64736f6c634300080a0033",
  "linkReferences": {},
  "deployedLinkReferences": {}
}