{
  "_format": "hh-sol-artifact-1",
  "contractName": "Hub",
  "sourceName": "contracts/Hub.sol",
  "abi": [
    {
      "inputs": [],
      "stateMutability": "nonpayable",
      "type": "constructor"
    },
    {
      "anonymous": false,
      "inputs": [
        {
          "indexed": false,
          "internalType": "uint256",
          "name": "daoId",
          "type": "uint256"
        },
        {
          "indexed": false,
          "internalType": "address",
          "name": "contributor",
          "type": "address"
        },
        {
          "indexed": false,
          "internalType": "address",
          "name": "fundedBy",
          "type": "address"
        },
        {
          "indexed": false,
          "internalType": "uint256",
          "name": "amount",
          "type": "uint256"
        }
      ],
      "name": "ContributorFunded",
      "type": "event"
    },
    {
      "anonymous": false,
      "inputs": [
        {
          "indexed": false,
          "internalType": "uint256",
          "name": "daoId",
          "type": "uint256"
        },
        {
          "indexed": false,
          "internalType": "address",
          "name": "_daoToken",
          "type": "address"
        },
        {
          "indexed": false,
          "internalType": "address",
          "name": "_collateralToken",
          "type": "address"
        },
        {
          "indexed": false,
          "internalType": "address",
          "name": "_treasury",
          "type": "address"
        },
        {
          "indexed": false,
          "internalType": "address",
          "name": "_vault",
          "type": "address"
        }
      ],
      "name": "DAOLaunch",
      "type": "event"
    },
    {
      "anonymous": false,
      "inputs": [
        {
          "indexed": false,
          "internalType": "uint256",
          "name": "daoId",
          "type": "uint256"
        },
        {
          "indexed": false,
          "internalType": "address",
          "name": "burnedBy",
          "type": "address"
        },
        {
          "indexed": false,
          "internalType": "uint256",
          "name": "amount",
          "type": "uint256"
        }
      ],
      "name": "TokenBurnedForCollateral",
      "type": "event"
    },
    {
      "anonymous": false,
      "inputs": [
        {
          "indexed": false,
          "internalType": "uint256",
          "name": "daoId",
          "type": "uint256"
        },
        {
          "indexed": false,
          "internalType": "address",
          "name": "burnedBy",
          "type": "address"
        },
        {
          "indexed": false,
          "internalType": "uint256",
          "name": "amount",
          "type": "uint256"
        }
      ],
      "name": "TokenBurnedForDaoTokens",
      "type": "event"
    },
    {
      "anonymous": false,
      "inputs": [
        {
          "indexed": false,
          "internalType": "uint256",
          "name": "daoId",
          "type": "uint256"
        },
        {
          "indexed": false,
          "internalType": "address",
          "name": "unlockedBy",
          "type": "address"
        }
      ],
      "name": "TokenUnlock",
      "type": "event"
    },
    {
      "inputs": [
        {
          "internalType": "uint256",
          "name": "daoId",
          "type": "uint256"
        },
        {
          "internalType": "uint256",
          "name": "amount",
          "type": "uint256"
        }
      ],
      "name": "burnTokenForCollateral",
      "outputs": [],
      "stateMutability": "nonpayable",
      "type": "function"
    },
    {
      "inputs": [
        {
          "internalType": "uint256",
          "name": "daoId",
          "type": "uint256"
        },
        {
          "internalType": "uint256",
          "name": "amount",
          "type": "uint256"
        }
      ],
      "name": "burnTokenForDAOToken",
      "outputs": [],
      "stateMutability": "nonpayable",
      "type": "function"
    },
    {
      "inputs": [
        {
          "internalType": "uint256",
          "name": "daoId",
          "type": "uint256"
        },
        {
          "internalType": "address",
          "name": "to",
          "type": "address"
        },
        {
          "internalType": "uint256",
          "name": "amount",
          "type": "uint256"
        }
      ],
      "name": "fundContributor",
      "outputs": [],
      "stateMutability": "nonpayable",
      "type": "function"
    },
    {
      "inputs": [
        {
          "internalType": "uint256",
          "name": "daoId",
          "type": "uint256"
        }
      ],
      "name": "getCollateralLockedAmount",
      "outputs": [
        {
          "internalType": "uint256",
          "name": "",
          "type": "uint256"
        }
      ],
      "stateMutability": "view",
      "type": "function"
    },
    {
      "inputs": [
        {
          "internalType": "uint256",
          "name": "daoId",
          "type": "uint256"
        }
      ],
      "name": "getCollateralTokenAddress",
      "outputs": [
        {
          "internalType": "address",
          "name": "",
          "type": "address"
        }
      ],
      "stateMutability": "view",
      "type": "function"
    },
    {
      "inputs": [
        {
          "internalType": "uint256",
          "name": "daoId",
          "type": "uint256"
        },
        {
          "internalType": "address",
          "name": "contributor",
          "type": "address"
        }
      ],
      "name": "getContributorClaimToDaoTokens",
      "outputs": [
        {
          "internalType": "uint256",
          "name": "",
          "type": "uint256"
        }
      ],
      "stateMutability": "view",
      "type": "function"
    },
    {
      "inputs": [
        {
          "internalType": "uint256",
          "name": "daoId",
          "type": "uint256"
        }
      ],
      "name": "getDaoTokenAddress",
      "outputs": [
        {
          "internalType": "address",
          "name": "",
          "type": "address"
        }
      ],
      "stateMutability": "view",
      "type": "function"
    },
    {
      "inputs": [
        {
          "internalType": "uint256",
          "name": "daoId",
          "type": "uint256"
        }
      ],
      "name": "getDaoTokenAllocationAmountTowardsContributors",
      "outputs": [
        {
          "internalType": "uint256",
          "name": "",
          "type": "uint256"
        }
      ],
      "stateMutability": "view",
      "type": "function"
    },
    {
      "inputs": [
        {
          "internalType": "uint256",
          "name": "daoId",
          "type": "uint256"
        }
      ],
      "name": "getDaoTokenAllocationPercentageTowardsContributors",
      "outputs": [
        {
          "internalType": "uint256",
          "name": "",
          "type": "uint256"
        }
      ],
      "stateMutability": "view",
      "type": "function"
    },
    {
      "inputs": [
        {
          "internalType": "uint256",
          "name": "daoId",
          "type": "uint256"
        }
      ],
      "name": "getDaoTokenTotalSupply",
      "outputs": [
        {
          "internalType": "uint256",
          "name": "",
          "type": "uint256"
        }
      ],
      "stateMutability": "view",
      "type": "function"
    },
    {
      "inputs": [
        {
          "internalType": "uint256",
          "name": "daoId",
          "type": "uint256"
        }
      ],
      "name": "getPromiseTokenAddress",
      "outputs": [
        {
          "internalType": "address",
          "name": "",
          "type": "address"
        }
      ],
      "stateMutability": "view",
      "type": "function"
    },
    {
      "inputs": [
        {
          "internalType": "uint256",
          "name": "daoId",
          "type": "uint256"
        }
      ],
      "name": "getPromiseTokensTotalSuppy",
      "outputs": [
        {
          "internalType": "uint256",
          "name": "",
          "type": "uint256"
        }
      ],
      "stateMutability": "view",
      "type": "function"
    },
    {
      "inputs": [
        {
          "internalType": "uint256",
          "name": "daoId",
          "type": "uint256"
        }
      ],
      "name": "getVaultAddress",
      "outputs": [
        {
          "internalType": "address",
          "name": "",
          "type": "address"
        }
      ],
      "stateMutability": "view",
      "type": "function"
    },
    {
      "inputs": [
        {
          "internalType": "uint256",
          "name": "daoId",
          "type": "uint256"
        }
      ],
      "name": "isLockedDaoToken",
      "outputs": [
        {
          "internalType": "bool",
          "name": "",
          "type": "bool"
        }
      ],
      "stateMutability": "view",
      "type": "function"
    },
    {
      "inputs": [
        {
          "internalType": "uint256",
          "name": "initialSupply",
          "type": "uint256"
        },
        {
          "internalType": "uint256",
          "name": "contributorAllocation",
          "type": "uint256"
        },
        {
          "internalType": "address",
          "name": "collateralToken",
          "type": "address"
        },
        {
          "internalType": "string",
          "name": "name",
          "type": "string"
        },
        {
          "internalType": "string",
          "name": "symbol",
          "type": "string"
        }
      ],
      "name": "launchDAO",
      "outputs": [
        {
          "internalType": "uint256",
          "name": "",
          "type": "uint256"
        }
      ],
      "stateMutability": "nonpayable",
      "type": "function"
    },
    {
      "inputs": [
        {
          "internalType": "uint256",
          "name": "daoId",
          "type": "uint256"
        }
      ],
      "name": "unlockDAOTokens",
      "outputs": [],
      "stateMutability": "nonpayable",
      "type": "function"
    }
  ],
  "bytecode": "0x6080604052600060045534801561001557600080fd5b506195c9806100256000396000f3fe60806040523480156200001157600080fd5b5060043610620001185760003560e01c8063aa7fbea611620000a5578063dbfda2db116200006f578063dbfda2db1462000379578063e5724a001462000399578063e6bd26a214620003cf578063fbe5e3ed14620004055762000118565b8063aa7fbea614620002a1578063b6c039bc14620002d7578063b8db2b36146200030d578063c89701c314620003435762000118565b8063523ef86011620000e7578063523ef86014620001c9578063568dff4c14620001ff5780637e2b39591462000235578063809ea548146200026b5762000118565b8063052682a1146200011d5780631725b891146200013d5780632ebcc47a14620001735780634aee985b1462000193575b600080fd5b6200013b6004803603810190620001359190620014ae565b62000425565b005b6200015b60048036038101906200015591906200150a565b62000512565b6040516200016a91906200154d565b60405180910390f35b6200019160048036038101906200018b91906200156a565b620005e5565b005b620001b16004803603810190620001ab91906200150a565b620006ca565b604051620001c09190620015c2565b60405180910390f35b620001e76004803603810190620001e191906200150a565b62000707565b604051620001f691906200154d565b60405180910390f35b6200021d600480360381019062000217919062001741565b62000866565b6040516200022c91906200154d565b60405180910390f35b6200025360048036038101906200024d91906200150a565b62000bc6565b6040516200026291906200154d565b60405180910390f35b62000289600480360381019062000283919062001807565b62000c74565b6040516200029891906200154d565b60405180910390f35b620002bf6004803603810190620002b991906200150a565b62000d5e565b604051620002ce91906200154d565b60405180910390f35b620002f56004803603810190620002ef91906200150a565b62000e0c565b604051620003049190620015c2565b60405180910390f35b6200032b60048036038101906200032591906200150a565b62000e49565b6040516200033a9190620015c2565b60405180910390f35b6200036160048036038101906200035b91906200150a565b62000e86565b6040516200037091906200154d565b60405180910390f35b6200039760048036038101906200039191906200150a565b62000fe5565b005b620003b76004803603810190620003b191906200150a565b620010b8565b604051620003c691906200186b565b60405180910390f35b620003ed6004803603810190620003e791906200150a565b62001166565b604051620003fc9190620015c2565b60405180910390f35b6200042360048036038101906200041d91906200156a565b62001214565b005b6001600084815260200190815260200160002060009054906101000a900473ffffffffffffffffffffffffffffffffffffffff1673ffffffffffffffffffffffffffffffffffffffff16633c173a4f83833360006040518563ffffffff1660e01b81526004016200049a9493929190620018d5565b600060405180830381600087803b158015620004b557600080fd5b505af1158015620004ca573d6000803e3d6000fd5b505050507f376ffa8369610d23d61f09ae1b3bdee6520fa471e111efe118cde75e91733ca48383338460405162000505949392919062001922565b60405180910390a1505050565b60006002600083815260200190815260200160002060009054906101000a900473ffffffffffffffffffffffffffffffffffffffff1673ffffffffffffffffffffffffffffffffffffffff166318160ddd6040518163ffffffff1660e01b8152600401602060405180830381865afa15801562000593573d6000803e3d6000fd5b505050506040513d601f19601f82011682018060405250810190620005b9919062001986565b6064620005c68462000707565b620005d29190620019e7565b620005de919062001a77565b9050919050565b6001600083815260200190815260200160002060009054906101000a900473ffffffffffffffffffffffffffffffffffffffff1673ffffffffffffffffffffffffffffffffffffffff16637d78a46782336040518363ffffffff1660e01b81526004016200065592919062001aaf565b600060405180830381600087803b1580156200067057600080fd5b505af115801562000685573d6000803e3d6000fd5b505050507f54a018029c06d8961fde20f929646a546c0b6a7b46b2192b85fb9f48fe299ae2823383604051620006be9392919062001adc565b60405180910390a15050565b60006003600083815260200190815260200160002060009054906101000a900473ffffffffffffffffffffffffffffffffffffffff169050919050565b60006001600083815260200190815260200160002060009054906101000a900473ffffffffffffffffffffffffffffffffffffffff1673ffffffffffffffffffffffffffffffffffffffff1663fbfa77cf6040518163ffffffff1660e01b8152600401602060405180830381865afa15801562000788573d6000803e3d6000fd5b505050506040513d601f19601f82011682018060405250810190620007ae919062001b5e565b73ffffffffffffffffffffffffffffffffffffffff1663e3a9db1a6002600085815260200190815260200160002060009054906101000a900473ffffffffffffffffffffffffffffffffffffffff166040518263ffffffff1660e01b81526004016200081b9190620015c2565b602060405180830381865afa15801562000839573d6000803e3d6000fd5b505050506040513d601f19601f820116820180604052508101906200085f919062001986565b9050919050565b60006001600460008282546200087d919062001b90565b9250508190555060006040516200089490620013c2565b604051809103906000f080158015620008b1573d6000803e3d6000fd5b509050620008f56040518060400160405280601281526020017f547265617375727920616464726573733a20000000000000000000000000000081525082620012f9565b60006040516200090590620013d0565b604051809103906000f08015801562000922573d6000803e3d6000fd5b50905060008888838589896040516200093b90620013de565b6200094c9695949392919062001c80565b604051809103906000f08015801562000969573d6000803e3d6000fd5b50905060008686898487876040516200098290620013ec565b620009939695949392919062001cfb565b604051809103906000f080158015620009b0573d6000803e3d6000fd5b5090508273ffffffffffffffffffffffffffffffffffffffff1663f2fde38b826040518263ffffffff1660e01b8152600401620009ee9190620015c2565b600060405180830381600087803b15801562000a0957600080fd5b505af115801562000a1e573d6000803e3d6000fd5b5050505083600080600454815260200190815260200160002060006101000a81548173ffffffffffffffffffffffffffffffffffffffff021916908373ffffffffffffffffffffffffffffffffffffffff1602179055508060016000600454815260200190815260200160002060006101000a81548173ffffffffffffffffffffffffffffffffffffffff021916908373ffffffffffffffffffffffffffffffffffffffff1602179055508160026000600454815260200190815260200160002060006101000a81548173ffffffffffffffffffffffffffffffffffffffff021916908373ffffffffffffffffffffffffffffffffffffffff1602179055508760036000600454815260200190815260200160002060006101000a81548173ffffffffffffffffffffffffffffffffffffffff021916908373ffffffffffffffffffffffffffffffffffffffff1602179055507f1bc85f782fd3722c12db3054ab29284a744cd771910e6dc30b216831c62e2b52600454838a878760405162000bac95949392919062001d76565b60405180910390a160045494505050505095945050505050565b60006001600083815260200190815260200160002060009054906101000a900473ffffffffffffffffffffffffffffffffffffffff1673ffffffffffffffffffffffffffffffffffffffff166318160ddd6040518163ffffffff1660e01b8152600401602060405180830381865afa15801562000c47573d6000803e3d6000fd5b505050506040513d601f19601f8201168201806040525081019062000c6d919062001986565b9050919050565b600062000c818362000bc6565b62000c8c8462000707565b6001600086815260200190815260200160002060009054906101000a900473ffffffffffffffffffffffffffffffffffffffff1673ffffffffffffffffffffffffffffffffffffffff166370a08231856040518263ffffffff1660e01b815260040162000cfa9190620015c2565b602060405180830381865afa15801562000d18573d6000803e3d6000fd5b505050506040513d601f19601f8201168201806040525081019062000d3e919062001986565b62000d4a9190620019e7565b62000d56919062001a77565b905092915050565b60006002600083815260200190815260200160002060009054906101000a900473ffffffffffffffffffffffffffffffffffffffff1673ffffffffffffffffffffffffffffffffffffffff166318160ddd6040518163ffffffff1660e01b8152600401602060405180830381865afa15801562000ddf573d6000803e3d6000fd5b505050506040513d601f19601f8201168201806040525081019062000e05919062001986565b9050919050565b60006001600083815260200190815260200160002060009054906101000a900473ffffffffffffffffffffffffffffffffffffffff169050919050565b60006002600083815260200190815260200160002060009054906101000a900473ffffffffffffffffffffffffffffffffffffffff169050919050565b60006001600083815260200190815260200160002060009054906101000a900473ffffffffffffffffffffffffffffffffffffffff1673ffffffffffffffffffffffffffffffffffffffff1663fbfa77cf6040518163ffffffff1660e01b8152600401602060405180830381865afa15801562000f07573d6000803e3d6000fd5b505050506040513d601f19601f8201168201806040525081019062000f2d919062001b5e565b73ffffffffffffffffffffffffffffffffffffffff1663e3a9db1a6003600085815260200190815260200160002060009054906101000a900473ffffffffffffffffffffffffffffffffffffffff166040518263ffffffff1660e01b815260040162000f9a9190620015c2565b602060405180830381865afa15801562000fb8573d6000803e3d6000fd5b505050506040513d601f19601f8201168201806040525081019062000fde919062001986565b9050919050565b6002600082815260200190815260200160002060009054906101000a900473ffffffffffffffffffffffffffffffffffffffff1673ffffffffffffffffffffffffffffffffffffffff1663a69df4b56040518163ffffffff1660e01b8152600401600060405180830381600087803b1580156200106157600080fd5b505af115801562001076573d6000803e3d6000fd5b505050507f9cb62521fa942fcb358f09f584fde02bd2da8b2060bd17d861065afac056628e8133604051620010ad92919062001aaf565b60405180910390a150565b60006002600083815260200190815260200160002060009054906101000a900473ffffffffffffffffffffffffffffffffffffffff1673ffffffffffffffffffffffffffffffffffffffff1663cf3090126040518163ffffffff1660e01b8152600401602060405180830381865afa15801562001139573d6000803e3d6000fd5b505050506040513d601f19601f820116820180604052508101906200115f919062001e04565b9050919050565b60006001600083815260200190815260200160002060009054906101000a900473ffffffffffffffffffffffffffffffffffffffff1673ffffffffffffffffffffffffffffffffffffffff1663fbfa77cf6040518163ffffffff1660e01b8152600401602060405180830381865afa158015620011e7573d6000803e3d6000fd5b505050506040513d601f19601f820116820180604052508101906200120d919062001b5e565b9050919050565b6001600083815260200190815260200160002060009054906101000a900473ffffffffffffffffffffffffffffffffffffffff1673ffffffffffffffffffffffffffffffffffffffff16636190e91d82336040518363ffffffff1660e01b81526004016200128492919062001aaf565b600060405180830381600087803b1580156200129f57600080fd5b505af1158015620012b4573d6000803e3d6000fd5b505050507f54a018029c06d8961fde20f929646a546c0b6a7b46b2192b85fb9f48fe299ae2823383604051620012ed9392919062001adc565b60405180910390a15050565b6200139582826040516024016200131292919062001e36565b6040516020818303038152906040527f319af333000000000000000000000000000000000000000000000000000000007bffffffffffffffffffffffffffffffffffffffffffffffffffffffff19166020820180517bffffffffffffffffffffffffffffffffffffffffffffffffffffffff838183161783525050505062001399565b5050565b60008151905060006a636f6e736f6c652e6c6f679050602083016000808483855afa5050505050565b611d8e8062001e6b83390190565b610b488062003bf983390190565b612214806200474183390190565b612c3f806200695583390190565b6000604051905090565b600080fd5b600080fd5b6000819050919050565b62001423816200140e565b81146200142f57600080fd5b50565b600081359050620014438162001418565b92915050565b600073ffffffffffffffffffffffffffffffffffffffff82169050919050565b6000620014768262001449565b9050919050565b620014888162001469565b81146200149457600080fd5b50565b600081359050620014a8816200147d565b92915050565b600080600060608486031215620014ca57620014c962001404565b5b6000620014da8682870162001432565b9350506020620014ed8682870162001497565b9250506040620015008682870162001432565b9150509250925092565b60006020828403121562001523576200152262001404565b5b6000620015338482850162001432565b91505092915050565b62001547816200140e565b82525050565b60006020820190506200156460008301846200153c565b92915050565b6000806040838503121562001584576200158362001404565b5b6000620015948582860162001432565b9250506020620015a78582860162001432565b9150509250929050565b620015bc8162001469565b82525050565b6000602082019050620015d96000830184620015b1565b92915050565b600080fd5b600080fd5b6000601f19601f8301169050919050565b7f4e487b7100000000000000000000000000000000000000000000000000000000600052604160045260246000fd5b6200163482620015e9565b810181811067ffffffffffffffff82111715620016565762001655620015fa565b5b80604052505050565b60006200166b620013fa565b905062001679828262001629565b919050565b600067ffffffffffffffff8211156200169c576200169b620015fa565b5b620016a782620015e9565b9050602081019050919050565b82818337600083830152505050565b6000620016da620016d4846200167e565b6200165f565b905082815260208101848484011115620016f957620016f8620015e4565b5b62001706848285620016b4565b509392505050565b600082601f830112620017265762001725620015df565b5b813562001738848260208601620016c3565b91505092915050565b600080600080600060a0868803121562001760576200175f62001404565b5b6000620017708882890162001432565b9550506020620017838882890162001432565b9450506040620017968882890162001497565b935050606086013567ffffffffffffffff811115620017ba57620017b962001409565b5b620017c8888289016200170e565b925050608086013567ffffffffffffffff811115620017ec57620017eb62001409565b5b620017fa888289016200170e565b9150509295509295909350565b6000806040838503121562001821576200182062001404565b5b6000620018318582860162001432565b9250506020620018448582860162001497565b9150509250929050565b60008115159050919050565b62001865816200184e565b82525050565b60006020820190506200188260008301846200185a565b92915050565b6000819050919050565b6000819050919050565b6000620018bd620018b7620018b18462001888565b62001892565b6200140e565b9050919050565b620018cf816200189c565b82525050565b6000608082019050620018ec6000830187620015b1565b620018fb60208301866200153c565b6200190a6040830185620015b1565b620019196060830184620018c4565b95945050505050565b60006080820190506200193960008301876200153c565b620019486020830186620015b1565b620019576040830185620015b1565b6200196660608301846200153c565b95945050505050565b600081519050620019808162001418565b92915050565b6000602082840312156200199f576200199e62001404565b5b6000620019af848285016200196f565b91505092915050565b7f4e487b7100000000000000000000000000000000000000000000000000000000600052601160045260246000fd5b6000620019f4826200140e565b915062001a01836200140e565b9250817fffffffffffffffffffffffffffffffffffffffffffffffffffffffffffffffff048311821515161562001a3d5762001a3c620019b8565b5b828202905092915050565b7f4e487b7100000000000000000000000000000000000000000000000000000000600052601260045260246000fd5b600062001a84826200140e565b915062001a91836200140e565b92508262001aa45762001aa362001a48565b5b828204905092915050565b600060408201905062001ac660008301856200153c565b62001ad56020830184620015b1565b9392505050565b600060608201905062001af360008301866200153c565b62001b026020830185620015b1565b62001b1160408301846200153c565b949350505050565b600062001b268262001469565b9050919050565b62001b388162001b19565b811462001b4457600080fd5b50565b60008151905062001b588162001b2d565b92915050565b60006020828403121562001b775762001b7662001404565b5b600062001b878482850162001b47565b91505092915050565b600062001b9d826200140e565b915062001baa836200140e565b9250827fffffffffffffffffffffffffffffffffffffffffffffffffffffffffffffffff0382111562001be25762001be1620019b8565b5b828201905092915050565b600081519050919050565b600082825260208201905092915050565b60005b8381101562001c2957808201518184015260208101905062001c0c565b8381111562001c39576000848401525b50505050565b600062001c4c8262001bed565b62001c58818562001bf8565b935062001c6a81856020860162001c09565b62001c7581620015e9565b840191505092915050565b600060c08201905062001c9760008301896200153c565b62001ca660208301886200153c565b62001cb56040830187620015b1565b62001cc46060830186620015b1565b818103608083015262001cd8818562001c3f565b905081810360a083015262001cee818462001c3f565b9050979650505050505050565b600060c082019050818103600083015262001d17818962001c3f565b9050818103602083015262001d2d818862001c3f565b905062001d3e6040830187620015b1565b62001d4d6060830186620015b1565b62001d5c6080830185620015b1565b62001d6b60a0830184620015b1565b979650505050505050565b600060a08201905062001d8d60008301886200153c565b62001d9c6020830187620015b1565b62001dab6040830186620015b1565b62001dba6060830185620015b1565b62001dc96080830184620015b1565b9695505050505050565b62001dde816200184e565b811462001dea57600080fd5b50565b60008151905062001dfe8162001dd3565b92915050565b60006020828403121562001e1d5762001e1c62001404565b5b600062001e2d8482850162001ded565b91505092915050565b6000604082019050818103600083015262001e52818562001c3f565b905062001e636020830184620015b1565b939250505056fe60806040523480156200001157600080fd5b5060008060006101000a81548160ff0219169083151502179055506200004c620000406200011f60201b60201c565b6200012760201b60201c565b6001806000620000616200011f60201b60201c565b73ffffffffffffffffffffffffffffffffffffffff1673ffffffffffffffffffffffffffffffffffffffff16815260200190815260200160002060006101000a81548160ff021916908315150217905550600160026000620000c86200011f60201b60201c565b73ffffffffffffffffffffffffffffffffffffffff1673ffffffffffffffffffffffffffffffffffffffff16815260200190815260200160002060006101000a81548160ff021916908315150217905550620001ec565b600033905090565b60008060019054906101000a900473ffffffffffffffffffffffffffffffffffffffff16905081600060016101000a81548173ffffffffffffffffffffffffffffffffffffffff021916908373ffffffffffffffffffffffffffffffffffffffff1602179055508173ffffffffffffffffffffffffffffffffffffffff168173ffffffffffffffffffffffffffffffffffffffff167f8be0079c531659141344cd1fd0a4f28419497f9722a3daafe3b4186f6b6457e060405160405180910390a35050565b611b9280620001fc6000396000f3fe608060405234801561001057600080fd5b50600436106100f55760003560e01c80638da5cb5b11610097578063e3d670d711610066578063e3d670d714610210578063f2fde38b14610240578063f3ae24151461025c578063f45346dc1461028c576100f5565b80638da5cb5b1461019e578063ac18de43146101bc578063d9caed12146101d8578063dcd18dd4146101f4576100f5565b80633f4ba83a116100d35780633f4ba83a146101625780635c975abb1461016c578063715018a61461018a5780638456cb5914610194576100f5565b80631bbe9d8c146100fa5780631ea48870146101165780632d06177a14610146575b600080fd5b610114600480360381019061010f91906112d6565b6102a8565b005b610130600480360381019061012b91906112d6565b6103c4565b60405161013d919061131e565b60405180910390f35b610160600480360381019061015b91906112d6565b61041a565b005b61016a610535565b005b610174610590565b604051610181919061131e565b60405180910390f35b6101926105a6565b005b61019c61062e565b005b6101a6610689565b6040516101b39190611348565b60405180910390f35b6101d660048036038101906101d191906112d6565b6106b2565b005b6101f260048036038101906101ed9190611399565b6107ce565b005b61020e600480360381019061020991906112d6565b6109a1565b005b61022a600480360381019061022591906112d6565b610abd565b60405161023791906113fb565b60405180910390f35b61025a600480360381019061025591906112d6565b610b40565b005b610276600480360381019061027191906112d6565b610c38565b604051610283919061131e565b60405180910390f35b6102a660048036038101906102a19190611416565b610c8e565b005b33600115156102b682610c38565b1515146102f8576040517f08c379a00000000000000000000000000000000000000000000000000000000081526004016102ef906114c6565b60405180910390fd5b600073ffffffffffffffffffffffffffffffffffffffff168273ffffffffffffffffffffffffffffffffffffffff161415610368576040517f08c379a000000000000000000000000000000000000000000000000000000000815260040161035f90611532565b60405180910390fd5b6001600260008473ffffffffffffffffffffffffffffffffffffffff1673ffffffffffffffffffffffffffffffffffffffff16815260200190815260200160002060006101000a81548160ff0219169083151502179055505050565b6000600260008373ffffffffffffffffffffffffffffffffffffffff1673ffffffffffffffffffffffffffffffffffffffff16815260200190815260200160002060009054906101000a900460ff169050919050565b336001151561042882610c38565b15151461046a576040517f08c379a0000000000000000000000000000000000000000000000000000000008152600401610461906114c6565b60405180910390fd5b600073ffffffffffffffffffffffffffffffffffffffff168273ffffffffffffffffffffffffffffffffffffffff1614156104da576040517f08c379a00000000000000000000000000000000000000000000000000000000081526004016104d19061159e565b60405180910390fd5b60018060008473ffffffffffffffffffffffffffffffffffffffff1673ffffffffffffffffffffffffffffffffffffffff16815260200190815260200160002060006101000a81548160ff0219169083151502179055505050565b336001151561054382610c38565b151514610585576040517f08c379a000000000000000000000000000000000000000000000000000000000815260040161057c906114c6565b60405180910390fd5b61058d610d60565b50565b60008060009054906101000a900460ff16905090565b6105ae610e01565b73ffffffffffffffffffffffffffffffffffffffff166105cc610689565b73ffffffffffffffffffffffffffffffffffffffff1614610622576040517f08c379a00000000000000000000000000000000000000000000000000000000081526004016106199061160a565b60405180910390fd5b61062c6000610e09565b565b336001151561063c82610c38565b15151461067e576040517f08c379a0000000000000000000000000000000000000000000000000000000008152600401610675906114c6565b60405180910390fd5b610686610ece565b50565b60008060019054906101000a900473ffffffffffffffffffffffffffffffffffffffff16905090565b33600115156106c082610c38565b151514610702576040517f08c379a00000000000000000000000000000000000000000000000000000000081526004016106f9906114c6565b60405180910390fd5b600073ffffffffffffffffffffffffffffffffffffffff168273ffffffffffffffffffffffffffffffffffffffff161415610772576040517f08c379a00000000000000000000000000000000000000000000000000000000081526004016107699061159e565b60405180910390fd5b6000600160008473ffffffffffffffffffffffffffffffffffffffff1673ffffffffffffffffffffffffffffffffffffffff16815260200190815260200160002060006101000a81548160ff0219169083151502179055505050565b33600115156107dc82610c38565b15151461081e576040517f08c379a0000000000000000000000000000000000000000000000000000000008152600401610815906114c6565b60405180910390fd5b610826610590565b15610866576040517f08c379a000000000000000000000000000000000000000000000000000000000815260040161085d90611676565b60405180910390fd5b8273ffffffffffffffffffffffffffffffffffffffff166370a08231306040518263ffffffff1660e01b815260040161089f9190611348565b602060405180830381865afa1580156108bc573d6000803e3d6000fd5b505050506040513d601f19601f820116820180604052508101906108e091906116ab565b821115610922576040517f08c379a000000000000000000000000000000000000000000000000000000000815260040161091990611724565b60405180910390fd5b61094d84838573ffffffffffffffffffffffffffffffffffffffff16610f709092919063ffffffff16565b8373ffffffffffffffffffffffffffffffffffffffff167f7084f5476618d8e60b11ef0d7d3f06914655adb8793e28ff7f018d4c76d505d58360405161099391906113fb565b60405180910390a250505050565b33600115156109af82610c38565b1515146109f1576040517f08c379a00000000000000000000000000000000000000000000000000000000081526004016109e8906114c6565b60405180910390fd5b600073ffffffffffffffffffffffffffffffffffffffff168273ffffffffffffffffffffffffffffffffffffffff161415610a61576040517f08c379a0000000000000000000000000000000000000000000000000000000008152600401610a5890611532565b60405180910390fd5b6000600260008473ffffffffffffffffffffffffffffffffffffffff1673ffffffffffffffffffffffffffffffffffffffff16815260200190815260200160002060006101000a81548160ff0219169083151502179055505050565b60008173ffffffffffffffffffffffffffffffffffffffff166370a08231306040518263ffffffff1660e01b8152600401610af89190611348565b602060405180830381865afa158015610b15573d6000803e3d6000fd5b505050506040513d601f19601f82011682018060405250810190610b3991906116ab565b9050919050565b610b48610e01565b73ffffffffffffffffffffffffffffffffffffffff16610b66610689565b73ffffffffffffffffffffffffffffffffffffffff1614610bbc576040517f08c379a0000000000000000000000000000000000000000000000000000000008152600401610bb39061160a565b60405180910390fd5b600073ffffffffffffffffffffffffffffffffffffffff168173ffffffffffffffffffffffffffffffffffffffff161415610c2c576040517f08c379a0000000000000000000000000000000000000000000000000000000008152600401610c23906117b6565b60405180910390fd5b610c3581610e09565b50565b6000600160008373ffffffffffffffffffffffffffffffffffffffff1673ffffffffffffffffffffffffffffffffffffffff16815260200190815260200160002060009054906101000a900460ff169050919050565b8073ffffffffffffffffffffffffffffffffffffffff1663a9059cbb30846040518363ffffffff1660e01b8152600401610cc99291906117d6565b6020604051808303816000875af1158015610ce8573d6000803e3d6000fd5b505050506040513d601f19601f82011682018060405250810190610d0c919061182b565b508273ffffffffffffffffffffffffffffffffffffffff167f2da466a7b24304f47e87fa2e1e5a81b9831ce54fec19055ce277ca2f39ba42c483604051610d5391906113fb565b60405180910390a2505050565b610d68610590565b610da7576040517f08c379a0000000000000000000000000000000000000000000000000000000008152600401610d9e906118a4565b60405180910390fd5b60008060006101000a81548160ff0219169083151502179055507f5db9ee0a495bf2e6ff9c91a7834c1ba4fdd244a5e8aa4e537bd38aeae4b073aa610dea610e01565b604051610df79190611348565b60405180910390a1565b600033905090565b60008060019054906101000a900473ffffffffffffffffffffffffffffffffffffffff16905081600060016101000a81548173ffffffffffffffffffffffffffffffffffffffff021916908373ffffffffffffffffffffffffffffffffffffffff1602179055508173ffffffffffffffffffffffffffffffffffffffff168173ffffffffffffffffffffffffffffffffffffffff167f8be0079c531659141344cd1fd0a4f28419497f9722a3daafe3b4186f6b6457e060405160405180910390a35050565b610ed6610590565b15610f16576040517f08c379a0000000000000000000000000000000000000000000000000000000008152600401610f0d90611676565b60405180910390fd5b60016000806101000a81548160ff0219169083151502179055507f62e78cea01bee320cd4e420270b5ea74000d11b0c9f74754ebdbfc544b05a258610f59610e01565b604051610f669190611348565b60405180910390a1565b610ff18363a9059cbb60e01b8484604051602401610f8f9291906117d6565b604051602081830303815290604052907bffffffffffffffffffffffffffffffffffffffffffffffffffffffff19166020820180517bffffffffffffffffffffffffffffffffffffffffffffffffffffffff8381831617835250505050610ff6565b505050565b6000611058826040518060400160405280602081526020017f5361666545524332303a206c6f772d6c6576656c2063616c6c206661696c65648152508573ffffffffffffffffffffffffffffffffffffffff166110bd9092919063ffffffff16565b90506000815111156110b85780806020019051810190611078919061182b565b6110b7576040517f08c379a00000000000000000000000000000000000000000000000000000000081526004016110ae90611936565b60405180910390fd5b5b505050565b60606110cc84846000856110d5565b90509392505050565b60608247101561111a576040517f08c379a0000000000000000000000000000000000000000000000000000000008152600401611111906119c8565b60405180910390fd5b611123856111e9565b611162576040517f08c379a000000000000000000000000000000000000000000000000000000000815260040161115990611a34565b60405180910390fd5b6000808673ffffffffffffffffffffffffffffffffffffffff16858760405161118b9190611ace565b60006040518083038185875af1925050503d80600081146111c8576040519150601f19603f3d011682016040523d82523d6000602084013e6111cd565b606091505b50915091506111dd82828661120c565b92505050949350505050565b6000808273ffffffffffffffffffffffffffffffffffffffff163b119050919050565b6060831561121c5782905061126c565b60008351111561122f5782518084602001fd5b816040517f08c379a00000000000000000000000000000000000000000000000000000000081526004016112639190611b3a565b60405180910390fd5b9392505050565b600080fd5b600073ffffffffffffffffffffffffffffffffffffffff82169050919050565b60006112a382611278565b9050919050565b6112b381611298565b81146112be57600080fd5b50565b6000813590506112d0816112aa565b92915050565b6000602082840312156112ec576112eb611273565b5b60006112fa848285016112c1565b91505092915050565b60008115159050919050565b61131881611303565b82525050565b6000602082019050611333600083018461130f565b92915050565b61134281611298565b82525050565b600060208201905061135d6000830184611339565b92915050565b6000819050919050565b61137681611363565b811461138157600080fd5b50565b6000813590506113938161136d565b92915050565b6000806000606084860312156113b2576113b1611273565b5b60006113c0868287016112c1565b93505060206113d1868287016112c1565b92505060406113e286828701611384565b9150509250925092565b6113f581611363565b82525050565b600060208201905061141060008301846113ec565b92915050565b60008060006060848603121561142f5761142e611273565b5b600061143d868287016112c1565b935050602061144e86828701611384565b925050604061145f868287016112c1565b9150509250925092565b600082825260208201905092915050565b7f4e6f742061206d616e6167657200000000000000000000000000000000000000600082015250565b60006114b0600d83611469565b91506114bb8261147a565b602082019050919050565b600060208201905081810360008301526114df816114a3565b9050919050565b7f496e76616c69642066756e646572206164647265737300000000000000000000600082015250565b600061151c601683611469565b9150611527826114e6565b602082019050919050565b6000602082019050818103600083015261154b8161150f565b9050919050565b7f496e76616c6964206d616e616765722061646472657373000000000000000000600082015250565b6000611588601783611469565b915061159382611552565b602082019050919050565b600060208201905081810360008301526115b78161157b565b9050919050565b7f4f776e61626c653a2063616c6c6572206973206e6f7420746865206f776e6572600082015250565b60006115f4602083611469565b91506115ff826115be565b602082019050919050565b60006020820190508181036000830152611623816115e7565b9050919050565b7f5061757361626c653a2070617573656400000000000000000000000000000000600082015250565b6000611660601083611469565b915061166b8261162a565b602082019050919050565b6000602082019050818103600083015261168f81611653565b9050919050565b6000815190506116a58161136d565b92915050565b6000602082840312156116c1576116c0611273565b5b60006116cf84828501611696565b91505092915050565b7f4e6f20776974686472617761626c652062616c616e6365000000000000000000600082015250565b600061170e601783611469565b9150611719826116d8565b602082019050919050565b6000602082019050818103600083015261173d81611701565b9050919050565b7f4f776e61626c653a206e6577206f776e657220697320746865207a65726f206160008201527f6464726573730000000000000000000000000000000000000000000000000000602082015250565b60006117a0602683611469565b91506117ab82611744565b604082019050919050565b600060208201905081810360008301526117cf81611793565b9050919050565b60006040820190506117eb6000830185611339565b6117f860208301846113ec565b9392505050565b61180881611303565b811461181357600080fd5b50565b600081519050611825816117ff565b92915050565b60006020828403121561184157611840611273565b5b600061184f84828501611816565b91505092915050565b7f5061757361626c653a206e6f7420706175736564000000000000000000000000600082015250565b600061188e601483611469565b915061189982611858565b602082019050919050565b600060208201905081810360008301526118bd81611881565b9050919050565b7f5361666545524332303a204552433230206f7065726174696f6e20646964206e60008201527f6f74207375636365656400000000000000000000000000000000000000000000602082015250565b6000611920602a83611469565b915061192b826118c4565b604082019050919050565b6000602082019050818103600083015261194f81611913565b9050919050565b7f416464726573733a20696e73756666696369656e742062616c616e636520666f60008201527f722063616c6c0000000000000000000000000000000000000000000000000000602082015250565b60006119b2602683611469565b91506119bd82611956565b604082019050919050565b600060208201905081810360008301526119e1816119a5565b9050919050565b7f416464726573733a2063616c6c20746f206e6f6e2d636f6e7472616374000000600082015250565b6000611a1e601d83611469565b9150611a29826119e8565b602082019050919050565b60006020820190508181036000830152611a4d81611a11565b9050919050565b600081519050919050565b600081905092915050565b60005b83811015611a88578082015181840152602081019050611a6d565b83811115611a97576000848401525b50505050565b6000611aa882611a54565b611ab28185611a5f565b9350611ac2818560208601611a6a565b80840191505092915050565b6000611ada8284611a9d565b915081905092915050565b600081519050919050565b6000601f19601f8301169050919050565b6000611b0c82611ae5565b611b168185611469565b9350611b26818560208601611a6a565b611b2f81611af0565b840191505092915050565b60006020820190508181036000830152611b548184611b01565b90509291505056fea26469706673582212206d5698233c859bf09dd3b350d2cac5220a3a85ab86cc8139f76285bafcbd3d0a64736f6c634300080a0033608060405234801561001057600080fd5b5061002d61002261003260201b60201c565b61003a60201b60201c565b6100fe565b600033905090565b60008060009054906101000a900473ffffffffffffffffffffffffffffffffffffffff169050816000806101000a81548173ffffffffffffffffffffffffffffffffffffffff021916908373ffffffffffffffffffffffffffffffffffffffff1602179055508173ffffffffffffffffffffffffffffffffffffffff168173ffffffffffffffffffffffffffffffffffffffff167f8be0079c531659141344cd1fd0a4f28419497f9722a3daafe3b4186f6b6457e060405160405180910390a35050565b610a3b8061010d6000396000f3fe608060405234801561001057600080fd5b50600436106100625760003560e01c80632e2d298414610067578063715018a6146100835780638da5cb5b1461008d578063b460af94146100ab578063e3a9db1a146100c7578063f2fde38b146100f7575b600080fd5b610081600480360381019061007c9190610744565b610113565b005b61008b610263565b005b6100956102eb565b6040516100a291906107a6565b60405180910390f35b6100c560048036038101906100c09190610744565b610314565b005b6100e160048036038101906100dc91906107c1565b610464565b6040516100ee91906107fd565b60405180910390f35b610111600480360381019061010c91906107c1565b6104e7565b005b61011b6105df565b73ffffffffffffffffffffffffffffffffffffffff166101396102eb565b73ffffffffffffffffffffffffffffffffffffffff161461018f576040517f08c379a000000000000000000000000000000000000000000000000000000000815260040161018690610875565b60405180910390fd5b8173ffffffffffffffffffffffffffffffffffffffff166323b872dd8230866040518463ffffffff1660e01b81526004016101cc93929190610895565b6020604051808303816000875af11580156101eb573d6000803e3d6000fd5b505050506040513d601f19601f8201168201806040525081019061020f9190610904565b508173ffffffffffffffffffffffffffffffffffffffff167f2da466a7b24304f47e87fa2e1e5a81b9831ce54fec19055ce277ca2f39ba42c48460405161025691906107fd565b60405180910390a2505050565b61026b6105df565b73ffffffffffffffffffffffffffffffffffffffff166102896102eb565b73ffffffffffffffffffffffffffffffffffffffff16146102df576040517f08c379a00000000000000000000000000000000000000000000000000000000081526004016102d690610875565b60405180910390fd5b6102e960006105e7565b565b60008060009054906101000a900473ffffffffffffffffffffffffffffffffffffffff16905090565b61031c6105df565b73ffffffffffffffffffffffffffffffffffffffff1661033a6102eb565b73ffffffffffffffffffffffffffffffffffffffff1614610390576040517f08c379a000000000000000000000000000000000000000000000000000000000815260040161038790610875565b60405180910390fd5b8173ffffffffffffffffffffffffffffffffffffffff166323b872dd3083866040518463ffffffff1660e01b81526004016103cd93929190610895565b6020604051808303816000875af11580156103ec573d6000803e3d6000fd5b505050506040513d601f19601f820116820180604052508101906104109190610904565b508173ffffffffffffffffffffffffffffffffffffffff167f7084f5476618d8e60b11ef0d7d3f06914655adb8793e28ff7f018d4c76d505d58460405161045791906107fd565b60405180910390a2505050565b60008173ffffffffffffffffffffffffffffffffffffffff166370a08231306040518263ffffffff1660e01b815260040161049f91906107a6565b602060405180830381865afa1580156104bc573d6000803e3d6000fd5b505050506040513d601f19601f820116820180604052508101906104e09190610946565b9050919050565b6104ef6105df565b73ffffffffffffffffffffffffffffffffffffffff1661050d6102eb565b73ffffffffffffffffffffffffffffffffffffffff1614610563576040517f08c379a000000000000000000000000000000000000000000000000000000000815260040161055a90610875565b60405180910390fd5b600073ffffffffffffffffffffffffffffffffffffffff168173ffffffffffffffffffffffffffffffffffffffff1614156105d3576040517f08c379a00000000000000000000000000000000000000000000000000000000081526004016105ca906109e5565b60405180910390fd5b6105dc816105e7565b50565b600033905090565b60008060009054906101000a900473ffffffffffffffffffffffffffffffffffffffff169050816000806101000a81548173ffffffffffffffffffffffffffffffffffffffff021916908373ffffffffffffffffffffffffffffffffffffffff1602179055508173ffffffffffffffffffffffffffffffffffffffff168173ffffffffffffffffffffffffffffffffffffffff167f8be0079c531659141344cd1fd0a4f28419497f9722a3daafe3b4186f6b6457e060405160405180910390a35050565b600080fd5b6000819050919050565b6106c3816106b0565b81146106ce57600080fd5b50565b6000813590506106e0816106ba565b92915050565b600073ffffffffffffffffffffffffffffffffffffffff82169050919050565b6000610711826106e6565b9050919050565b61072181610706565b811461072c57600080fd5b50565b60008135905061073e81610718565b92915050565b60008060006060848603121561075d5761075c6106ab565b5b600061076b868287016106d1565b935050602061077c8682870161072f565b925050604061078d8682870161072f565b9150509250925092565b6107a081610706565b82525050565b60006020820190506107bb6000830184610797565b92915050565b6000602082840312156107d7576107d66106ab565b5b60006107e58482850161072f565b91505092915050565b6107f7816106b0565b82525050565b600060208201905061081260008301846107ee565b92915050565b600082825260208201905092915050565b7f4f776e61626c653a2063616c6c6572206973206e6f7420746865206f776e6572600082015250565b600061085f602083610818565b915061086a82610829565b602082019050919050565b6000602082019050818103600083015261088e81610852565b9050919050565b60006060820190506108aa6000830186610797565b6108b76020830185610797565b6108c460408301846107ee565b949350505050565b60008115159050919050565b6108e1816108cc565b81146108ec57600080fd5b50565b6000815190506108fe816108d8565b92915050565b60006020828403121561091a576109196106ab565b5b6000610928848285016108ef565b91505092915050565b600081519050610940816106ba565b92915050565b60006020828403121561095c5761095b6106ab565b5b600061096a84828501610931565b91505092915050565b7f4f776e61626c653a206e6577206f776e657220697320746865207a65726f206160008201527f6464726573730000000000000000000000000000000000000000000000000000602082015250565b60006109cf602683610818565b91506109da82610973565b604082019050919050565b600060208201905081810360008301526109fe816109c2565b905091905056fea2646970667358221220292956c0fbc96f4970faca7a30f395178e246581aad0e82ae9a992876b0c633664736f6c634300080a003360806040526000600560006101000a81548160ff0219169083151502179055503480156200002c57600080fd5b506040516200221438038062002214833981810160405281019062000052919062000613565b818181600390805190602001906200006c92919062000326565b5080600490805190602001906200008592919062000326565b505050600085101580156200009957508585105b620000db576040517f08c379a0000000000000000000000000000000000000000000000000000000008152600401620000d2906200079a565b60405180910390fd5b620000fa838688620000ee9190620007eb565b6200013360201b60201c565b6200010c84866200013360201b60201c565b6001600560006101000a81548160ff021916908315150217905550505050505050620009fa565b600073ffffffffffffffffffffffffffffffffffffffff168273ffffffffffffffffffffffffffffffffffffffff161415620001a6576040517f08c379a00000000000000000000000000000000000000000000000000000000081526004016200019d9062000876565b60405180910390fd5b620001ba60008383620002ac60201b60201c565b8060026000828254620001ce919062000898565b92505081905550806000808473ffffffffffffffffffffffffffffffffffffffff1673ffffffffffffffffffffffffffffffffffffffff168152602001908152602001600020600082825462000225919062000898565b925050819055508173ffffffffffffffffffffffffffffffffffffffff16600073ffffffffffffffffffffffffffffffffffffffff167fddf252ad1be2c89b69c2b068fc378daa952ba7f163c4a11628f55a4df523b3ef836040516200028c919062000906565b60405180910390a3620002a8600083836200031c60201b60201c565b5050565b620002c48383836200032160201b620007561760201c565b600560009054906101000a900460ff161562000317576040517f08c379a00000000000000000000000000000000000000000000000000000000081526004016200030e9062000973565b60405180910390fd5b505050565b505050565b505050565b8280546200033490620009c4565b90600052602060002090601f016020900481019282620003585760008555620003a4565b82601f106200037357805160ff1916838001178555620003a4565b82800160010185558215620003a4579182015b82811115620003a357825182559160200191906001019062000386565b5b509050620003b39190620003b7565b5090565b5b80821115620003d2576000816000905550600101620003b8565b5090565b6000604051905090565b600080fd5b600080fd5b6000819050919050565b620003ff81620003ea565b81146200040b57600080fd5b50565b6000815190506200041f81620003f4565b92915050565b600073ffffffffffffffffffffffffffffffffffffffff82169050919050565b6000620004528262000425565b9050919050565b620004648162000445565b81146200047057600080fd5b50565b600081519050620004848162000459565b92915050565b600080fd5b600080fd5b6000601f19601f8301169050919050565b7f4e487b7100000000000000000000000000000000000000000000000000000000600052604160045260246000fd5b620004df8262000494565b810181811067ffffffffffffffff82111715620005015762000500620004a5565b5b80604052505050565b600062000516620003d6565b9050620005248282620004d4565b919050565b600067ffffffffffffffff821115620005475762000546620004a5565b5b620005528262000494565b9050602081019050919050565b60005b838110156200057f57808201518184015260208101905062000562565b838111156200058f576000848401525b50505050565b6000620005ac620005a68462000529565b6200050a565b905082815260208101848484011115620005cb57620005ca6200048f565b5b620005d88482856200055f565b509392505050565b600082601f830112620005f857620005f76200048a565b5b81516200060a84826020860162000595565b91505092915050565b60008060008060008060c08789031215620006335762000632620003e0565b5b60006200064389828a016200040e565b96505060206200065689828a016200040e565b95505060406200066989828a0162000473565b94505060606200067c89828a0162000473565b935050608087015167ffffffffffffffff811115620006a0576200069f620003e5565b5b620006ae89828a01620005e0565b92505060a087015167ffffffffffffffff811115620006d257620006d1620003e5565b5b620006e089828a01620005e0565b9150509295509295509295565b600082825260208201905092915050565b7f636f6e7472696275746f72416c6c6f636174696f6e206d75737420626520677260008201527f6561746572207468616e206f7220657175616c20746f203020616e64206c657360208201527f73207468616e20696e697469616c537570706c79000000000000000000000000604082015250565b600062000782605483620006ed565b91506200078f82620006fe565b606082019050919050565b60006020820190508181036000830152620007b58162000773565b9050919050565b7f4e487b7100000000000000000000000000000000000000000000000000000000600052601160045260246000fd5b6000620007f882620003ea565b91506200080583620003ea565b9250828210156200081b576200081a620007bc565b5b828203905092915050565b7f45524332303a206d696e7420746f20746865207a65726f206164647265737300600082015250565b60006200085e601f83620006ed565b91506200086b8262000826565b602082019050919050565b6000602082019050818103600083015262000891816200084f565b9050919050565b6000620008a582620003ea565b9150620008b283620003ea565b9250827fffffffffffffffffffffffffffffffffffffffffffffffffffffffffffffffff03821115620008ea57620008e9620007bc565b5b828201905092915050565b6200090081620003ea565b82525050565b60006020820190506200091d6000830184620008f5565b92915050565b7f44414f20746f6b656e206973206c6f636b656400000000000000000000000000600082015250565b60006200095b601383620006ed565b9150620009688262000923565b602082019050919050565b600060208201905081810360008301526200098e816200094c565b9050919050565b7f4e487b7100000000000000000000000000000000000000000000000000000000600052602260045260246000fd5b60006002820490506001821680620009dd57607f821691505b60208210811415620009f457620009f362000995565b5b50919050565b61180a8062000a0a6000396000f3fe608060405234801561001057600080fd5b50600436106100cf5760003560e01c806370a082311161008c578063a69df4b511610066578063a69df4b51461023c578063a9059cbb14610246578063cf30901214610276578063dd62ed3e14610294576100cf565b806370a08231146101be57806395d89b41146101ee578063a457c2d71461020c576100cf565b806306fdde03146100d4578063095ea7b3146100f257806318160ddd1461012257806323b872dd14610140578063313ce56714610170578063395093511461018e575b600080fd5b6100dc6102c4565b6040516100e99190610f61565b60405180910390f35b61010c6004803603810190610107919061101c565b610356565b6040516101199190611077565b60405180910390f35b61012a610379565b60405161013791906110a1565b60405180910390f35b61015a600480360381019061015591906110bc565b610383565b6040516101679190611077565b60405180910390f35b6101786103b2565b604051610185919061112b565b60405180910390f35b6101a860048036038101906101a3919061101c565b6103bb565b6040516101b59190611077565b60405180910390f35b6101d860048036038101906101d39190611146565b610465565b6040516101e591906110a1565b60405180910390f35b6101f66104ad565b6040516102039190610f61565b60405180910390f35b6102266004803603810190610221919061101c565b61053f565b6040516102339190611077565b60405180910390f35b610244610629565b005b610260600480360381019061025b919061101c565b610695565b60405161026d9190611077565b60405180910390f35b61027e6106b8565b60405161028b9190611077565b60405180910390f35b6102ae60048036038101906102a99190611173565b6106cf565b6040516102bb91906110a1565b60405180910390f35b6060600380546102d3906111e2565b80601f01602080910402602001604051908101604052809291908181526020018280546102ff906111e2565b801561034c5780601f106103215761010080835404028352916020019161034c565b820191906000526020600020905b81548152906001019060200180831161032f57829003601f168201915b5050505050905090565b60008061036161075b565b905061036e818585610763565b600191505092915050565b6000600254905090565b60008061038e61075b565b905061039b85828561092e565b6103a6858585610a3a565b60019150509392505050565b60006012905090565b6000806103c661075b565b905061045a818585600160008673ffffffffffffffffffffffffffffffffffffffff1673ffffffffffffffffffffffffffffffffffffffff16815260200190815260200160002060008973ffffffffffffffffffffffffffffffffffffffff1673ffffffffffffffffffffffffffffffffffffffff168152602001908152602001600020546104559190611243565b610763565b600191505092915050565b60008060008373ffffffffffffffffffffffffffffffffffffffff1673ffffffffffffffffffffffffffffffffffffffff168152602001908152602001600020549050919050565b6060600480546104bc906111e2565b80601f01602080910402602001604051908101604052809291908181526020018280546104e8906111e2565b80156105355780601f1061050a57610100808354040283529160200191610535565b820191906000526020600020905b81548152906001019060200180831161051857829003601f168201915b5050505050905090565b60008061054a61075b565b90506000600160008373ffffffffffffffffffffffffffffffffffffffff1673ffffffffffffffffffffffffffffffffffffffff16815260200190815260200160002060008673ffffffffffffffffffffffffffffffffffffffff1673ffffffffffffffffffffffffffffffffffffffff16815260200190815260200160002054905083811015610610576040517f08c379a00000000000000000000000000000000000000000000000000000000081526004016106079061130b565b60405180910390fd5b61061d8286868403610763565b60019250505092915050565b600560009054906101000a900460ff16610678576040517f08c379a000000000000000000000000000000000000000000000000000000000815260040161066f90611377565b60405180910390fd5b6000600560006101000a81548160ff021916908315150217905550565b6000806106a061075b565b90506106ad818585610a3a565b600191505092915050565b6000600560009054906101000a900460ff16905090565b6000600160008473ffffffffffffffffffffffffffffffffffffffff1673ffffffffffffffffffffffffffffffffffffffff16815260200190815260200160002060008373ffffffffffffffffffffffffffffffffffffffff1673ffffffffffffffffffffffffffffffffffffffff16815260200190815260200160002054905092915050565b505050565b600033905090565b600073ffffffffffffffffffffffffffffffffffffffff168373ffffffffffffffffffffffffffffffffffffffff1614156107d3576040517f08c379a00000000000000000000000000000000000000000000000000000000081526004016107ca90611409565b60405180910390fd5b600073ffffffffffffffffffffffffffffffffffffffff168273ffffffffffffffffffffffffffffffffffffffff161415610843576040517f08c379a000000000000000000000000000000000000000000000000000000000815260040161083a9061149b565b60405180910390fd5b80600160008573ffffffffffffffffffffffffffffffffffffffff1673ffffffffffffffffffffffffffffffffffffffff16815260200190815260200160002060008473ffffffffffffffffffffffffffffffffffffffff1673ffffffffffffffffffffffffffffffffffffffff168152602001908152602001600020819055508173ffffffffffffffffffffffffffffffffffffffff168373ffffffffffffffffffffffffffffffffffffffff167f8c5be1e5ebec7d5bd14f71427d1e84f3dd0314c0f7b2291e5b200ac8c7c3b9258360405161092191906110a1565b60405180910390a3505050565b61096f6040518060400160405280600f81526020017f5f7370656e64416c6c6f77616e63650000000000000000000000000000000000815250848484610cfc565b600061097b84846106cf565b90506109bc6040518060400160405280601081526020017f63757272656e74416c6c6f77616e63650000000000000000000000000000000081525082610d9e565b7fffffffffffffffffffffffffffffffffffffffffffffffffffffffffffffffff8114610a345781811015610a26576040517f08c379a0000000000000000000000000000000000000000000000000000000008152600401610a1d90611507565b60405180910390fd5b610a338484848403610763565b5b50505050565b600073ffffffffffffffffffffffffffffffffffffffff168373ffffffffffffffffffffffffffffffffffffffff161415610aaa576040517f08c379a0000000000000000000000000000000000000000000000000000000008152600401610aa190611599565b60405180910390fd5b600073ffffffffffffffffffffffffffffffffffffffff168273ffffffffffffffffffffffffffffffffffffffff161415610b1a576040517f08c379a0000000000000000000000000000000000000000000000000000000008152600401610b119061162b565b60405180910390fd5b610b5b6040518060400160405280600881526020017f7472616e73666572000000000000000000000000000000000000000000000000815250848484610cfc565b610b66838383610e3a565b60008060008573ffffffffffffffffffffffffffffffffffffffff1673ffffffffffffffffffffffffffffffffffffffff16815260200190815260200160002054905081811015610bec576040517f08c379a0000000000000000000000000000000000000000000000000000000008152600401610be3906116bd565b60405180910390fd5b8181036000808673ffffffffffffffffffffffffffffffffffffffff1673ffffffffffffffffffffffffffffffffffffffff16815260200190815260200160002081905550816000808573ffffffffffffffffffffffffffffffffffffffff1673ffffffffffffffffffffffffffffffffffffffff1681526020019081526020016000206000828254610c7f9190611243565b925050819055508273ffffffffffffffffffffffffffffffffffffffff168473ffffffffffffffffffffffffffffffffffffffff167fddf252ad1be2c89b69c2b068fc378daa952ba7f163c4a11628f55a4df523b3ef84604051610ce391906110a1565b60405180910390a3610cf6848484610e9a565b50505050565b610d9884848484604051602401610d1694939291906116ec565b6040516020818303038152906040527f6eb7943d000000000000000000000000000000000000000000000000000000007bffffffffffffffffffffffffffffffffffffffffffffffffffffffff19166020820180517bffffffffffffffffffffffffffffffffffffffffffffffffffffffff8381831617835250505050610e9f565b50505050565b610e368282604051602401610db4929190611738565b6040516020818303038152906040527f9710a9d0000000000000000000000000000000000000000000000000000000007bffffffffffffffffffffffffffffffffffffffffffffffffffffffff19166020820180517bffffffffffffffffffffffffffffffffffffffffffffffffffffffff8381831617835250505050610e9f565b5050565b610e45838383610756565b600560009054906101000a900460ff1615610e95576040517f08c379a0000000000000000000000000000000000000000000000000000000008152600401610e8c906117b4565b60405180910390fd5b505050565b505050565b60008151905060006a636f6e736f6c652e6c6f679050602083016000808483855afa5050505050565b600081519050919050565b600082825260208201905092915050565b60005b83811015610f02578082015181840152602081019050610ee7565b83811115610f11576000848401525b50505050565b6000601f19601f8301169050919050565b6000610f3382610ec8565b610f3d8185610ed3565b9350610f4d818560208601610ee4565b610f5681610f17565b840191505092915050565b60006020820190508181036000830152610f7b8184610f28565b905092915050565b600080fd5b600073ffffffffffffffffffffffffffffffffffffffff82169050919050565b6000610fb382610f88565b9050919050565b610fc381610fa8565b8114610fce57600080fd5b50565b600081359050610fe081610fba565b92915050565b6000819050919050565b610ff981610fe6565b811461100457600080fd5b50565b60008135905061101681610ff0565b92915050565b6000806040838503121561103357611032610f83565b5b600061104185828601610fd1565b925050602061105285828601611007565b9150509250929050565b60008115159050919050565b6110718161105c565b82525050565b600060208201905061108c6000830184611068565b92915050565b61109b81610fe6565b82525050565b60006020820190506110b66000830184611092565b92915050565b6000806000606084860312156110d5576110d4610f83565b5b60006110e386828701610fd1565b93505060206110f486828701610fd1565b925050604061110586828701611007565b9150509250925092565b600060ff82169050919050565b6111258161110f565b82525050565b6000602082019050611140600083018461111c565b92915050565b60006020828403121561115c5761115b610f83565b5b600061116a84828501610fd1565b91505092915050565b6000806040838503121561118a57611189610f83565b5b600061119885828601610fd1565b92505060206111a985828601610fd1565b9150509250929050565b7f4e487b7100000000000000000000000000000000000000000000000000000000600052602260045260246000fd5b600060028204905060018216806111fa57607f821691505b6020821081141561120e5761120d6111b3565b5b50919050565b7f4e487b7100000000000000000000000000000000000000000000000000000000600052601160045260246000fd5b600061124e82610fe6565b915061125983610fe6565b9250827fffffffffffffffffffffffffffffffffffffffffffffffffffffffffffffffff0382111561128e5761128d611214565b5b828201905092915050565b7f45524332303a2064656372656173656420616c6c6f77616e63652062656c6f7760008201527f207a65726f000000000000000000000000000000000000000000000000000000602082015250565b60006112f5602583610ed3565b915061130082611299565b604082019050919050565b60006020820190508181036000830152611324816112e8565b9050919050565b7f44414f20746f6b656e206973206e6f74206c6f636b6564000000000000000000600082015250565b6000611361601783610ed3565b915061136c8261132b565b602082019050919050565b6000602082019050818103600083015261139081611354565b9050919050565b7f45524332303a20617070726f76652066726f6d20746865207a65726f2061646460008201527f7265737300000000000000000000000000000000000000000000000000000000602082015250565b60006113f3602483610ed3565b91506113fe82611397565b604082019050919050565b60006020820190508181036000830152611422816113e6565b9050919050565b7f45524332303a20617070726f766520746f20746865207a65726f20616464726560008201527f7373000000000000000000000000000000000000000000000000000000000000602082015250565b6000611485602283610ed3565b915061149082611429565b604082019050919050565b600060208201905081810360008301526114b481611478565b9050919050565b7f45524332303a20696e73756666696369656e7420616c6c6f77616e6365000000600082015250565b60006114f1601d83610ed3565b91506114fc826114bb565b602082019050919050565b60006020820190508181036000830152611520816114e4565b9050919050565b7f45524332303a207472616e736665722066726f6d20746865207a65726f20616460008201527f6472657373000000000000000000000000000000000000000000000000000000602082015250565b6000611583602583610ed3565b915061158e82611527565b604082019050919050565b600060208201905081810360008301526115b281611576565b9050919050565b7f45524332303a207472616e7366657220746f20746865207a65726f206164647260008201527f6573730000000000000000000000000000000000000000000000000000000000602082015250565b6000611615602383610ed3565b9150611620826115b9565b604082019050919050565b6000602082019050818103600083015261164481611608565b9050919050565b7f45524332303a207472616e7366657220616d6f756e742065786365656473206260008201527f616c616e63650000000000000000000000000000000000000000000000000000602082015250565b60006116a7602683610ed3565b91506116b28261164b565b604082019050919050565b600060208201905081810360008301526116d68161169a565b9050919050565b6116e681610fa8565b82525050565b600060808201905081810360008301526117068187610f28565b905061171560208301866116dd565b61172260408301856116dd565b61172f6060830184611092565b95945050505050565b600060408201905081810360008301526117528185610f28565b90506117616020830184611092565b9392505050565b7f44414f20746f6b656e206973206c6f636b656400000000000000000000000000600082015250565b600061179e601383610ed3565b91506117a982611768565b602082019050919050565b600060208201905081810360008301526117cd81611791565b905091905056fea2646970667358221220da6bf9eab0a061aa8b06656b1b638f6ba97ef41f21355859fb60a92b1c77289f64736f6c634300080a003360806040523480156200001157600080fd5b5060405162002c3f38038062002c3f83398181016040528101906200003791906200042f565b85858160039080519060200190620000519291906200017d565b5080600490805190602001906200006a9291906200017d565b50505081600560006101000a81548173ffffffffffffffffffffffffffffffffffffffff021916908373ffffffffffffffffffffffffffffffffffffffff16021790555083600660006101000a81548173ffffffffffffffffffffffffffffffffffffffff021916908373ffffffffffffffffffffffffffffffffffffffff16021790555082600760006101000a81548173ffffffffffffffffffffffffffffffffffffffff021916908373ffffffffffffffffffffffffffffffffffffffff16021790555080600860006101000a81548173ffffffffffffffffffffffffffffffffffffffff021916908373ffffffffffffffffffffffffffffffffffffffff1602179055505050505050506200056e565b8280546200018b9062000538565b90600052602060002090601f016020900481019282620001af5760008555620001fb565b82601f10620001ca57805160ff1916838001178555620001fb565b82800160010185558215620001fb579182015b82811115620001fa578251825591602001919060010190620001dd565b5b5090506200020a91906200020e565b5090565b5b80821115620002295760008160009055506001016200020f565b5090565b6000604051905090565b600080fd5b600080fd5b600080fd5b600080fd5b6000601f19601f8301169050919050565b7f4e487b7100000000000000000000000000000000000000000000000000000000600052604160045260246000fd5b62000296826200024b565b810181811067ffffffffffffffff82111715620002b857620002b76200025c565b5b80604052505050565b6000620002cd6200022d565b9050620002db82826200028b565b919050565b600067ffffffffffffffff821115620002fe57620002fd6200025c565b5b62000309826200024b565b9050602081019050919050565b60005b838110156200033657808201518184015260208101905062000319565b8381111562000346576000848401525b50505050565b6000620003636200035d84620002e0565b620002c1565b90508281526020810184848401111562000382576200038162000246565b5b6200038f84828562000316565b509392505050565b600082601f830112620003af57620003ae62000241565b5b8151620003c18482602086016200034c565b91505092915050565b600073ffffffffffffffffffffffffffffffffffffffff82169050919050565b6000620003f782620003ca565b9050919050565b6200040981620003ea565b81146200041557600080fd5b50565b6000815190506200042981620003fe565b92915050565b60008060008060008060c087890312156200044f576200044e62000237565b5b600087015167ffffffffffffffff81111562000470576200046f6200023c565b5b6200047e89828a0162000397565b965050602087015167ffffffffffffffff811115620004a257620004a16200023c565b5b620004b089828a0162000397565b9550506040620004c389828a0162000418565b9450506060620004d689828a0162000418565b9350506080620004e989828a0162000418565b92505060a0620004fc89828a0162000418565b9150509295509295509295565b7f4e487b7100000000000000000000000000000000000000000000000000000000600052602260045260246000fd5b600060028204905060018216806200055157607f821691505b6020821081141562000568576200056762000509565b5b50919050565b6126c1806200057e6000396000f3fe608060405234801561001057600080fd5b50600436106100f55760003560e01c80636190e91d11610097578063a457c2d711610066578063a457c2d714610286578063a9059cbb146102b6578063dd62ed3e146102e6578063fbfa77cf14610316576100f5565b80636190e91d1461020057806370a082311461021c5780637d78a4671461024c57806395d89b4114610268576100f5565b806323b872dd116100d357806323b872dd14610166578063313ce5671461019657806339509351146101b45780633c173a4f146101e4576100f5565b806306fdde03146100fa578063095ea7b31461011857806318160ddd14610148575b600080fd5b610102610334565b60405161010f91906119ac565b60405180910390f35b610132600480360381019061012d9190611a67565b6103c6565b60405161013f9190611ac2565b60405180910390f35b6101506103e9565b60405161015d9190611aec565b60405180910390f35b610180600480360381019061017b9190611b07565b6103f3565b60405161018d9190611ac2565b60405180910390f35b61019e610422565b6040516101ab9190611b76565b60405180910390f35b6101ce60048036038101906101c99190611a67565b61042b565b6040516101db9190611ac2565b60405180910390f35b6101fe60048036038101906101f99190611b91565b6104d5565b005b61021a60048036038101906102159190611bf8565b610640565b005b61023660048036038101906102319190611c38565b610762565b6040516102439190611aec565b60405180910390f35b61026660048036038101906102619190611bf8565b6107aa565b005b610270610aa3565b60405161027d91906119ac565b60405180910390f35b6102a0600480360381019061029b9190611a67565b610b35565b6040516102ad9190611ac2565b60405180910390f35b6102d060048036038101906102cb9190611a67565b610c1f565b6040516102dd9190611ac2565b60405180910390f35b61030060048036038101906102fb9190611c65565b610c42565b60405161030d9190611aec565b60405180910390f35b61031e610cc9565b60405161032b9190611d04565b60405180910390f35b60606003805461034390611d4e565b80601f016020809104026020016040519081016040528092919081815260200182805461036f90611d4e565b80156103bc5780601f10610391576101008083540402835291602001916103bc565b820191906000526020600020905b81548152906001019060200180831161039f57829003601f168201915b5050505050905090565b6000806103d1610cf3565b90506103de818585610cfb565b600191505092915050565b6000600254905090565b6000806103fe610cf3565b905061040b858285610ec6565b610416858585610fd2565b60019150509392505050565b60006012905090565b600080610436610cf3565b90506104ca818585600160008673ffffffffffffffffffffffffffffffffffffffff1673ffffffffffffffffffffffffffffffffffffffff16815260200190815260200160002060008973ffffffffffffffffffffffffffffffffffffffff1673ffffffffffffffffffffffffffffffffffffffff168152602001908152602001600020546104c59190611daf565b610cfb565b600191505092915050565b61053560405180606001604052806028815260200161264260289139846040518060400160405280600281526020017f6279000000000000000000000000000000000000000000000000000000000000815250610530610cf3565b611294565b60008114156105f257600860009054906101000a900473ffffffffffffffffffffffffffffffffffffffff1673ffffffffffffffffffffffffffffffffffffffff16632e2d298484600660009054906101000a900473ffffffffffffffffffffffffffffffffffffffff16856040518463ffffffff1660e01b81526004016105bf93929190611e14565b600060405180830381600087803b1580156105d957600080fd5b505af11580156105ed573d6000803e3d6000fd5b505050505b6106306040518060400160405280601081526020017f4d696e74696e672070726f6d6973657300000000000000000000000000000000815250611336565b61063a84846113cf565b50505050565b61066260405180606001604052806022815260200161266a602291398261152f565b61066c81836115cb565b6106ab6040518060400160405280601681526020017f5769746864726177696e6720636f6c6c61746572616c00000000000000000000815250836117a2565b600860009054906101000a900473ffffffffffffffffffffffffffffffffffffffff1673ffffffffffffffffffffffffffffffffffffffff1663b460af9483600660009054906101000a900473ffffffffffffffffffffffffffffffffffffffff16846040518463ffffffff1660e01b815260040161072c93929190611e14565b600060405180830381600087803b15801561074657600080fd5b505af115801561075a573d6000803e3d6000fd5b505050505050565b60008060008373ffffffffffffffffffffffffffffffffffffffff1673ffffffffffffffffffffffffffffffffffffffff168152602001908152602001600020549050919050565b6107cc604051806060016040528060228152602001612620602291398261152f565b6107d681836115cb565b6108156040518060400160405280602081526020017f5769746864726177696e672064616f20746f6b656e20746f2063616c6c657220815250836117a2565b600061081f6103e9565b600860009054906101000a900473ffffffffffffffffffffffffffffffffffffffff1673ffffffffffffffffffffffffffffffffffffffff1663e3a9db1a600760009054906101000a900473ffffffffffffffffffffffffffffffffffffffff166040518263ffffffff1660e01b815260040161089c9190611e4b565b602060405180830381865afa1580156108b9573d6000803e3d6000fd5b505050506040513d601f19601f820116820180604052508101906108dd9190611e7b565b846108e89190611ea8565b6108f29190611f31565b9050600860009054906101000a900473ffffffffffffffffffffffffffffffffffffffff1673ffffffffffffffffffffffffffffffffffffffff1663b460af9482600760009054906101000a900473ffffffffffffffffffffffffffffffffffffffff16856040518463ffffffff1660e01b815260040161097593929190611e14565b600060405180830381600087803b15801561098f57600080fd5b505af11580156109a3573d6000803e3d6000fd5b505050506109c96040518060600160405280602281526020016125fe60229139846117a2565b600860009054906101000a900473ffffffffffffffffffffffffffffffffffffffff1673ffffffffffffffffffffffffffffffffffffffff1663b460af9484600660009054906101000a900473ffffffffffffffffffffffffffffffffffffffff16600560009054906101000a900473ffffffffffffffffffffffffffffffffffffffff166040518463ffffffff1660e01b8152600401610a6c93929190611e14565b600060405180830381600087803b158015610a8657600080fd5b505af1158015610a9a573d6000803e3d6000fd5b50505050505050565b606060048054610ab290611d4e565b80601f0160208091040260200160405190810160405280929190818152602001828054610ade90611d4e565b8015610b2b5780601f10610b0057610100808354040283529160200191610b2b565b820191906000526020600020905b815481529060010190602001808311610b0e57829003601f168201915b5050505050905090565b600080610b40610cf3565b90506000600160008373ffffffffffffffffffffffffffffffffffffffff1673ffffffffffffffffffffffffffffffffffffffff16815260200190815260200160002060008673ffffffffffffffffffffffffffffffffffffffff1673ffffffffffffffffffffffffffffffffffffffff16815260200190815260200160002054905083811015610c06576040517f08c379a0000000000000000000000000000000000000000000000000000000008152600401610bfd90611fd4565b60405180910390fd5b610c138286868403610cfb565b60019250505092915050565b600080610c2a610cf3565b9050610c37818585610fd2565b600191505092915050565b6000600160008473ffffffffffffffffffffffffffffffffffffffff1673ffffffffffffffffffffffffffffffffffffffff16815260200190815260200160002060008373ffffffffffffffffffffffffffffffffffffffff1673ffffffffffffffffffffffffffffffffffffffff16815260200190815260200160002054905092915050565b6000600860009054906101000a900473ffffffffffffffffffffffffffffffffffffffff16905090565b600033905090565b600073ffffffffffffffffffffffffffffffffffffffff168373ffffffffffffffffffffffffffffffffffffffff161415610d6b576040517f08c379a0000000000000000000000000000000000000000000000000000000008152600401610d6290612066565b60405180910390fd5b600073ffffffffffffffffffffffffffffffffffffffff168273ffffffffffffffffffffffffffffffffffffffff161415610ddb576040517f08c379a0000000000000000000000000000000000000000000000000000000008152600401610dd2906120f8565b60405180910390fd5b80600160008573ffffffffffffffffffffffffffffffffffffffff1673ffffffffffffffffffffffffffffffffffffffff16815260200190815260200160002060008473ffffffffffffffffffffffffffffffffffffffff1673ffffffffffffffffffffffffffffffffffffffff168152602001908152602001600020819055508173ffffffffffffffffffffffffffffffffffffffff168373ffffffffffffffffffffffffffffffffffffffff167f8c5be1e5ebec7d5bd14f71427d1e84f3dd0314c0f7b2291e5b200ac8c7c3b92583604051610eb99190611aec565b60405180910390a3505050565b610f076040518060400160405280600f81526020017f5f7370656e64416c6c6f77616e6365000000000000000000000000000000000081525084848461183e565b6000610f138484610c42565b9050610f546040518060400160405280601081526020017f63757272656e74416c6c6f77616e636500000000000000000000000000000000815250826117a2565b7fffffffffffffffffffffffffffffffffffffffffffffffffffffffffffffffff8114610fcc5781811015610fbe576040517f08c379a0000000000000000000000000000000000000000000000000000000008152600401610fb590612164565b60405180910390fd5b610fcb8484848403610cfb565b5b50505050565b600073ffffffffffffffffffffffffffffffffffffffff168373ffffffffffffffffffffffffffffffffffffffff161415611042576040517f08c379a0000000000000000000000000000000000000000000000000000000008152600401611039906121f6565b60405180910390fd5b600073ffffffffffffffffffffffffffffffffffffffff168273ffffffffffffffffffffffffffffffffffffffff1614156110b2576040517f08c379a00000000000000000000000000000000000000000000000000000000081526004016110a990612288565b60405180910390fd5b6110f36040518060400160405280600881526020017f7472616e7366657200000000000000000000000000000000000000000000000081525084848461183e565b6110fe8383836118e0565b60008060008573ffffffffffffffffffffffffffffffffffffffff1673ffffffffffffffffffffffffffffffffffffffff16815260200190815260200160002054905081811015611184576040517f08c379a000000000000000000000000000000000000000000000000000000000815260040161117b9061231a565b60405180910390fd5b8181036000808673ffffffffffffffffffffffffffffffffffffffff1673ffffffffffffffffffffffffffffffffffffffff16815260200190815260200160002081905550816000808573ffffffffffffffffffffffffffffffffffffffff1673ffffffffffffffffffffffffffffffffffffffff16815260200190815260200160002060008282546112179190611daf565b925050819055508273ffffffffffffffffffffffffffffffffffffffff168473ffffffffffffffffffffffffffffffffffffffff167fddf252ad1be2c89b69c2b068fc378daa952ba7f163c4a11628f55a4df523b3ef8460405161127b9190611aec565b60405180910390a361128e8484846118e5565b50505050565b611330848484846040516024016112ae949392919061233a565b6040516020818303038152906040527fbb7235e9000000000000000000000000000000000000000000000000000000007bffffffffffffffffffffffffffffffffffffffffffffffffffffffff19166020820180517bffffffffffffffffffffffffffffffffffffffffffffffffffffffff83818316178352505050506118ea565b50505050565b6113cc8160405160240161134a91906119ac565b6040516020818303038152906040527f41304fac000000000000000000000000000000000000000000000000000000007bffffffffffffffffffffffffffffffffffffffffffffffffffffffff19166020820180517bffffffffffffffffffffffffffffffffffffffffffffffffffffffff83818316178352505050506118ea565b50565b600073ffffffffffffffffffffffffffffffffffffffff168273ffffffffffffffffffffffffffffffffffffffff16141561143f576040517f08c379a0000000000000000000000000000000000000000000000000000000008152600401611436906123d9565b60405180910390fd5b61144b600083836118e0565b806002600082825461145d9190611daf565b92505081905550806000808473ffffffffffffffffffffffffffffffffffffffff1673ffffffffffffffffffffffffffffffffffffffff16815260200190815260200160002060008282546114b29190611daf565b925050819055508173ffffffffffffffffffffffffffffffffffffffff16600073ffffffffffffffffffffffffffffffffffffffff167fddf252ad1be2c89b69c2b068fc378daa952ba7f163c4a11628f55a4df523b3ef836040516115179190611aec565b60405180910390a361152b600083836118e5565b5050565b6115c782826040516024016115459291906123f9565b6040516020818303038152906040527f319af333000000000000000000000000000000000000000000000000000000007bffffffffffffffffffffffffffffffffffffffffffffffffffffffff19166020820180517bffffffffffffffffffffffffffffffffffffffffffffffffffffffff83818316178352505050506118ea565b5050565b600073ffffffffffffffffffffffffffffffffffffffff168273ffffffffffffffffffffffffffffffffffffffff16141561163b576040517f08c379a00000000000000000000000000000000000000000000000000000000081526004016116329061249b565b60405180910390fd5b611647826000836118e0565b60008060008473ffffffffffffffffffffffffffffffffffffffff1673ffffffffffffffffffffffffffffffffffffffff168152602001908152602001600020549050818110156116cd576040517f08c379a00000000000000000000000000000000000000000000000000000000081526004016116c49061252d565b60405180910390fd5b8181036000808573ffffffffffffffffffffffffffffffffffffffff1673ffffffffffffffffffffffffffffffffffffffff168152602001908152602001600020819055508160026000828254611724919061254d565b92505081905550600073ffffffffffffffffffffffffffffffffffffffff168373ffffffffffffffffffffffffffffffffffffffff167fddf252ad1be2c89b69c2b068fc378daa952ba7f163c4a11628f55a4df523b3ef846040516117899190611aec565b60405180910390a361179d836000846118e5565b505050565b61183a82826040516024016117b8929190612581565b6040516020818303038152906040527f9710a9d0000000000000000000000000000000000000000000000000000000007bffffffffffffffffffffffffffffffffffffffffffffffffffffffff19166020820180517bffffffffffffffffffffffffffffffffffffffffffffffffffffffff83818316178352505050506118ea565b5050565b6118da8484848460405160240161185894939291906125b1565b6040516020818303038152906040527f6eb7943d000000000000000000000000000000000000000000000000000000007bffffffffffffffffffffffffffffffffffffffffffffffffffffffff19166020820180517bffffffffffffffffffffffffffffffffffffffffffffffffffffffff83818316178352505050506118ea565b50505050565b505050565b505050565b60008151905060006a636f6e736f6c652e6c6f679050602083016000808483855afa5050505050565b600081519050919050565b600082825260208201905092915050565b60005b8381101561194d578082015181840152602081019050611932565b8381111561195c576000848401525b50505050565b6000601f19601f8301169050919050565b600061197e82611913565b611988818561191e565b935061199881856020860161192f565b6119a181611962565b840191505092915050565b600060208201905081810360008301526119c68184611973565b905092915050565b600080fd5b600073ffffffffffffffffffffffffffffffffffffffff82169050919050565b60006119fe826119d3565b9050919050565b611a0e816119f3565b8114611a1957600080fd5b50565b600081359050611a2b81611a05565b92915050565b6000819050919050565b611a4481611a31565b8114611a4f57600080fd5b50565b600081359050611a6181611a3b565b92915050565b60008060408385031215611a7e57611a7d6119ce565b5b6000611a8c85828601611a1c565b9250506020611a9d85828601611a52565b9150509250929050565b60008115159050919050565b611abc81611aa7565b82525050565b6000602082019050611ad76000830184611ab3565b92915050565b611ae681611a31565b82525050565b6000602082019050611b016000830184611add565b92915050565b600080600060608486031215611b2057611b1f6119ce565b5b6000611b2e86828701611a1c565b9350506020611b3f86828701611a1c565b9250506040611b5086828701611a52565b9150509250925092565b600060ff82169050919050565b611b7081611b5a565b82525050565b6000602082019050611b8b6000830184611b67565b92915050565b60008060008060808587031215611bab57611baa6119ce565b5b6000611bb987828801611a1c565b9450506020611bca87828801611a52565b9350506040611bdb87828801611a1c565b9250506060611bec87828801611a52565b91505092959194509250565b60008060408385031215611c0f57611c0e6119ce565b5b6000611c1d85828601611a52565b9250506020611c2e85828601611a1c565b9150509250929050565b600060208284031215611c4e57611c4d6119ce565b5b6000611c5c84828501611a1c565b91505092915050565b60008060408385031215611c7c57611c7b6119ce565b5b6000611c8a85828601611a1c565b9250506020611c9b85828601611a1c565b9150509250929050565b6000819050919050565b6000611cca611cc5611cc0846119d3565b611ca5565b6119d3565b9050919050565b6000611cdc82611caf565b9050919050565b6000611cee82611cd1565b9050919050565b611cfe81611ce3565b82525050565b6000602082019050611d196000830184611cf5565b92915050565b7f4e487b7100000000000000000000000000000000000000000000000000000000600052602260045260246000fd5b60006002820490506001821680611d6657607f821691505b60208210811415611d7a57611d79611d1f565b5b50919050565b7f4e487b7100000000000000000000000000000000000000000000000000000000600052601160045260246000fd5b6000611dba82611a31565b9150611dc583611a31565b9250827fffffffffffffffffffffffffffffffffffffffffffffffffffffffffffffffff03821115611dfa57611df9611d80565b5b828201905092915050565b611e0e816119f3565b82525050565b6000606082019050611e296000830186611add565b611e366020830185611e05565b611e436040830184611e05565b949350505050565b6000602082019050611e606000830184611e05565b92915050565b600081519050611e7581611a3b565b92915050565b600060208284031215611e9157611e906119ce565b5b6000611e9f84828501611e66565b91505092915050565b6000611eb382611a31565b9150611ebe83611a31565b9250817fffffffffffffffffffffffffffffffffffffffffffffffffffffffffffffffff0483118215151615611ef757611ef6611d80565b5b828202905092915050565b7f4e487b7100000000000000000000000000000000000000000000000000000000600052601260045260246000fd5b6000611f3c82611a31565b9150611f4783611a31565b925082611f5757611f56611f02565b5b828204905092915050565b7f45524332303a2064656372656173656420616c6c6f77616e63652062656c6f7760008201527f207a65726f000000000000000000000000000000000000000000000000000000602082015250565b6000611fbe60258361191e565b9150611fc982611f62565b604082019050919050565b60006020820190508181036000830152611fed81611fb1565b9050919050565b7f45524332303a20617070726f76652066726f6d20746865207a65726f2061646460008201527f7265737300000000000000000000000000000000000000000000000000000000602082015250565b600061205060248361191e565b915061205b82611ff4565b604082019050919050565b6000602082019050818103600083015261207f81612043565b9050919050565b7f45524332303a20617070726f766520746f20746865207a65726f20616464726560008201527f7373000000000000000000000000000000000000000000000000000000000000602082015250565b60006120e260228361191e565b91506120ed82612086565b604082019050919050565b60006020820190508181036000830152612111816120d5565b9050919050565b7f45524332303a20696e73756666696369656e7420616c6c6f77616e6365000000600082015250565b600061214e601d8361191e565b915061215982612118565b602082019050919050565b6000602082019050818103600083015261217d81612141565b9050919050565b7f45524332303a207472616e736665722066726f6d20746865207a65726f20616460008201527f6472657373000000000000000000000000000000000000000000000000000000602082015250565b60006121e060258361191e565b91506121eb82612184565b604082019050919050565b6000602082019050818103600083015261220f816121d3565b9050919050565b7f45524332303a207472616e7366657220746f20746865207a65726f206164647260008201527f6573730000000000000000000000000000000000000000000000000000000000602082015250565b600061227260238361191e565b915061227d82612216565b604082019050919050565b600060208201905081810360008301526122a181612265565b9050919050565b7f45524332303a207472616e7366657220616d6f756e742065786365656473206260008201527f616c616e63650000000000000000000000000000000000000000000000000000602082015250565b600061230460268361191e565b915061230f826122a8565b604082019050919050565b60006020820190508181036000830152612333816122f7565b9050919050565b600060808201905081810360008301526123548187611973565b90506123636020830186611add565b81810360408301526123758185611973565b90506123846060830184611e05565b95945050505050565b7f45524332303a206d696e7420746f20746865207a65726f206164647265737300600082015250565b60006123c3601f8361191e565b91506123ce8261238d565b602082019050919050565b600060208201905081810360008301526123f2816123b6565b9050919050565b600060408201905081810360008301526124138185611973565b90506124226020830184611e05565b9392505050565b7f45524332303a206275726e2066726f6d20746865207a65726f2061646472657360008201527f7300000000000000000000000000000000000000000000000000000000000000602082015250565b600061248560218361191e565b915061249082612429565b604082019050919050565b600060208201905081810360008301526124b481612478565b9050919050565b7f45524332303a206275726e20616d6f756e7420657863656564732062616c616e60008201527f6365000000000000000000000000000000000000000000000000000000000000602082015250565b600061251760228361191e565b9150612522826124bb565b604082019050919050565b600060208201905081810360008301526125468161250a565b9050919050565b600061255882611a31565b915061256383611a31565b92508282101561257657612575611d80565b5b828203905092915050565b6000604082019050818103600083015261259b8185611973565b90506125aa6020830184611add565b9392505050565b600060808201905081810360008301526125cb8187611973565b90506125da6020830186611e05565b6125e76040830185611e05565b6125f46060830184611add565b9594505050505056fe5769746864726177696e6720636f6c6c61746572616c20746f2074726561737572794275726e696e672070726f6d6973657320666f722064616f20746f6b656e73206f664465706f736974696e6720636f6c6c61746572616c20746f207661756c74206f6620616d6f756e744275726e696e672070726f6d6973657320666f7220636f6c6c61746572616c206f66a264697066735822122046ed0cdeaadd6320efc143cbe95ee3f872c4c7ac5519187706de82166b64e6df64736f6c634300080a0033a26469706673582212204d5ecf17f203d08b246dbd3e699ccbe1413e8f5197f78a24c79e5ae528d9b1ff64736f6c634300080a0033",
  "linkReferences": {},
  "deployedLinkReferences": {}
}